{
  "_format": "hh-sol-artifact-1",
  "contractName": "SimpleAccount",
  "sourceName": "contracts/SimpleAccountFactory.sol",
  "abi": [
    {
      "inputs": [
        {
          "internalType": "contract IEntryPoint",
          "name": "entryPoint_",
          "type": "address"
        }
      ],
      "stateMutability": "nonpayable",
      "type": "constructor"
    },
    {
      "inputs": [
        {
          "internalType": "address",
          "name": "target",
          "type": "address"
        }
      ],
      "name": "AddressEmptyCode",
      "type": "error"
    },
    {
      "inputs": [
        {
          "internalType": "address",
          "name": "implementation",
          "type": "address"
        }
      ],
      "name": "ERC1967InvalidImplementation",
      "type": "error"
    },
    {
      "inputs": [],
      "name": "ERC1967NonPayable",
      "type": "error"
    },
    {
      "inputs": [],
      "name": "FailedCall",
      "type": "error"
    },
    {
      "inputs": [],
      "name": "InvalidInitialization",
      "type": "error"
    },
    {
      "inputs": [],
      "name": "NotInitializing",
      "type": "error"
    },
    {
      "inputs": [],
      "name": "UUPSUnauthorizedCallContext",
      "type": "error"
    },
    {
      "inputs": [
        {
          "internalType": "bytes32",
          "name": "slot",
          "type": "bytes32"
        }
      ],
      "name": "UUPSUnsupportedProxiableUUID",
      "type": "error"
    },
    {
      "anonymous": false,
      "inputs": [
        {
          "indexed": false,
          "internalType": "uint64",
          "name": "version",
          "type": "uint64"
        }
      ],
      "name": "Initialized",
      "type": "event"
    },
    {
      "anonymous": false,
      "inputs": [
        {
          "indexed": true,
          "internalType": "contract IEntryPoint",
          "name": "entryPoint",
          "type": "address"
        },
        {
          "indexed": true,
          "internalType": "address",
          "name": "owner",
          "type": "address"
        }
      ],
      "name": "SimpleAccountInitialized",
      "type": "event"
    },
    {
      "inputs": [],
      "name": "UPGRADE_INTERFACE_VERSION",
      "outputs": [
        {
          "internalType": "string",
          "name": "",
          "type": "string"
        }
      ],
      "stateMutability": "view",
      "type": "function"
    },
    {
      "inputs": [],
      "name": "addDeposit",
      "outputs": [],
      "stateMutability": "payable",
      "type": "function"
    },
    {
      "inputs": [],
      "name": "entryPoint",
      "outputs": [
        {
          "internalType": "contract IEntryPoint",
          "name": "",
          "type": "address"
        }
      ],
      "stateMutability": "view",
      "type": "function"
    },
    {
      "inputs": [
        {
          "internalType": "address",
          "name": "dest",
          "type": "address"
        },
        {
          "internalType": "uint256",
          "name": "value",
          "type": "uint256"
        },
        {
          "internalType": "bytes",
          "name": "func",
          "type": "bytes"
        }
      ],
      "name": "execute",
      "outputs": [],
      "stateMutability": "nonpayable",
      "type": "function"
    },
    {
      "inputs": [
        {
          "internalType": "address[]",
          "name": "dest",
          "type": "address[]"
        },
        {
          "internalType": "uint256[]",
          "name": "val",
          "type": "uint256[]"
        },
        {
          "internalType": "bytes[]",
          "name": "func",
          "type": "bytes[]"
        }
      ],
      "name": "executeBatch",
      "outputs": [],
      "stateMutability": "nonpayable",
      "type": "function"
    },
    {
      "inputs": [],
      "name": "getDeposit",
      "outputs": [
        {
          "internalType": "uint256",
          "name": "",
          "type": "uint256"
        }
      ],
      "stateMutability": "view",
      "type": "function"
    },
    {
      "inputs": [],
      "name": "getNonce",
      "outputs": [
        {
          "internalType": "uint256",
          "name": "",
          "type": "uint256"
        }
      ],
      "stateMutability": "view",
      "type": "function"
    },
    {
      "inputs": [
        {
          "internalType": "address",
          "name": "anOwner",
          "type": "address"
        }
      ],
      "name": "initialize",
      "outputs": [],
      "stateMutability": "nonpayable",
      "type": "function"
    },
    {
      "inputs": [
        {
          "internalType": "address",
          "name": "",
          "type": "address"
        },
        {
          "internalType": "address",
          "name": "",
          "type": "address"
        },
        {
          "internalType": "uint256[]",
          "name": "",
          "type": "uint256[]"
        },
        {
          "internalType": "uint256[]",
          "name": "",
          "type": "uint256[]"
        },
        {
          "internalType": "bytes",
          "name": "",
          "type": "bytes"
        }
      ],
      "name": "onERC1155BatchReceived",
      "outputs": [
        {
          "internalType": "bytes4",
          "name": "",
          "type": "bytes4"
        }
      ],
      "stateMutability": "pure",
      "type": "function"
    },
    {
      "inputs": [
        {
          "internalType": "address",
          "name": "",
          "type": "address"
        },
        {
          "internalType": "address",
          "name": "",
          "type": "address"
        },
        {
          "internalType": "uint256",
          "name": "",
          "type": "uint256"
        },
        {
          "internalType": "uint256",
          "name": "",
          "type": "uint256"
        },
        {
          "internalType": "bytes",
          "name": "",
          "type": "bytes"
        }
      ],
      "name": "onERC1155Received",
      "outputs": [
        {
          "internalType": "bytes4",
          "name": "",
          "type": "bytes4"
        }
      ],
      "stateMutability": "pure",
      "type": "function"
    },
    {
      "inputs": [
        {
          "internalType": "address",
          "name": "",
          "type": "address"
        },
        {
          "internalType": "address",
          "name": "",
          "type": "address"
        },
        {
          "internalType": "uint256",
          "name": "",
          "type": "uint256"
        },
        {
          "internalType": "bytes",
          "name": "",
          "type": "bytes"
        }
      ],
      "name": "onERC721Received",
      "outputs": [
        {
          "internalType": "bytes4",
          "name": "",
          "type": "bytes4"
        }
      ],
      "stateMutability": "pure",
      "type": "function"
    },
    {
      "inputs": [],
      "name": "owner",
      "outputs": [
        {
          "internalType": "address",
          "name": "",
          "type": "address"
        }
      ],
      "stateMutability": "view",
      "type": "function"
    },
    {
      "inputs": [],
      "name": "proxiableUUID",
      "outputs": [
        {
          "internalType": "bytes32",
          "name": "",
          "type": "bytes32"
        }
      ],
      "stateMutability": "view",
      "type": "function"
    },
    {
      "inputs": [],
      "name": "requireFromEntryPointOrOwner",
      "outputs": [],
      "stateMutability": "view",
      "type": "function"
    },
    {
      "inputs": [
        {
          "internalType": "bytes4",
          "name": "interfaceId",
          "type": "bytes4"
        }
      ],
      "name": "supportsInterface",
      "outputs": [
        {
          "internalType": "bool",
          "name": "",
          "type": "bool"
        }
      ],
      "stateMutability": "view",
      "type": "function"
    },
    {
      "inputs": [
        {
          "internalType": "address",
          "name": "",
          "type": "address"
        },
        {
          "internalType": "address",
          "name": "",
          "type": "address"
        },
        {
          "internalType": "address",
          "name": "",
          "type": "address"
        },
        {
          "internalType": "uint256",
          "name": "",
          "type": "uint256"
        },
        {
          "internalType": "bytes",
          "name": "",
          "type": "bytes"
        },
        {
          "internalType": "bytes",
          "name": "",
          "type": "bytes"
        }
      ],
      "name": "tokensReceived",
      "outputs": [],
      "stateMutability": "pure",
      "type": "function"
    },
    {
      "inputs": [
        {
          "internalType": "address",
          "name": "newImplementation",
          "type": "address"
        },
        {
          "internalType": "bytes",
          "name": "data",
          "type": "bytes"
        }
      ],
      "name": "upgradeToAndCall",
      "outputs": [],
      "stateMutability": "payable",
      "type": "function"
    },
    {
      "inputs": [
        {
          "components": [
            {
              "internalType": "address",
              "name": "sender",
              "type": "address"
            },
            {
              "internalType": "uint256",
              "name": "nonce",
              "type": "uint256"
            },
            {
              "internalType": "bytes",
              "name": "initCode",
              "type": "bytes"
            },
            {
              "internalType": "bytes",
              "name": "callData",
              "type": "bytes"
            },
            {
              "internalType": "uint256",
              "name": "callGasLimit",
              "type": "uint256"
            },
            {
              "internalType": "uint256",
              "name": "verificationGasLimit",
              "type": "uint256"
            },
            {
              "internalType": "uint256",
              "name": "preVerificationGas",
              "type": "uint256"
            },
            {
              "internalType": "uint256",
              "name": "maxFeePerGas",
              "type": "uint256"
            },
            {
              "internalType": "uint256",
              "name": "maxPriorityFeePerGas",
              "type": "uint256"
            },
            {
              "internalType": "bytes",
              "name": "paymasterAndData",
              "type": "bytes"
            },
            {
              "internalType": "bytes",
              "name": "signature",
              "type": "bytes"
            }
          ],
          "internalType": "struct UserOperation",
          "name": "userOp",
          "type": "tuple"
        },
        {
          "internalType": "bytes32",
          "name": "userOpHash",
          "type": "bytes32"
        },
        {
          "internalType": "uint256",
          "name": "missingAccountFunds",
          "type": "uint256"
        }
      ],
      "name": "validateUserOp",
      "outputs": [
        {
          "internalType": "uint256",
          "name": "validationData",
          "type": "uint256"
        }
      ],
      "stateMutability": "nonpayable",
      "type": "function"
    },
    {
      "inputs": [
        {
          "internalType": "address payable",
          "name": "withdrawAddress",
          "type": "address"
        },
        {
          "internalType": "uint256",
          "name": "amount",
          "type": "uint256"
        }
      ],
      "name": "withdrawDepositTo",
      "outputs": [],
      "stateMutability": "nonpayable",
      "type": "function"
    },
    {
      "stateMutability": "payable",
      "type": "receive"
    }
  ],
  "bytecode": "0x60c06040523073ffffffffffffffffffffffffffffffffffffffff1660809073ffffffffffffffffffffffffffffffffffffffff168152503480156200004457600080fd5b50604051620033303803806200333083398181016040528101906200006a9190620003c5565b8073ffffffffffffffffffffffffffffffffffffffff1660a08173ffffffffffffffffffffffffffffffffffffffff1681525050620000af33620000b660201b60201c565b5062000475565b6000620000c86200025d60201b60201c565b905060008160000160089054906101000a900460ff1615905060008260000160009054906101000a900467ffffffffffffffff1690506000808267ffffffffffffffff16148015620001175750825b9050600060018367ffffffffffffffff161480156200014d575060003073ffffffffffffffffffffffffffffffffffffffff163b145b9050811580156200015c575080155b1562000194576040517ff92ee8a900000000000000000000000000000000000000000000000000000000815260040160405180910390fd5b60018560000160006101000a81548167ffffffffffffffff021916908367ffffffffffffffff1602179055508315620001e55760018560000160086101000a81548160ff0219169083151502179055505b620001f6866200028560201b60201c565b8315620002555760008560000160086101000a81548160ff0219169083151502179055507fc7f505b2f371ae2175ee4913f4499e1f2633a7b5936321eed1cdaeb6115181d260016040516200024c919062000458565b60405180910390a15b505050505050565b60007ff0c57e16840df040f15088dc2f81fe391c3923bec73e23a9662efc9c229c6a00905090565b80603260006101000a81548173ffffffffffffffffffffffffffffffffffffffff021916908373ffffffffffffffffffffffffffffffffffffffff160217905550603260009054906101000a900473ffffffffffffffffffffffffffffffffffffffff1673ffffffffffffffffffffffffffffffffffffffff1660a05173ffffffffffffffffffffffffffffffffffffffff167f47e55c76e7a6f1fd8996a1da8008c1ea29699cca35e7bcd057f2dec313b6e5de60405160405180910390a350565b600080fd5b600073ffffffffffffffffffffffffffffffffffffffff82169050919050565b600062000379826200034c565b9050919050565b60006200038d826200036c565b9050919050565b6200039f8162000380565b8114620003ab57600080fd5b50565b600081519050620003bf8162000394565b92915050565b600060208284031215620003de57620003dd62000347565b5b6000620003ee84828501620003ae565b91505092915050565b6000819050919050565b600067ffffffffffffffff82169050919050565b6000819050919050565b6000620004406200043a6200043484620003f7565b62000415565b62000401565b9050919050565b62000452816200041f565b82525050565b60006020820190506200046f600083018462000447565b92915050565b60805160a051612e80620004b060003960008181610a0a01526114b501526000818161117c015281816111d1015261138c0152612e806000f3fe6080604052600436106101175760003560e01c806352d1902d116100a0578063bc197c8111610064578063bc197c8114610377578063c399ec88146103b4578063c4d66de8146103df578063d087d28814610408578063f23a6e61146104335761012e565b806352d1902d146102a25780638da5cb5b146102cd578063ad3cb1cc146102f8578063b0d691fe14610323578063b61d27f61461034e5761012e565b806347e1da2a116100e757806347e1da2a14610213578063488de7ff1461023c5780634a58db19146102535780634d44560d1461025d5780634f1ef286146102865761012e565b806223de291461013357806301ffc9a71461015c578063150b7a02146101995780633a871cdd146101d65761012e565b3661012e57610124610470565b61012c6104bf565b005b600080fd5b34801561013f57600080fd5b5061015a60048036038101906101559190611b4d565b6104c9565b005b34801561016857600080fd5b50610183600480360381019061017e9190611c74565b6104d3565b6040516101909190611cbc565b60405180910390f35b3480156101a557600080fd5b506101c060048036038101906101bb9190611cd7565b61060d565b6040516101cd9190611d6e565b60405180910390f35b3480156101e257600080fd5b506101fd60048036038101906101f89190611de4565b610622565b60405161020a9190611e62565b60405180910390f35b34801561021f57600080fd5b5061023a60048036038101906102359190611f7f565b610655565b005b34801561024857600080fd5b50610251610791565b005b61025b610860565b005b34801561026957600080fd5b50610284600480360381019061027f9190612071565b6108d5565b005b6102a0600480360381019061029b91906121f2565b610955565b005b3480156102ae57600080fd5b506102b7610974565b6040516102c4919061225d565b60405180910390f35b3480156102d957600080fd5b506102e26109a7565b6040516102ef9190612287565b60405180910390f35b34801561030457600080fd5b5061030d6109cd565b60405161031a9190612321565b60405180910390f35b34801561032f57600080fd5b50610338610a06565b60405161034591906123a2565b60405180910390f35b34801561035a57600080fd5b50610375600480360381019061037091906123bd565b610a2e565b005b34801561038357600080fd5b5061039e60048036038101906103999190612431565b610a9b565b6040516103ab9190611d6e565b60405180910390f35b3480156103c057600080fd5b506103c9610ab3565b6040516103d69190611e62565b60405180910390f35b3480156103eb57600080fd5b506104066004803603810190610401919061250d565b610b3b565b005b34801561041457600080fd5b5061041d610cca565b60405161042a9190611e62565b60405180910390f35b34801561043f57600080fd5b5061045a6004803603810190610455919061253a565b610d55565b6040516104679190611d6e565b60405180910390f35b6002600054036104b5576040517f08c379a00000000000000000000000000000000000000000000000000000000081526004016104ac90612620565b60405180910390fd5b6002600081905550565b6001600081905550565b5050505050505050565b60007f150b7a02000000000000000000000000000000000000000000000000000000007bffffffffffffffffffffffffffffffffffffffffffffffffffffffff1916827bffffffffffffffffffffffffffffffffffffffffffffffffffffffff1916148061059e57507f4e2312e0000000000000000000000000000000000000000000000000000000007bffffffffffffffffffffffffffffffffffffffffffffffffffffffff1916827bffffffffffffffffffffffffffffffffffffffffffffffffffffffff1916145b8061060657507f01ffc9a7000000000000000000000000000000000000000000000000000000007bffffffffffffffffffffffffffffffffffffffffffffffffffffffff1916827bffffffffffffffffffffffffffffffffffffffffffffffffffffffff1916145b9050919050565b600063150b7a0260e01b905095945050505050565b600061062c610d6b565b6106368484610de2565b90506106458460200135610ec0565b61064e82610ec3565b9392505050565b61065d610470565b610665610f5f565b8181905086869050146106ad576040517f08c379a00000000000000000000000000000000000000000000000000000000081526004016106a49061268c565b60405180910390fd5b60005b868690508110156107805761076d8787838181106106d1576106d06126ac565b5b90506020020160208101906106e6919061250d565b8686848181106106f9576106f86126ac565b5b90506020020135858585818110610713576107126126ac565b5b905060200281019061072591906126ea565b8080601f016020809104026020016040519081016040528093929190818152602001838380828437600081840152601f19601f8201169050808301925050505050505061102e565b80806107789061277c565b9150506106b0565b506107896104bf565b505050505050565b610799610a06565b73ffffffffffffffffffffffffffffffffffffffff163373ffffffffffffffffffffffffffffffffffffffff16148061081f5750603260009054906101000a900473ffffffffffffffffffffffffffffffffffffffff1673ffffffffffffffffffffffffffffffffffffffff163373ffffffffffffffffffffffffffffffffffffffff16145b61085e576040517f08c379a000000000000000000000000000000000000000000000000000000000815260040161085590612810565b60405180910390fd5b565b610868610a06565b73ffffffffffffffffffffffffffffffffffffffff1663b760faf934306040518363ffffffff1660e01b81526004016108a19190612287565b6000604051808303818588803b1580156108ba57600080fd5b505af11580156108ce573d6000803e3d6000fd5b5050505050565b6108dd6110b2565b6108e5610a06565b73ffffffffffffffffffffffffffffffffffffffff1663205c287883836040518363ffffffff1660e01b815260040161091f92919061283f565b600060405180830381600087803b15801561093957600080fd5b505af115801561094d573d6000803e3d6000fd5b505050505050565b61095d61117a565b61096682611260565b610970828261126b565b5050565b600061097e61138a565b7f360894a13ba1a3210667c828492db98dca3e2076cc3735a920a3ca505d382bbc60001b905090565b603260009054906101000a900473ffffffffffffffffffffffffffffffffffffffff1681565b6040518060400160405280600581526020017f352e302e3000000000000000000000000000000000000000000000000000000081525081565b60007f0000000000000000000000000000000000000000000000000000000000000000905090565b610a36610470565b610a3e610f5f565b610a8d848484848080601f016020809104026020016040519081016040528093929190818152602001838380828437600081840152601f19601f8201169050808301925050505050505061102e565b610a956104bf565b50505050565b600063bc197c8160e01b905098975050505050505050565b6000610abd610a06565b73ffffffffffffffffffffffffffffffffffffffff166370a08231306040518263ffffffff1660e01b8152600401610af59190612287565b602060405180830381865afa158015610b12573d6000803e3d6000fd5b505050506040513d601f19601f82011682018060405250810190610b36919061287d565b905090565b6000610b45611411565b905060008160000160089054906101000a900460ff1615905060008260000160009054906101000a900467ffffffffffffffff1690506000808267ffffffffffffffff16148015610b935750825b9050600060018367ffffffffffffffff16148015610bc8575060003073ffffffffffffffffffffffffffffffffffffffff163b145b905081158015610bd6575080155b15610c0d576040517ff92ee8a900000000000000000000000000000000000000000000000000000000815260040160405180910390fd5b60018560000160006101000a81548167ffffffffffffffff021916908367ffffffffffffffff1602179055508315610c5d5760018560000160086101000a81548160ff0219169083151502179055505b610c6686611439565b8315610cc25760008560000160086101000a81548160ff0219169083151502179055507fc7f505b2f371ae2175ee4913f4499e1f2633a7b5936321eed1cdaeb6115181d26001604051610cb991906128f9565b60405180910390a15b505050505050565b6000610cd4610a06565b73ffffffffffffffffffffffffffffffffffffffff166335567e1a3060006040518363ffffffff1660e01b8152600401610d0f929190612973565b602060405180830381865afa158015610d2c573d6000803e3d6000fd5b505050506040513d601f19601f82011682018060405250810190610d50919061287d565b905090565b600063f23a6e6160e01b90509695505050505050565b610d73610a06565b73ffffffffffffffffffffffffffffffffffffffff163373ffffffffffffffffffffffffffffffffffffffff1614610de0576040517f08c379a0000000000000000000000000000000000000000000000000000000008152600401610dd7906129e8565b60405180910390fd5b565b600080610dee83611519565b9050610e5684806101400190610e0491906126ea565b8080601f016020809104026020016040519081016040528093929190818152602001838380828437600081840152601f19601f820116905080830192505050505050508261154990919063ffffffff16565b73ffffffffffffffffffffffffffffffffffffffff16603260009054906101000a900473ffffffffffffffffffffffffffffffffffffffff1673ffffffffffffffffffffffffffffffffffffffff1614610eb4576001915050610eba565b60009150505b92915050565b50565b60008114610f5c5760003373ffffffffffffffffffffffffffffffffffffffff16827fffffffffffffffffffffffffffffffffffffffffffffffffffffffffffffffff90604051610f1390612a39565b600060405180830381858888f193505050503d8060008114610f51576040519150601f19603f3d011682016040523d82523d6000602084013e610f56565b606091505b50509050505b50565b610f67610a06565b73ffffffffffffffffffffffffffffffffffffffff163373ffffffffffffffffffffffffffffffffffffffff161480610fed5750603260009054906101000a900473ffffffffffffffffffffffffffffffffffffffff1673ffffffffffffffffffffffffffffffffffffffff163373ffffffffffffffffffffffffffffffffffffffff16145b61102c576040517f08c379a000000000000000000000000000000000000000000000000000000000815260040161102390612810565b60405180910390fd5b565b6000808473ffffffffffffffffffffffffffffffffffffffff1684846040516110579190612a8a565b60006040518083038185875af1925050503d8060008114611094576040519150601f19603f3d011682016040523d82523d6000602084013e611099565b606091505b5091509150816110ab57805160208201fd5b5050505050565b603260009054906101000a900473ffffffffffffffffffffffffffffffffffffffff1673ffffffffffffffffffffffffffffffffffffffff163373ffffffffffffffffffffffffffffffffffffffff16148061113957503073ffffffffffffffffffffffffffffffffffffffff163373ffffffffffffffffffffffffffffffffffffffff16145b611178576040517f08c379a000000000000000000000000000000000000000000000000000000000815260040161116f90612aed565b60405180910390fd5b565b7f000000000000000000000000000000000000000000000000000000000000000073ffffffffffffffffffffffffffffffffffffffff163073ffffffffffffffffffffffffffffffffffffffff16148061122757507f000000000000000000000000000000000000000000000000000000000000000073ffffffffffffffffffffffffffffffffffffffff1661120e6115c3565b73ffffffffffffffffffffffffffffffffffffffff1614155b1561125e576040517fe07c8dba00000000000000000000000000000000000000000000000000000000815260040160405180910390fd5b565b6112686110b2565b50565b8173ffffffffffffffffffffffffffffffffffffffff166352d1902d6040518163ffffffff1660e01b8152600401602060405180830381865afa9250505080156112d357506040513d601f19601f820116820180604052508101906112d09190612b22565b60015b61131457816040517f4c9c8ce300000000000000000000000000000000000000000000000000000000815260040161130b9190612287565b60405180910390fd5b7f360894a13ba1a3210667c828492db98dca3e2076cc3735a920a3ca505d382bbc60001b811461137b57806040517faa1d49a4000000000000000000000000000000000000000000000000000000008152600401611372919061225d565b60405180910390fd5b611385838361161a565b505050565b7f000000000000000000000000000000000000000000000000000000000000000073ffffffffffffffffffffffffffffffffffffffff163073ffffffffffffffffffffffffffffffffffffffff161461140f576040517fe07c8dba00000000000000000000000000000000000000000000000000000000815260040160405180910390fd5b565b60007ff0c57e16840df040f15088dc2f81fe391c3923bec73e23a9662efc9c229c6a00905090565b80603260006101000a81548173ffffffffffffffffffffffffffffffffffffffff021916908373ffffffffffffffffffffffffffffffffffffffff160217905550603260009054906101000a900473ffffffffffffffffffffffffffffffffffffffff1673ffffffffffffffffffffffffffffffffffffffff167f000000000000000000000000000000000000000000000000000000000000000073ffffffffffffffffffffffffffffffffffffffff167f47e55c76e7a6f1fd8996a1da8008c1ea29699cca35e7bcd057f2dec313b6e5de60405160405180910390a350565b60008160405160200161152c9190612bc7565b604051602081830303815290604052805190602001209050919050565b6000604182511461158f576040517f08c379a000000000000000000000000000000000000000000000000000000000815260040161158690612c39565b60405180910390fd5b60008060006020850151925060408501519150606085015160001a90506115b88682858561164a565b935050505092915050565b60006115f17f360894a13ba1a3210667c828492db98dca3e2076cc3735a920a3ca505d382bbc60001b6117d4565b60000160009054906101000a900473ffffffffffffffffffffffffffffffffffffffff16905090565b611623826117de565b60008151111561163d5761163782826118ab565b50611646565b61164561192f565b5b5050565b60007f7fffffffffffffffffffffffffffffff5d576e7357a4501ddfe92f46681b20a08260001c11156116b2576040517f08c379a00000000000000000000000000000000000000000000000000000000081526004016116a990612ccb565b60405180910390fd5b601b8460ff1614806116c75750601c8460ff16145b611706576040517f08c379a00000000000000000000000000000000000000000000000000000000081526004016116fd90612d5d565b60405180910390fd5b60006001868686866040516000815260200160405260405161172b9493929190612d99565b6020604051602081039080840390855afa15801561174d573d6000803e3d6000fd5b505050602060405103519050600073ffffffffffffffffffffffffffffffffffffffff168173ffffffffffffffffffffffffffffffffffffffff16036117c8576040517f08c379a00000000000000000000000000000000000000000000000000000000081526004016117bf90612e2a565b60405180910390fd5b80915050949350505050565b6000819050919050565b60008173ffffffffffffffffffffffffffffffffffffffff163b0361183a57806040517f4c9c8ce30000000000000000000000000000000000000000000000000000000081526004016118319190612287565b60405180910390fd5b806118677f360894a13ba1a3210667c828492db98dca3e2076cc3735a920a3ca505d382bbc60001b6117d4565b60000160006101000a81548173ffffffffffffffffffffffffffffffffffffffff021916908373ffffffffffffffffffffffffffffffffffffffff16021790555050565b60606000808473ffffffffffffffffffffffffffffffffffffffff16846040516118d59190612a8a565b600060405180830381855af49150503d8060008114611910576040519150601f19603f3d011682016040523d82523d6000602084013e611915565b606091505b509150915061192585838361196c565b9250505092915050565b600034111561196a576040517fb398979f00000000000000000000000000000000000000000000000000000000815260040160405180910390fd5b565b6060826119815761197c826119fb565b6119f3565b600082511480156119a9575060008473ffffffffffffffffffffffffffffffffffffffff163b145b156119eb57836040517f9996b3150000000000000000000000000000000000000000000000000000000081526004016119e29190612287565b60405180910390fd5b8190506119f4565b5b9392505050565b600081511115611a0e5780518082602001fd5b6040517fd6bda27500000000000000000000000000000000000000000000000000000000815260040160405180910390fd5b6000604051905090565b600080fd5b600080fd5b600073ffffffffffffffffffffffffffffffffffffffff82169050919050565b6000611a7f82611a54565b9050919050565b611a8f81611a74565b8114611a9a57600080fd5b50565b600081359050611aac81611a86565b92915050565b6000819050919050565b611ac581611ab2565b8114611ad057600080fd5b50565b600081359050611ae281611abc565b92915050565b600080fd5b600080fd5b600080fd5b60008083601f840112611b0d57611b0c611ae8565b5b8235905067ffffffffffffffff811115611b2a57611b29611aed565b5b602083019150836001820283011115611b4657611b45611af2565b5b9250929050565b60008060008060008060008060c0898b031215611b6d57611b6c611a4a565b5b6000611b7b8b828c01611a9d565b9850506020611b8c8b828c01611a9d565b9750506040611b9d8b828c01611a9d565b9650506060611bae8b828c01611ad3565b955050608089013567ffffffffffffffff811115611bcf57611bce611a4f565b5b611bdb8b828c01611af7565b945094505060a089013567ffffffffffffffff811115611bfe57611bfd611a4f565b5b611c0a8b828c01611af7565b92509250509295985092959890939650565b60007fffffffff0000000000000000000000000000000000000000000000000000000082169050919050565b611c5181611c1c565b8114611c5c57600080fd5b50565b600081359050611c6e81611c48565b92915050565b600060208284031215611c8a57611c89611a4a565b5b6000611c9884828501611c5f565b91505092915050565b60008115159050919050565b611cb681611ca1565b82525050565b6000602082019050611cd16000830184611cad565b92915050565b600080600080600060808688031215611cf357611cf2611a4a565b5b6000611d0188828901611a9d565b9550506020611d1288828901611a9d565b9450506040611d2388828901611ad3565b935050606086013567ffffffffffffffff811115611d4457611d43611a4f565b5b611d5088828901611af7565b92509250509295509295909350565b611d6881611c1c565b82525050565b6000602082019050611d836000830184611d5f565b92915050565b600080fd5b60006101608284031215611da557611da4611d89565b5b81905092915050565b6000819050919050565b611dc181611dae565b8114611dcc57600080fd5b50565b600081359050611dde81611db8565b92915050565b600080600060608486031215611dfd57611dfc611a4a565b5b600084013567ffffffffffffffff811115611e1b57611e1a611a4f565b5b611e2786828701611d8e565b9350506020611e3886828701611dcf565b9250506040611e4986828701611ad3565b9150509250925092565b611e5c81611ab2565b82525050565b6000602082019050611e776000830184611e53565b92915050565b60008083601f840112611e9357611e92611ae8565b5b8235905067ffffffffffffffff811115611eb057611eaf611aed565b5b602083019150836020820283011115611ecc57611ecb611af2565b5b9250929050565b60008083601f840112611ee957611ee8611ae8565b5b8235905067ffffffffffffffff811115611f0657611f05611aed565b5b602083019150836020820283011115611f2257611f21611af2565b5b9250929050565b60008083601f840112611f3f57611f3e611ae8565b5b8235905067ffffffffffffffff811115611f5c57611f5b611aed565b5b602083019150836020820283011115611f7857611f77611af2565b5b9250929050565b60008060008060008060608789031215611f9c57611f9b611a4a565b5b600087013567ffffffffffffffff811115611fba57611fb9611a4f565b5b611fc689828a01611e7d565b9650965050602087013567ffffffffffffffff811115611fe957611fe8611a4f565b5b611ff589828a01611ed3565b9450945050604087013567ffffffffffffffff81111561201857612017611a4f565b5b61202489828a01611f29565b92509250509295509295509295565b600061203e82611a54565b9050919050565b61204e81612033565b811461205957600080fd5b50565b60008135905061206b81612045565b92915050565b6000806040838503121561208857612087611a4a565b5b60006120968582860161205c565b92505060206120a785828601611ad3565b9150509250929050565b600080fd5b6000601f19601f8301169050919050565b7f4e487b7100000000000000000000000000000000000000000000000000000000600052604160045260246000fd5b6120ff826120b6565b810181811067ffffffffffffffff8211171561211e5761211d6120c7565b5b80604052505050565b6000612131611a40565b905061213d82826120f6565b919050565b600067ffffffffffffffff82111561215d5761215c6120c7565b5b612166826120b6565b9050602081019050919050565b82818337600083830152505050565b600061219561219084612142565b612127565b9050828152602081018484840111156121b1576121b06120b1565b5b6121bc848285612173565b509392505050565b600082601f8301126121d9576121d8611ae8565b5b81356121e9848260208601612182565b91505092915050565b6000806040838503121561220957612208611a4a565b5b600061221785828601611a9d565b925050602083013567ffffffffffffffff81111561223857612237611a4f565b5b612244858286016121c4565b9150509250929050565b61225781611dae565b82525050565b6000602082019050612272600083018461224e565b92915050565b61228181611a74565b82525050565b600060208201905061229c6000830184612278565b92915050565b600081519050919050565b600082825260208201905092915050565b60005b838110156122dc5780820151818401526020810190506122c1565b60008484015250505050565b60006122f3826122a2565b6122fd81856122ad565b935061230d8185602086016122be565b612316816120b6565b840191505092915050565b6000602082019050818103600083015261233b81846122e8565b905092915050565b6000819050919050565b600061236861236361235e84611a54565b612343565b611a54565b9050919050565b600061237a8261234d565b9050919050565b600061238c8261236f565b9050919050565b61239c81612381565b82525050565b60006020820190506123b76000830184612393565b92915050565b600080600080606085870312156123d7576123d6611a4a565b5b60006123e587828801611a9d565b94505060206123f687828801611ad3565b935050604085013567ffffffffffffffff81111561241757612416611a4f565b5b61242387828801611af7565b925092505092959194509250565b60008060008060008060008060a0898b03121561245157612450611a4a565b5b600061245f8b828c01611a9d565b98505060206124708b828c01611a9d565b975050604089013567ffffffffffffffff81111561249157612490611a4f565b5b61249d8b828c01611ed3565b9650965050606089013567ffffffffffffffff8111156124c0576124bf611a4f565b5b6124cc8b828c01611ed3565b9450945050608089013567ffffffffffffffff8111156124ef576124ee611a4f565b5b6124fb8b828c01611af7565b92509250509295985092959890939650565b60006020828403121561252357612522611a4a565b5b600061253184828501611a9d565b91505092915050565b60008060008060008060a0878903121561255757612556611a4a565b5b600061256589828a01611a9d565b965050602061257689828a01611a9d565b955050604061258789828a01611ad3565b945050606061259889828a01611ad3565b935050608087013567ffffffffffffffff8111156125b9576125b8611a4f565b5b6125c589828a01611af7565b92509250509295509295509295565b7f5265656e7472616e637947756172643a207265656e7472616e742063616c6c00600082015250565b600061260a601f836122ad565b9150612615826125d4565b602082019050919050565b60006020820190508181036000830152612639816125fd565b9050919050565b7f77726f6e67206172726179206c656e6774687300000000000000000000000000600082015250565b60006126766013836122ad565b915061268182612640565b602082019050919050565b600060208201905081810360008301526126a581612669565b9050919050565b7f4e487b7100000000000000000000000000000000000000000000000000000000600052603260045260246000fd5b600080fd5b600080fd5b600080fd5b60008083356001602003843603038112612707576127066126db565b5b80840192508235915067ffffffffffffffff821115612729576127286126e0565b5b602083019250600182023603831315612745576127446126e5565b5b509250929050565b7f4e487b7100000000000000000000000000000000000000000000000000000000600052601160045260246000fd5b600061278782611ab2565b91507fffffffffffffffffffffffffffffffffffffffffffffffffffffffffffffffff82036127b9576127b861274d565b5b600182019050919050565b7f6163636f756e743a206e6f74204f776e6572206f7220456e747279506f696e74600082015250565b60006127fa6020836122ad565b9150612805826127c4565b602082019050919050565b60006020820190508181036000830152612829816127ed565b9050919050565b61283981612033565b82525050565b60006040820190506128546000830185612830565b6128616020830184611e53565b9392505050565b60008151905061287781611abc565b92915050565b60006020828403121561289357612892611a4a565b5b60006128a184828501612868565b91505092915050565b6000819050919050565b600067ffffffffffffffff82169050919050565b60006128e36128de6128d9846128aa565b612343565b6128b4565b9050919050565b6128f3816128c8565b82525050565b600060208201905061290e60008301846128ea565b92915050565b6000819050919050565b600077ffffffffffffffffffffffffffffffffffffffffffffffff82169050919050565b600061295d61295861295384612914565b612343565b61291e565b9050919050565b61296d81612942565b82525050565b60006040820190506129886000830185612278565b6129956020830184612964565b9392505050565b7f6163636f756e743a206e6f742066726f6d20456e747279506f696e7400000000600082015250565b60006129d2601c836122ad565b91506129dd8261299c565b602082019050919050565b60006020820190508181036000830152612a01816129c5565b9050919050565b600081905092915050565b50565b6000612a23600083612a08565b9150612a2e82612a13565b600082019050919050565b6000612a4482612a16565b9150819050919050565b600081519050919050565b6000612a6482612a4e565b612a6e8185612a08565b9350612a7e8185602086016122be565b80840191505092915050565b6000612a968284612a59565b915081905092915050565b7f6f6e6c79206f776e657200000000000000000000000000000000000000000000600082015250565b6000612ad7600a836122ad565b9150612ae282612aa1565b602082019050919050565b60006020820190508181036000830152612b0681612aca565b9050919050565b600081519050612b1c81611db8565b92915050565b600060208284031215612b3857612b37611a4a565b5b6000612b4684828501612b0d565b91505092915050565b600081905092915050565b7f19457468657265756d205369676e6564204d6573736167653a0a333200000000600082015250565b6000612b90601c83612b4f565b9150612b9b82612b5a565b601c82019050919050565b6000819050919050565b612bc1612bbc82611dae565b612ba6565b82525050565b6000612bd282612b83565b9150612bde8284612bb0565b60208201915081905092915050565b7f45434453413a20696e76616c6964207369676e6174757265206c656e67746800600082015250565b6000612c23601f836122ad565b9150612c2e82612bed565b602082019050919050565b60006020820190508181036000830152612c5281612c16565b9050919050565b7f45434453413a20696e76616c6964207369676e6174757265202773272076616c60008201527f7565000000000000000000000000000000000000000000000000000000000000602082015250565b6000612cb56022836122ad565b9150612cc082612c59565b604082019050919050565b60006020820190508181036000830152612ce481612ca8565b9050919050565b7f45434453413a20696e76616c6964207369676e6174757265202776272076616c60008201527f7565000000000000000000000000000000000000000000000000000000000000602082015250565b6000612d476022836122ad565b9150612d5282612ceb565b604082019050919050565b60006020820190508181036000830152612d7681612d3a565b9050919050565b600060ff82169050919050565b612d9381612d7d565b82525050565b6000608082019050612dae600083018761224e565b612dbb6020830186612d8a565b612dc8604083018561224e565b612dd5606083018461224e565b95945050505050565b7f45434453413a20696e76616c6964207369676e61747572650000000000000000600082015250565b6000612e146018836122ad565b9150612e1f82612dde565b602082019050919050565b60006020820190508181036000830152612e4381612e07565b905091905056fea2646970667358221220611d5d7936d80148dbb7fbad6d85b89e677b2dd5e493bbbec373950c5a11e35d64736f6c63430008150033",
  "linkReferences": {},
  "deployedLinkReferences": {}
}