{
  "_format": "hh-sol-artifact-1",
  "contractName": "EntryPoint",
  "sourceName": "contracts/EntryPoint.sol",
  "abi": [
    {
      "inputs": [],
      "stateMutability": "nonpayable",
      "type": "constructor"
    },
    {
      "inputs": [
        {
          "internalType": "uint256",
          "name": "opIndex",
          "type": "uint256"
        },
        {
          "internalType": "address",
          "name": "paymaster",
          "type": "address"
        },
        {
          "internalType": "string",
          "name": "reason",
          "type": "string"
        }
      ],
      "name": "FailedOp",
      "type": "error"
    },
    {
      "anonymous": false,
      "inputs": [
        {
          "indexed": true,
          "internalType": "address",
          "name": "account",
          "type": "address"
        },
        {
          "indexed": false,
          "internalType": "uint256",
          "name": "totalDeposit",
          "type": "uint256"
        }
      ],
      "name": "Deposited",
      "type": "event"
    },
    {
      "anonymous": false,
      "inputs": [
        {
          "indexed": true,
          "internalType": "address",
          "name": "account",
          "type": "address"
        },
        {
          "indexed": false,
          "internalType": "uint256",
          "name": "totalStaked",
          "type": "uint256"
        },
        {
          "indexed": false,
          "internalType": "uint256",
          "name": "withdrawTime",
          "type": "uint256"
        }
      ],
      "name": "StakeLocked",
      "type": "event"
    },
    {
      "anonymous": false,
      "inputs": [
        {
          "indexed": true,
          "internalType": "address",
          "name": "account",
          "type": "address"
        },
        {
          "indexed": false,
          "internalType": "uint256",
          "name": "withdrawTime",
          "type": "uint256"
        }
      ],
      "name": "StakeUnlocked",
      "type": "event"
    },
    {
      "anonymous": false,
      "inputs": [
        {
          "indexed": true,
          "internalType": "address",
          "name": "account",
          "type": "address"
        },
        {
          "indexed": false,
          "internalType": "address",
          "name": "withdrawAddress",
          "type": "address"
        },
        {
          "indexed": false,
          "internalType": "uint256",
          "name": "amount",
          "type": "uint256"
        }
      ],
      "name": "StakeWithdrawn",
      "type": "event"
    },
    {
      "anonymous": false,
      "inputs": [
        {
          "indexed": true,
          "internalType": "bytes32",
          "name": "requestId",
          "type": "bytes32"
        },
        {
          "indexed": true,
          "internalType": "address",
          "name": "sender",
          "type": "address"
        },
        {
          "indexed": true,
          "internalType": "address",
          "name": "paymaster",
          "type": "address"
        },
        {
          "indexed": false,
          "internalType": "uint256",
          "name": "nonce",
          "type": "uint256"
        },
        {
          "indexed": false,
          "internalType": "uint256",
          "name": "actualGasCost",
          "type": "uint256"
        },
        {
          "indexed": false,
          "internalType": "uint256",
          "name": "actualGasPrice",
          "type": "uint256"
        },
        {
          "indexed": false,
          "internalType": "bool",
          "name": "success",
          "type": "bool"
        }
      ],
      "name": "UserOperationEvent",
      "type": "event"
    },
    {
      "anonymous": false,
      "inputs": [
        {
          "indexed": true,
          "internalType": "bytes32",
          "name": "requestId",
          "type": "bytes32"
        },
        {
          "indexed": true,
          "internalType": "address",
          "name": "sender",
          "type": "address"
        },
        {
          "indexed": false,
          "internalType": "uint256",
          "name": "nonce",
          "type": "uint256"
        },
        {
          "indexed": false,
          "internalType": "bytes",
          "name": "revertReason",
          "type": "bytes"
        }
      ],
      "name": "UserOperationRevertReason",
      "type": "event"
    },
    {
      "anonymous": false,
      "inputs": [
        {
          "indexed": true,
          "internalType": "address",
          "name": "account",
          "type": "address"
        },
        {
          "indexed": false,
          "internalType": "address",
          "name": "withdrawAddress",
          "type": "address"
        },
        {
          "indexed": false,
          "internalType": "uint256",
          "name": "amount",
          "type": "uint256"
        }
      ],
      "name": "Withdrawn",
      "type": "event"
    },
    {
      "inputs": [
        {
          "internalType": "uint32",
          "name": "_unstakeDelaySec",
          "type": "uint32"
        }
      ],
      "name": "addStake",
      "outputs": [],
      "stateMutability": "payable",
      "type": "function"
    },
    {
      "inputs": [
        {
          "internalType": "address",
          "name": "account",
          "type": "address"
        }
      ],
      "name": "balanceOf",
      "outputs": [
        {
          "internalType": "uint256",
          "name": "",
          "type": "uint256"
        }
      ],
      "stateMutability": "view",
      "type": "function"
    },
    {
      "inputs": [],
      "name": "create2factory",
      "outputs": [
        {
          "internalType": "address",
          "name": "",
          "type": "address"
        }
      ],
      "stateMutability": "view",
      "type": "function"
    },
    {
      "inputs": [
        {
          "internalType": "address",
          "name": "account",
          "type": "address"
        }
      ],
      "name": "depositTo",
      "outputs": [],
      "stateMutability": "payable",
      "type": "function"
    },
    {
      "inputs": [
        {
          "internalType": "address",
          "name": "",
          "type": "address"
        }
      ],
      "name": "deposits",
      "outputs": [
        {
          "internalType": "uint112",
          "name": "deposit",
          "type": "uint112"
        },
        {
          "internalType": "bool",
          "name": "staked",
          "type": "bool"
        },
        {
          "internalType": "uint112",
          "name": "stake",
          "type": "uint112"
        },
        {
          "internalType": "uint32",
          "name": "unstakeDelaySec",
          "type": "uint32"
        },
        {
          "internalType": "uint64",
          "name": "withdrawTime",
          "type": "uint64"
        }
      ],
      "stateMutability": "view",
      "type": "function"
    },
    {
      "inputs": [
        {
          "internalType": "address",
          "name": "account",
          "type": "address"
        }
      ],
      "name": "getDepositInfo",
      "outputs": [
        {
          "components": [
            {
              "internalType": "uint112",
              "name": "deposit",
              "type": "uint112"
            },
            {
              "internalType": "bool",
              "name": "staked",
              "type": "bool"
            },
            {
              "internalType": "uint112",
              "name": "stake",
              "type": "uint112"
            },
            {
              "internalType": "uint32",
              "name": "unstakeDelaySec",
              "type": "uint32"
            },
            {
              "internalType": "uint64",
              "name": "withdrawTime",
              "type": "uint64"
            }
          ],
          "internalType": "struct StakeManager.DepositInfo",
          "name": "info",
          "type": "tuple"
        }
      ],
      "stateMutability": "view",
      "type": "function"
    },
    {
      "inputs": [
        {
          "components": [
            {
              "internalType": "address",
              "name": "sender",
              "type": "address"
            },
            {
              "internalType": "uint256",
              "name": "nonce",
              "type": "uint256"
            },
            {
              "internalType": "bytes",
              "name": "initCode",
              "type": "bytes"
            },
            {
              "internalType": "bytes",
              "name": "callData",
              "type": "bytes"
            },
            {
              "internalType": "uint256",
              "name": "callGas",
              "type": "uint256"
            },
            {
              "internalType": "uint256",
              "name": "verificationGas",
              "type": "uint256"
            },
            {
              "internalType": "uint256",
              "name": "preVerificationGas",
              "type": "uint256"
            },
            {
              "internalType": "uint256",
              "name": "maxFeePerGas",
              "type": "uint256"
            },
            {
              "internalType": "uint256",
              "name": "maxPriorityFeePerGas",
              "type": "uint256"
            },
            {
              "internalType": "address",
              "name": "paymaster",
              "type": "address"
            },
            {
              "internalType": "bytes",
              "name": "paymasterData",
              "type": "bytes"
            },
            {
              "internalType": "bytes",
              "name": "signature",
              "type": "bytes"
            }
          ],
          "internalType": "struct UserOperation",
          "name": "userOp",
          "type": "tuple"
        }
      ],
      "name": "getRequestId",
      "outputs": [
        {
          "internalType": "bytes32",
          "name": "",
          "type": "bytes32"
        }
      ],
      "stateMutability": "view",
      "type": "function"
    },
    {
      "inputs": [
        {
          "internalType": "bytes",
          "name": "initCode",
          "type": "bytes"
        },
        {
          "internalType": "uint256",
          "name": "salt",
          "type": "uint256"
        }
      ],
      "name": "getSenderAddress",
      "outputs": [
        {
          "internalType": "address",
          "name": "",
          "type": "address"
        }
      ],
      "stateMutability": "view",
      "type": "function"
    },
    {
      "inputs": [
        {
          "internalType": "address",
          "name": "sender",
          "type": "address"
        }
      ],
      "name": "getSenderStorage",
      "outputs": [
        {
          "internalType": "uint256[]",
          "name": "senderStorageCells",
          "type": "uint256[]"
        }
      ],
      "stateMutability": "view",
      "type": "function"
    },
    {
      "inputs": [
        {
          "components": [
            {
              "internalType": "address",
              "name": "sender",
              "type": "address"
            },
            {
              "internalType": "uint256",
              "name": "nonce",
              "type": "uint256"
            },
            {
              "internalType": "bytes",
              "name": "initCode",
              "type": "bytes"
            },
            {
              "internalType": "bytes",
              "name": "callData",
              "type": "bytes"
            },
            {
              "internalType": "uint256",
              "name": "callGas",
              "type": "uint256"
            },
            {
              "internalType": "uint256",
              "name": "verificationGas",
              "type": "uint256"
            },
            {
              "internalType": "uint256",
              "name": "preVerificationGas",
              "type": "uint256"
            },
            {
              "internalType": "uint256",
              "name": "maxFeePerGas",
              "type": "uint256"
            },
            {
              "internalType": "uint256",
              "name": "maxPriorityFeePerGas",
              "type": "uint256"
            },
            {
              "internalType": "address",
              "name": "paymaster",
              "type": "address"
            },
            {
              "internalType": "bytes",
              "name": "paymasterData",
              "type": "bytes"
            },
            {
              "internalType": "bytes",
              "name": "signature",
              "type": "bytes"
            }
          ],
          "internalType": "struct UserOperation[]",
          "name": "ops",
          "type": "tuple[]"
        },
        {
          "internalType": "address payable",
          "name": "beneficiary",
          "type": "address"
        }
      ],
      "name": "handleOps",
      "outputs": [],
      "stateMutability": "nonpayable",
      "type": "function"
    },
    {
      "inputs": [
        {
          "components": [
            {
              "internalType": "address",
              "name": "sender",
              "type": "address"
            },
            {
              "internalType": "uint256",
              "name": "nonce",
              "type": "uint256"
            },
            {
              "internalType": "bytes",
              "name": "initCode",
              "type": "bytes"
            },
            {
              "internalType": "bytes",
              "name": "callData",
              "type": "bytes"
            },
            {
              "internalType": "uint256",
              "name": "callGas",
              "type": "uint256"
            },
            {
              "internalType": "uint256",
              "name": "verificationGas",
              "type": "uint256"
            },
            {
              "internalType": "uint256",
              "name": "preVerificationGas",
              "type": "uint256"
            },
            {
              "internalType": "uint256",
              "name": "maxFeePerGas",
              "type": "uint256"
            },
            {
              "internalType": "uint256",
              "name": "maxPriorityFeePerGas",
              "type": "uint256"
            },
            {
              "internalType": "address",
              "name": "paymaster",
              "type": "address"
            },
            {
              "internalType": "bytes",
              "name": "paymasterData",
              "type": "bytes"
            },
            {
              "internalType": "bytes",
              "name": "signature",
              "type": "bytes"
            }
          ],
          "internalType": "struct UserOperation",
          "name": "op",
          "type": "tuple"
        },
        {
          "components": [
            {
              "internalType": "bytes32",
              "name": "requestId",
              "type": "bytes32"
            },
            {
              "internalType": "uint256",
              "name": "prefund",
              "type": "uint256"
            },
            {
              "internalType": "enum EntryPoint.PaymentMode",
              "name": "paymentMode",
              "type": "uint8"
            },
            {
              "internalType": "uint256",
              "name": "contextOffset",
              "type": "uint256"
            },
            {
              "internalType": "uint256",
              "name": "preOpGas",
              "type": "uint256"
            }
          ],
          "internalType": "struct EntryPoint.UserOpInfo",
          "name": "opInfo",
          "type": "tuple"
        },
        {
          "internalType": "bytes",
          "name": "context",
          "type": "bytes"
        }
      ],
      "name": "innerHandleOp",
      "outputs": [
        {
          "internalType": "uint256",
          "name": "actualGasCost",
          "type": "uint256"
        }
      ],
      "stateMutability": "nonpayable",
      "type": "function"
    },
    {
      "inputs": [],
      "name": "paymasterStake",
      "outputs": [
        {
          "internalType": "uint256",
          "name": "",
          "type": "uint256"
        }
      ],
      "stateMutability": "view",
      "type": "function"
    },
    {
      "inputs": [
        {
          "components": [
            {
              "internalType": "address",
              "name": "sender",
              "type": "address"
            },
            {
              "internalType": "uint256",
              "name": "nonce",
              "type": "uint256"
            },
            {
              "internalType": "bytes",
              "name": "initCode",
              "type": "bytes"
            },
            {
              "internalType": "bytes",
              "name": "callData",
              "type": "bytes"
            },
            {
              "internalType": "uint256",
              "name": "callGas",
              "type": "uint256"
            },
            {
              "internalType": "uint256",
              "name": "verificationGas",
              "type": "uint256"
            },
            {
              "internalType": "uint256",
              "name": "preVerificationGas",
              "type": "uint256"
            },
            {
              "internalType": "uint256",
              "name": "maxFeePerGas",
              "type": "uint256"
            },
            {
              "internalType": "uint256",
              "name": "maxPriorityFeePerGas",
              "type": "uint256"
            },
            {
              "internalType": "address",
              "name": "paymaster",
              "type": "address"
            },
            {
              "internalType": "bytes",
              "name": "paymasterData",
              "type": "bytes"
            },
            {
              "internalType": "bytes",
              "name": "signature",
              "type": "bytes"
            }
          ],
          "internalType": "struct UserOperation",
          "name": "userOp",
          "type": "tuple"
        }
      ],
      "name": "simulateValidation",
      "outputs": [
        {
          "internalType": "uint256",
          "name": "preOpGas",
          "type": "uint256"
        },
        {
          "internalType": "uint256",
          "name": "prefund",
          "type": "uint256"
        }
      ],
      "stateMutability": "nonpayable",
      "type": "function"
    },
    {
      "inputs": [],
      "name": "unlockStake",
      "outputs": [],
      "stateMutability": "nonpayable",
      "type": "function"
    },
    {
      "inputs": [],
      "name": "unstakeDelaySec",
      "outputs": [
        {
          "internalType": "uint32",
          "name": "",
          "type": "uint32"
        }
      ],
      "stateMutability": "view",
      "type": "function"
    },
    {
      "inputs": [
        {
          "internalType": "address payable",
          "name": "withdrawAddress",
          "type": "address"
        }
      ],
      "name": "withdrawStake",
      "outputs": [],
      "stateMutability": "nonpayable",
      "type": "function"
    },
    {
      "inputs": [
        {
          "internalType": "address payable",
          "name": "withdrawAddress",
          "type": "address"
        },
        {
          "internalType": "uint256",
          "name": "withdrawAmount",
          "type": "uint256"
        }
      ],
      "name": "withdrawTo",
      "outputs": [],
      "stateMutability": "nonpayable",
      "type": "function"
    },
    {
      "stateMutability": "payable",
      "type": "receive"
    }
  ],
  "bytecode": "0x60e060405234801561001057600080fd5b503373ffffffffffffffffffffffffffffffffffffffff1660c08173ffffffffffffffffffffffffffffffffffffffff168152505060805160a05160c051614cc66100906000396000818161090f0152818161183b015261279301526000818161065f015261093301526000818161054f0152610f6f0152614cc66000f3fe6080604052600436106101025760003560e01c80635287ce1211610095578063bb9fe6bf11610064578063bb9fe6bf14610354578063c23a5cea1461036b578063c31e435414610394578063ec8b5dbf146103d1578063fc7e286d1461040e57610112565b80635287ce121461028157806370a08231146102be57806388799426146102fb578063b760faf91461033857610112565b8063205c2878116100d1578063205c2878146101c75780632815c17b146101f0578063390b9978146102195780634baeaf8a1461024457610112565b80630396cb60146101175780630bfb68471461013357806317c6a9871461015e5780631a1c11411461018957610112565b36610112576101103361044f565b005b600080fd5b610131600480360381019061012c9190612a7a565b61050b565b005b34801561013f57600080fd5b5061014861090d565b6040516101559190612ae8565b60405180910390f35b34801561016a57600080fd5b50610173610931565b6040516101809190612b1c565b60405180910390f35b34801561019557600080fd5b506101b060048036038101906101ab9190612b5c565b610955565b6040516101be929190612ba5565b60405180910390f35b3480156101d357600080fd5b506101ee60048036038101906101e99190612c38565b610a10565b005b3480156101fc57600080fd5b5061021760048036038101906102129190612cdd565b610cfc565b005b34801561022557600080fd5b5061022e610f6d565b60405161023b9190612d4c565b60405180910390f35b34801561025057600080fd5b5061026b60048036038101906102669190612b5c565b610f91565b6040516102789190612d80565b60405180910390f35b34801561028d57600080fd5b506102a860048036038101906102a39190612dc7565b610fcd565b6040516102b59190612ed2565b60405180910390f35b3480156102ca57600080fd5b506102e560048036038101906102e09190612dc7565b611120565b6040516102f29190612b1c565b60405180910390f35b34801561030757600080fd5b50610322600480360381019061031d9190612f62565b611195565b60405161032f9190612b1c565b60405180910390f35b610352600480360381019061034d9190612dc7565b61044f565b005b34801561036057600080fd5b50610369611371565b005b34801561037757600080fd5b50610392600480360381019061038d9190612ff2565b611525565b005b3480156103a057600080fd5b506103bb60048036038101906103b69190613160565b611831565b6040516103c89190612ae8565b60405180910390f35b3480156103dd57600080fd5b506103f860048036038101906103f39190612dc7565b61189b565b604051610405919061327a565b60405180910390f35b34801561041a57600080fd5b5061043560048036038101906104309190612dc7565b611957565b6040516104469594939291906132c9565b60405180910390f35b61045981346119f2565b60008060008373ffffffffffffffffffffffffffffffffffffffff1673ffffffffffffffffffffffffffffffffffffffff16815260200190815260200160002090508173ffffffffffffffffffffffffffffffffffffffff167f2da466a7b24304f47e87fa2e1e5a81b9831ce54fec19055ce277ca2f39ba42c48260000160009054906101000a90046dffffffffffffffffffffffffffff166040516104ff9190613357565b60405180910390a25050565b60008060003373ffffffffffffffffffffffffffffffffffffffff1673ffffffffffffffffffffffffffffffffffffffff16815260200190815260200160002090507f000000000000000000000000000000000000000000000000000000000000000063ffffffff168263ffffffff1610156105bc576040517f08c379a00000000000000000000000000000000000000000000000000000000081526004016105b3906133cf565b60405180910390fd5b8060010160009054906101000a900463ffffffff1663ffffffff168263ffffffff16101561061f576040517f08c379a00000000000000000000000000000000000000000000000000000000081526004016106169061343b565b60405180910390fd5b60003482600001600f9054906101000a90046dffffffffffffffffffffffffffff166dffffffffffffffffffffffffffff1661065b919061348a565b90507f00000000000000000000000000000000000000000000000000000000000000008110156106c0576040517f08c379a00000000000000000000000000000000000000000000000000000000081526004016106b79061350a565b60405180910390fd5b6dffffffffffffffffffffffffffff80168110610712576040517f08c379a000000000000000000000000000000000000000000000000000000000815260040161070990613576565b60405180910390fd5b6040518060a001604052808360000160009054906101000a90046dffffffffffffffffffffffffffff166dffffffffffffffffffffffffffff168152602001600115158152602001826dffffffffffffffffffffffffffff1681526020018463ffffffff168152602001600067ffffffffffffffff168152506000803373ffffffffffffffffffffffffffffffffffffffff1673ffffffffffffffffffffffffffffffffffffffff16815260200190815260200160002060008201518160000160006101000a8154816dffffffffffffffffffffffffffff02191690836dffffffffffffffffffffffffffff160217905550602082015181600001600e6101000a81548160ff021916908315150217905550604082015181600001600f6101000a8154816dffffffffffffffffffffffffffff02191690836dffffffffffffffffffffffffffff16021790555060608201518160010160006101000a81548163ffffffff021916908363ffffffff16021790555060808201518160010160046101000a81548167ffffffffffffffff021916908367ffffffffffffffff1602179055509050503373ffffffffffffffffffffffffffffffffffffffff167fa5ae833d0bb1dcd632d98a8b70973e8516812898e19bf27b70071ebc8dc52c0182856040516109009291906135c7565b60405180910390a2505050565b7f000000000000000000000000000000000000000000000000000000000000000081565b7f000000000000000000000000000000000000000000000000000000000000000081565b60008060005a9050600061096885610f91565b905061097660008683611b02565b905050809350508460c001355a8361098e91906135f0565b610998919061348a565b9350600073ffffffffffffffffffffffffffffffffffffffff163373ffffffffffffffffffffffffffffffffffffffff1614610a09576040517f08c379a0000000000000000000000000000000000000000000000000000000008152600401610a0090613696565b60405180910390fd5b5050915091565b60008060003373ffffffffffffffffffffffffffffffffffffffff1673ffffffffffffffffffffffffffffffffffffffff1681526020019081526020016000206040518060a00160405290816000820160009054906101000a90046dffffffffffffffffffffffffffff166dffffffffffffffffffffffffffff166dffffffffffffffffffffffffffff16815260200160008201600e9054906101000a900460ff1615151515815260200160008201600f9054906101000a90046dffffffffffffffffffffffffffff166dffffffffffffffffffffffffffff166dffffffffffffffffffffffffffff1681526020016001820160009054906101000a900463ffffffff1663ffffffff1663ffffffff1681526020016001820160049054906101000a900467ffffffffffffffff1667ffffffffffffffff1667ffffffffffffffff1681525050905080600001516dffffffffffffffffffffffffffff16821115610baf576040517f08c379a0000000000000000000000000000000000000000000000000000000008152600401610ba690613702565b60405180910390fd5b8181600001516dffffffffffffffffffffffffffff16610bcf91906135f0565b81600001906dffffffffffffffffffffffffffff1690816dffffffffffffffffffffffffffff16815250503373ffffffffffffffffffffffffffffffffffffffff167fd1c19fbcd4551a5edfb66d43d2e337c04837afda3482b42bdf569a8fccdae5fb8484604051610c42929190613777565b60405180910390a260008373ffffffffffffffffffffffffffffffffffffffff1683604051610c70906137d1565b60006040518083038185875af1925050503d8060008114610cad576040519150601f19603f3d011682016040523d82523d6000602084013e610cb2565b606091505b5050905080610cf6576040517f08c379a0000000000000000000000000000000000000000000000000000000008152600401610ced90613832565b60405180910390fd5b50505050565b600083839050905060008167ffffffffffffffff811115610d2057610d1f613035565b5b604051908082528060200260200182016040528015610d5957816020015b610d46612985565b815260200190600190039081610d3e5790505b50905060005b82811015610e345760005a905036878784818110610d8057610d7f613852565b5b9050602002810190610d929190613890565b90506060600080610da284610f91565b9050600080610db2888785611b02565b8097508193508294505050508493506040518060a00160405280848152602001838152602001826001811115610deb57610dea6138b9565b5b81526020018581526020018760c001355a8a0301815250898981518110610e1557610e14613852565b5b6020026020010181905250505050505050508080600101915050610d5f565b506000805b86869050811015610f5a5760005a905036888884818110610e5d57610e5c613852565b5b9050602002810190610e6f9190613890565b90506000858481518110610e8657610e85613852565b5b6020026020010151905060008160600151905060608190503073ffffffffffffffffffffffffffffffffffffffff1663887994268585846040518463ffffffff1660e01b8152600401610edb93929190613c94565b6020604051808303816000875af1925050508015610f1757506040513d601f19601f82011682018060405250810190610f149190613cee565b60015b610f4157600083608001515a8703019050610f3787600287878686611c6e565b8801975050610f48565b8088019750505b50505050508080600101915050610e39565b50610f658482611fe6565b505050505050565b7f000000000000000000000000000000000000000000000000000000000000000081565b6000610f9c826120d0565b3046604051602001610fb093929190613d1b565b604051602081830303815290604052805190602001209050919050565b610fd56129c9565b6000808373ffffffffffffffffffffffffffffffffffffffff1673ffffffffffffffffffffffffffffffffffffffff1681526020019081526020016000206040518060a00160405290816000820160009054906101000a90046dffffffffffffffffffffffffffff166dffffffffffffffffffffffffffff166dffffffffffffffffffffffffffff16815260200160008201600e9054906101000a900460ff1615151515815260200160008201600f9054906101000a90046dffffffffffffffffffffffffffff166dffffffffffffffffffffffffffff166dffffffffffffffffffffffffffff1681526020016001820160009054906101000a900463ffffffff1663ffffffff1663ffffffff1681526020016001820160049054906101000a900467ffffffffffffffff1667ffffffffffffffff1667ffffffffffffffff16815250509050919050565b60008060008373ffffffffffffffffffffffffffffffffffffffff1673ffffffffffffffffffffffffffffffffffffffff16815260200190815260200160002060000160009054906101000a90046dffffffffffffffffffffffffffff166dffffffffffffffffffffffffffff169050919050565b6000805a90503073ffffffffffffffffffffffffffffffffffffffff163373ffffffffffffffffffffffffffffffffffffffff16146111d357600080fd5b6000808780606001906111e69190613d52565b905011156112f4576000806111fa896120e9565b73ffffffffffffffffffffffffffffffffffffffff1689608001358a80606001906112259190613d52565b604051611233929190613dda565b60006040518083038160008787f1925050503d8060008114611271576040519150601f19603f3d011682016040523d82523d6000602084013e611276565b606091505b5091509150816112f1576000815111156112ec57611293896120e9565b73ffffffffffffffffffffffffffffffffffffffff1688600001357f1c4fada7374c0a9ee8841fc38afe82932dc0f8e69012e927f061a8bae611a2018b60200135846040516112e3929190613df3565b60405180910390a35b600192505b50505b600086608001355a84030190506113646000838a8a8036038101906113199190613f05565b8a8a8080601f016020809104026020016040519081016040528093929190818152602001838380828437600081840152601f19601f8201169050808301925050505050505086611c6e565b9350505050949350505050565b60008060003373ffffffffffffffffffffffffffffffffffffffff1673ffffffffffffffffffffffffffffffffffffffff168152602001908152602001600020905060008160010160009054906101000a900463ffffffff1663ffffffff1603611410576040517f08c379a000000000000000000000000000000000000000000000000000000000815260040161140790613f7e565b60405180910390fd5b80600001600e9054906101000a900460ff16611461576040517f08c379a000000000000000000000000000000000000000000000000000000000815260040161145890613fea565b60405180910390fd5b60008160010160009054906101000a900463ffffffff1663ffffffff1642611489919061400a565b9050808260010160046101000a81548167ffffffffffffffff021916908367ffffffffffffffff160217905550600082600001600e6101000a81548160ff0219169083151502179055503373ffffffffffffffffffffffffffffffffffffffff167ffa9b3c14cc825c412c9ed81b3ba365a5b459439403f18829e572ed53a4180f0a826040516115199190614077565b60405180910390a25050565b60008060003373ffffffffffffffffffffffffffffffffffffffff1673ffffffffffffffffffffffffffffffffffffffff1681526020019081526020016000209050600081600001600f9054906101000a90046dffffffffffffffffffffffffffff166dffffffffffffffffffffffffffff169050600081116115dd576040517f08c379a00000000000000000000000000000000000000000000000000000000081526004016115d4906140de565b60405180910390fd5b60008260010160049054906101000a900467ffffffffffffffff1667ffffffffffffffff1611611642576040517f08c379a00000000000000000000000000000000000000000000000000000000081526004016116399061414a565b60405180910390fd5b428260010160049054906101000a900467ffffffffffffffff1667ffffffffffffffff1611156116a7576040517f08c379a000000000000000000000000000000000000000000000000000000000815260040161169e906141b6565b60405180910390fd5b60008260010160006101000a81548163ffffffff021916908363ffffffff16021790555060008260010160046101000a81548167ffffffffffffffff021916908367ffffffffffffffff160217905550600082600001600f6101000a8154816dffffffffffffffffffffffffffff02191690836dffffffffffffffffffffffffffff1602179055503373ffffffffffffffffffffffffffffffffffffffff167fb7c918e0e249f999e965cafeb6c664271b3f4317d296461500e71da39f0cbda38483604051611777929190613777565b60405180910390a260008373ffffffffffffffffffffffffffffffffffffffff16826040516117a5906137d1565b60006040518083038185875af1925050503d80600081146117e2576040519150601f19603f3d011682016040523d82523d6000602084013e6117e7565b606091505b505090508061182b576040517f08c379a000000000000000000000000000000000000000000000000000000000815260040161182290614222565b60405180910390fd5b50505050565b60008060ff60f81b7f00000000000000000000000000000000000000000000000000000000000000008486805190602001206040516020016118769493929190614319565b6040516020818303038152906040528051906020012090508060001c91505092915050565b60606000806000808573ffffffffffffffffffffffffffffffffffffffff1673ffffffffffffffffffffffffffffffffffffffff1681526020019081526020016000209050809150600167ffffffffffffffff8111156118fe576118fd613035565b5b60405190808252806020026020018201604052801561192c5781602001602082028036833780820191505090505b509250818360008151811061194457611943613852565b5b6020026020010181815250505050919050565b60006020528060005260406000206000915090508060000160009054906101000a90046dffffffffffffffffffffffffffff169080600001600e9054906101000a900460ff169080600001600f9054906101000a90046dffffffffffffffffffffffffffff16908060010160009054906101000a900463ffffffff16908060010160049054906101000a900467ffffffffffffffff16905085565b60008060008473ffffffffffffffffffffffffffffffffffffffff1673ffffffffffffffffffffffffffffffffffffffff16815260200190815260200160002090506000828260000160009054906101000a90046dffffffffffffffffffffffffffff166dffffffffffffffffffffffffffff16611a70919061348a565b90506dffffffffffffffffffffffffffff8016811115611ac5576040517f08c379a0000000000000000000000000000000000000000000000000000000008152600401611abc906143b3565b60405180910390fd5b808260000160006101000a8154816dffffffffffffffffffffffffffff02191690836dffffffffffffffffffffffffffff16021790555050505050565b600080606060005a905060008661010001358760e0013588608001358960a001358a60c001351717171790506effffffffffffffffffffffffffffff8016811115611b82576040517f08c379a0000000000000000000000000000000000000000000000000000000008152600401611b799061441f565b60405180910390fd5b6000611b8d886120f9565b8096508197505050611ba28989898989612128565b9050600043905060006001811115611bbd57611bbc6138b9565b5b866001811115611bd057611bcf6138b9565b5b03611be957611be28a8a8a8a866123e4565b9450611bfc565b6040518060200160405280600081525094505b60005a85039050808a60a001351015611c60578a8a610120016020810190611c249190612dc7565b6040517efa072b000000000000000000000000000000000000000000000000000000008152600401611c5792919061448b565b60405180910390fd5b505050505093509350939050565b6000805a90506000611c7f87612691565b905060008088610120016020810190611c989190612dc7565b9050600073ffffffffffffffffffffffffffffffffffffffff168173ffffffffffffffffffffffffffffffffffffffff1603611cde57611cd7896120e9565b9150611eb1565b809150600087511115611eb0578286029450600280811115611d0357611d026138b9565b5b8a6002811115611d1657611d156138b9565b5b14611d95578073ffffffffffffffffffffffffffffffffffffffff1663a9a234098a60a001358c8a896040518563ffffffff1660e01b8152600401611d5d9392919061450f565b600060405180830381600088803b158015611d7757600080fd5b5087f1158015611d8b573d6000803e3d6000fd5b5050505050611eaf565b8073ffffffffffffffffffffffffffffffffffffffff1663a9a234098a60a001358c8a896040518563ffffffff1660e01b8152600401611dd79392919061450f565b600060405180830381600088803b158015611df157600080fd5b5087f193505050508015611e03575060015b611eae57611e0f61455a565b806308c379a003611e6e5750611e2361457c565b80611e2e5750611e70565b8b82826040517efa072b000000000000000000000000000000000000000000000000000000008152600401611e6593929190614650565b60405180910390fd5b505b8a816040517efa072b000000000000000000000000000000000000000000000000000000008152600401611ea59291906146da565b60405180910390fd5b5b5b5b5a84038601955082860294508488602001511015611f07578a816040517efa072b000000000000000000000000000000000000000000000000000000008152600401611efe929190614762565b60405180910390fd5b6000858960200151039050611f1c83826119f2565b6000806002811115611f3157611f306138b9565b5b8c6002811115611f4457611f436138b9565b5b1490508a610120016020810190611f5b9190612dc7565b73ffffffffffffffffffffffffffffffffffffffff16611f7a8c6120e9565b73ffffffffffffffffffffffffffffffffffffffff168b600001517f33fd4d1f25a5461bea901784a6571de6debc16cd0831932c22c6969cd73ba9948e602001358b8a87604051611fce949392919061479e565b60405180910390a45050505050509695505050505050565b600073ffffffffffffffffffffffffffffffffffffffff168273ffffffffffffffffffffffffffffffffffffffff1603612055576040517f08c379a000000000000000000000000000000000000000000000000000000000815260040161204c9061482f565b60405180910390fd5b60008273ffffffffffffffffffffffffffffffffffffffff168260405161207b906137d1565b60006040518083038185875af1925050503d80600081146120b8576040519150601f19603f3d011682016040523d82523d6000602084013e6120bd565b606091505b50509050806120cb57600080fd5b505050565b60006120db826126cc565b805190602001209050919050565b6000808235905080915050919050565b6000806121058361270e565b91506121108361272a565b1561211e5760009050612123565b600190505b915091565b6000805a905061213786612776565b600080612143886120e9565b905060006001811115612159576121586138b9565b5b85600181111561216c5761216b6138b9565b5b1461219457600061217c82611120565b905086811161218d57808703612190565b60005b9250505b8073ffffffffffffffffffffffffffffffffffffffff1663fcbac1f48960a001358a8a866040518563ffffffff1660e01b81526004016121d69392919061484f565b600060405180830381600088803b1580156121f057600080fd5b5087f193505050508015612202575060015b6122af5761220e61455a565b806308c379a00361226e575061222261457c565b8061222d5750612270565b896000826040517efa072b00000000000000000000000000000000000000000000000000000000815260040161226593929190614650565b60405180910390fd5b505b8860006040517efa072b0000000000000000000000000000000000000000000000000000000081526004016122a69291906148b0565b60405180910390fd5b600060018111156122c3576122c26138b9565b5b8560018111156122d6576122d56138b9565b5b146123d35760008060008373ffffffffffffffffffffffffffffffffffffffff1673ffffffffffffffffffffffffffffffffffffffff168152602001908152602001600020905060008160000160009054906101000a90046dffffffffffffffffffffffffffff166dffffffffffffffffffffffffffff16905080881115612397578a60006040517efa072b00000000000000000000000000000000000000000000000000000000815260040161238e929190614938565b60405180910390fd5b8781038260000160006101000a8154816dffffffffffffffffffffffffffff02191690836dffffffffffffffffffffffffffff16021790555050505b5a8303935050505095945050505050565b60606000856101200160208101906123fc9190612dc7565b905060008060008373ffffffffffffffffffffffffffffffffffffffff1673ffffffffffffffffffffffffffffffffffffffff168152602001908152602001600020905060008160000160009054906101000a90046dffffffffffffffffffffffffffff166dffffffffffffffffffffffffffff169050600082600001600e9054906101000a900460ff169050806124cc5789846040517efa072b0000000000000000000000000000000000000000000000000000000081526004016124c3929190614974565b60405180910390fd5b868210156125125789846040517efa072b0000000000000000000000000000000000000000000000000000000081526004016125099291906149fc565b60405180910390fd5b8682038360000160006101000a8154816dffffffffffffffffffffffffffff02191690836dffffffffffffffffffffffffffff1602179055506000868a60a001350390508473ffffffffffffffffffffffffffffffffffffffff16637bfd0845828c8c8c6040518563ffffffff1660e01b81526004016125949392919061484f565b6000604051808303818786fa935050505080156125d457506040513d6000823e3d601f19601f820116820180604052508101906125d19190614aa8565b60015b61267f576125e061455a565b806308c379a00361263f57506125f461457c565b806125ff5750612641565b8b86826040517efa072b00000000000000000000000000000000000000000000000000000000815260040161263693929190614650565b60405180910390fd5b505b8a856040517efa072b0000000000000000000000000000000000000000000000000000000081526004016126769291906148b0565b60405180910390fd5b80965050505050505095945050505050565b6000808260e001359050600083610100013590508082036126b65781925050506126c7565b6126c282488301612932565b925050505b919050565b6060366000838061016001906126e29190613d52565b915091508360208184030360405194506020810185016040528085528082602087013750505050919050565b600061271982612691565b6127228361294b565b029050919050565b60008073ffffffffffffffffffffffffffffffffffffffff16826101200160208101906127579190612dc7565b73ffffffffffffffffffffffffffffffffffffffff1614159050919050565b60008180604001906127889190613d52565b90501461292f5760007f000000000000000000000000000000000000000000000000000000000000000073ffffffffffffffffffffffffffffffffffffffff16634af63f028380604001906127dd9190613d52565b856020013560001b6040518463ffffffff1660e01b815260040161280393929190614b1e565b6020604051808303816000875af1158015612822573d6000803e3d6000fd5b505050506040513d601f19601f820116820180604052508101906128469190614b65565b9050600073ffffffffffffffffffffffffffffffffffffffff168173ffffffffffffffffffffffffffffffffffffffff16036128b7576040517f08c379a00000000000000000000000000000000000000000000000000000000081526004016128ae90614bde565b60405180910390fd5b6128c0826120e9565b73ffffffffffffffffffffffffffffffffffffffff168173ffffffffffffffffffffffffffffffffffffffff161461292d576040517f08c379a000000000000000000000000000000000000000000000000000000000815260040161292490614c70565b60405180910390fd5b505b50565b60008183106129415781612943565b825b905092915050565b6000806129578361272a565b612962576001612965565b60035b60ff1690508260c00135818460a001350284608001350101915050919050565b6040518060a001604052806000801916815260200160008152602001600060018111156129b5576129b46138b9565b5b815260200160008152602001600081525090565b6040518060a0016040528060006dffffffffffffffffffffffffffff16815260200160001515815260200160006dffffffffffffffffffffffffffff168152602001600063ffffffff168152602001600067ffffffffffffffff1681525090565b6000604051905090565b600080fd5b600080fd5b600063ffffffff82169050919050565b612a5781612a3e565b8114612a6257600080fd5b50565b600081359050612a7481612a4e565b92915050565b600060208284031215612a9057612a8f612a34565b5b6000612a9e84828501612a65565b91505092915050565b600073ffffffffffffffffffffffffffffffffffffffff82169050919050565b6000612ad282612aa7565b9050919050565b612ae281612ac7565b82525050565b6000602082019050612afd6000830184612ad9565b92915050565b6000819050919050565b612b1681612b03565b82525050565b6000602082019050612b316000830184612b0d565b92915050565b600080fd5b60006101808284031215612b5357612b52612b37565b5b81905092915050565b600060208284031215612b7257612b71612a34565b5b600082013567ffffffffffffffff811115612b9057612b8f612a39565b5b612b9c84828501612b3c565b91505092915050565b6000604082019050612bba6000830185612b0d565b612bc76020830184612b0d565b9392505050565b6000612bd982612aa7565b9050919050565b612be981612bce565b8114612bf457600080fd5b50565b600081359050612c0681612be0565b92915050565b612c1581612b03565b8114612c2057600080fd5b50565b600081359050612c3281612c0c565b92915050565b60008060408385031215612c4f57612c4e612a34565b5b6000612c5d85828601612bf7565b9250506020612c6e85828601612c23565b9150509250929050565b600080fd5b600080fd5b600080fd5b60008083601f840112612c9d57612c9c612c78565b5b8235905067ffffffffffffffff811115612cba57612cb9612c7d565b5b602083019150836020820283011115612cd657612cd5612c82565b5b9250929050565b600080600060408486031215612cf657612cf5612a34565b5b600084013567ffffffffffffffff811115612d1457612d13612a39565b5b612d2086828701612c87565b93509350506020612d3386828701612bf7565b9150509250925092565b612d4681612a3e565b82525050565b6000602082019050612d616000830184612d3d565b92915050565b6000819050919050565b612d7a81612d67565b82525050565b6000602082019050612d956000830184612d71565b92915050565b612da481612ac7565b8114612daf57600080fd5b50565b600081359050612dc181612d9b565b92915050565b600060208284031215612ddd57612ddc612a34565b5b6000612deb84828501612db2565b91505092915050565b60006dffffffffffffffffffffffffffff82169050919050565b612e1781612df4565b82525050565b60008115159050919050565b612e3281612e1d565b82525050565b612e4181612a3e565b82525050565b600067ffffffffffffffff82169050919050565b612e6481612e47565b82525050565b60a082016000820151612e806000850182612e0e565b506020820151612e936020850182612e29565b506040820151612ea66040850182612e0e565b506060820151612eb96060850182612e38565b506080820151612ecc6080850182612e5b565b50505050565b600060a082019050612ee76000830184612e6a565b92915050565b600060a08284031215612f0357612f02612b37565b5b81905092915050565b60008083601f840112612f2257612f21612c78565b5b8235905067ffffffffffffffff811115612f3f57612f3e612c7d565b5b602083019150836001820283011115612f5b57612f5a612c82565b5b9250929050565b60008060008060e08587031215612f7c57612f7b612a34565b5b600085013567ffffffffffffffff811115612f9a57612f99612a39565b5b612fa687828801612b3c565b9450506020612fb787828801612eed565b93505060c085013567ffffffffffffffff811115612fd857612fd7612a39565b5b612fe487828801612f0c565b925092505092959194509250565b60006020828403121561300857613007612a34565b5b600061301684828501612bf7565b91505092915050565b600080fd5b6000601f19601f8301169050919050565b7f4e487b7100000000000000000000000000000000000000000000000000000000600052604160045260246000fd5b61306d82613024565b810181811067ffffffffffffffff8211171561308c5761308b613035565b5b80604052505050565b600061309f612a2a565b90506130ab8282613064565b919050565b600067ffffffffffffffff8211156130cb576130ca613035565b5b6130d482613024565b9050602081019050919050565b82818337600083830152505050565b60006131036130fe846130b0565b613095565b90508281526020810184848401111561311f5761311e61301f565b5b61312a8482856130e1565b509392505050565b600082601f83011261314757613146612c78565b5b81356131578482602086016130f0565b91505092915050565b6000806040838503121561317757613176612a34565b5b600083013567ffffffffffffffff81111561319557613194612a39565b5b6131a185828601613132565b92505060206131b285828601612c23565b9150509250929050565b600081519050919050565b600082825260208201905092915050565b6000819050602082019050919050565b6131f181612b03565b82525050565b600061320383836131e8565b60208301905092915050565b6000602082019050919050565b6000613227826131bc565b61323181856131c7565b935061323c836131d8565b8060005b8381101561326d57815161325488826131f7565b975061325f8361320f565b925050600181019050613240565b5085935050505092915050565b60006020820190508181036000830152613294818461321c565b905092915050565b6132a581612df4565b82525050565b6132b481612e1d565b82525050565b6132c381612e47565b82525050565b600060a0820190506132de600083018861329c565b6132eb60208301876132ab565b6132f8604083018661329c565b6133056060830185612d3d565b61331260808301846132ba565b9695505050505050565b6000819050919050565b600061334161333c61333784612df4565b61331c565b612b03565b9050919050565b61335181613326565b82525050565b600060208201905061336c6000830184613348565b92915050565b600082825260208201905092915050565b7f756e7374616b652064656c617920746f6f206c6f770000000000000000000000600082015250565b60006133b9601583613372565b91506133c482613383565b602082019050919050565b600060208201905081810360008301526133e8816133ac565b9050919050565b7f63616e6e6f7420646563726561736520756e7374616b652074696d6500000000600082015250565b6000613425601c83613372565b9150613430826133ef565b602082019050919050565b6000602082019050818103600083015261345481613418565b9050919050565b7f4e487b7100000000000000000000000000000000000000000000000000000000600052601160045260246000fd5b600061349582612b03565b91506134a083612b03565b92508282019050808211156134b8576134b761345b565b5b92915050565b7f7374616b652076616c756520746f6f206c6f7700000000000000000000000000600082015250565b60006134f4601383613372565b91506134ff826134be565b602082019050919050565b60006020820190508181036000830152613523816134e7565b9050919050565b7f7374616b65206f766572666c6f77000000000000000000000000000000000000600082015250565b6000613560600e83613372565b915061356b8261352a565b602082019050919050565b6000602082019050818103600083015261358f81613553565b9050919050565b60006135b16135ac6135a784612a3e565b61331c565b612b03565b9050919050565b6135c181613596565b82525050565b60006040820190506135dc6000830185612b0d565b6135e960208301846135b8565b9392505050565b60006135fb82612b03565b915061360683612b03565b925082820390508181111561361e5761361d61345b565b5b92915050565b7f6d7573742062652063616c6c6564206f66662d636861696e207769746820667260008201527f6f6d3d7a65726f2d616464720000000000000000000000000000000000000000602082015250565b6000613680602c83613372565b915061368b82613624565b604082019050919050565b600060208201905081810360008301526136af81613673565b9050919050565b7f576974686472617720616d6f756e7420746f6f206c6172676500000000000000600082015250565b60006136ec601983613372565b91506136f7826136b6565b602082019050919050565b6000602082019050818103600083015261371b816136df565b9050919050565b600061373d61373861373384612aa7565b61331c565b612aa7565b9050919050565b600061374f82613722565b9050919050565b600061376182613744565b9050919050565b61377181613756565b82525050565b600060408201905061378c6000830185613768565b6137996020830184612b0d565b9392505050565b600081905092915050565b50565b60006137bb6000836137a0565b91506137c6826137ab565b600082019050919050565b60006137dc826137ae565b9150819050919050565b7f6661696c656420746f2077697468647261770000000000000000000000000000600082015250565b600061381c601283613372565b9150613827826137e6565b602082019050919050565b6000602082019050818103600083015261384b8161380f565b9050919050565b7f4e487b7100000000000000000000000000000000000000000000000000000000600052603260045260246000fd5b600080fd5b600080fd5b600080fd5b600082356001610180038336030381126138ad576138ac613881565b5b80830191505092915050565b7f4e487b7100000000000000000000000000000000000000000000000000000000600052602160045260246000fd5b60006138f76020840184612db2565b905092915050565b61390881612ac7565b82525050565b600061391d6020840184612c23565b905092915050565b600080fd5b600080fd5b600080fd5b600080833560016020038436030381126139515761395061392f565b5b83810192508235915060208301925067ffffffffffffffff82111561397957613978613925565b5b60018202360383131561398f5761398e61392a565b5b509250929050565b600082825260208201905092915050565b60006139b48385613997565b93506139c18385846130e1565b6139ca83613024565b840190509392505050565b600061018083016139e960008401846138e8565b6139f660008601826138ff565b50613a04602084018461390e565b613a1160208601826131e8565b50613a1f6040840184613934565b8583036040870152613a328382846139a8565b92505050613a436060840184613934565b8583036060870152613a568382846139a8565b92505050613a67608084018461390e565b613a7460808601826131e8565b50613a8260a084018461390e565b613a8f60a08601826131e8565b50613a9d60c084018461390e565b613aaa60c08601826131e8565b50613ab860e084018461390e565b613ac560e08601826131e8565b50613ad461010084018461390e565b613ae26101008601826131e8565b50613af16101208401846138e8565b613aff6101208601826138ff565b50613b0e610140840184613934565b858303610140870152613b228382846139a8565b92505050613b34610160840184613934565b858303610160870152613b488382846139a8565b925050508091505092915050565b613b5f81612d67565b82525050565b60028110613b7657613b756138b9565b5b50565b6000819050613b8782613b65565b919050565b6000613b9782613b79565b9050919050565b613ba781613b8c565b82525050565b60a082016000820151613bc36000850182613b56565b506020820151613bd660208501826131e8565b506040820151613be96040850182613b9e565b506060820151613bfc60608501826131e8565b506080820151613c0f60808501826131e8565b50505050565b600081519050919050565b600082825260208201905092915050565b60005b83811015613c4f578082015181840152602081019050613c34565b60008484015250505050565b6000613c6682613c15565b613c708185613c20565b9350613c80818560208601613c31565b613c8981613024565b840191505092915050565b600060e0820190508181036000830152613cae81866139d5565b9050613cbd6020830185613bad565b81810360c0830152613ccf8184613c5b565b9050949350505050565b600081519050613ce881612c0c565b92915050565b600060208284031215613d0457613d03612a34565b5b6000613d1284828501613cd9565b91505092915050565b6000606082019050613d306000830186612d71565b613d3d6020830185612ad9565b613d4a6040830184612b0d565b949350505050565b60008083356001602003843603038112613d6f57613d6e613881565b5b80840192508235915067ffffffffffffffff821115613d9157613d90613886565b5b602083019250600182023603831315613dad57613dac61388b565b5b509250929050565b6000613dc183856137a0565b9350613dce8385846130e1565b82840190509392505050565b6000613de7828486613db5565b91508190509392505050565b6000604082019050613e086000830185612b0d565b8181036020830152613e1a8184613c5b565b90509392505050565b600080fd5b613e3181612d67565b8114613e3c57600080fd5b50565b600081359050613e4e81613e28565b92915050565b60028110613e6157600080fd5b50565b600081359050613e7381613e54565b92915050565b600060a08284031215613e8f57613e8e613e23565b5b613e9960a0613095565b90506000613ea984828501613e3f565b6000830152506020613ebd84828501612c23565b6020830152506040613ed184828501613e64565b6040830152506060613ee584828501612c23565b6060830152506080613ef984828501612c23565b60808301525092915050565b600060a08284031215613f1b57613f1a612a34565b5b6000613f2984828501613e79565b91505092915050565b7f6e6f74207374616b656400000000000000000000000000000000000000000000600082015250565b6000613f68600a83613372565b9150613f7382613f32565b602082019050919050565b60006020820190508181036000830152613f9781613f5b565b9050919050565b7f616c726561647920756e7374616b696e67000000000000000000000000000000600082015250565b6000613fd4601183613372565b9150613fdf82613f9e565b602082019050919050565b6000602082019050818103600083015261400381613fc7565b9050919050565b600061401582612e47565b915061402083612e47565b9250828201905067ffffffffffffffff8111156140405761403f61345b565b5b92915050565b600061406161405c61405784612e47565b61331c565b612b03565b9050919050565b61407181614046565b82525050565b600060208201905061408c6000830184614068565b92915050565b7f4e6f207374616b6520746f207769746864726177000000000000000000000000600082015250565b60006140c8601483613372565b91506140d382614092565b602082019050919050565b600060208201905081810360008301526140f7816140bb565b9050919050565b7f6d7573742063616c6c20756e6c6f636b5374616b652829206669727374000000600082015250565b6000614134601d83613372565b915061413f826140fe565b602082019050919050565b6000602082019050818103600083015261416381614127565b9050919050565b7f5374616b65207769746864726177616c206973206e6f74206475650000000000600082015250565b60006141a0601b83613372565b91506141ab8261416a565b602082019050919050565b600060208201905081810360008301526141cf81614193565b9050919050565b7f6661696c656420746f207769746864726177207374616b650000000000000000600082015250565b600061420c601883613372565b9150614217826141d6565b602082019050919050565b6000602082019050818103600083015261423b816141ff565b9050919050565b60007fff0000000000000000000000000000000000000000000000000000000000000082169050919050565b6000819050919050565b61428961428482614242565b61426e565b82525050565b60008160601b9050919050565b60006142a78261428f565b9050919050565b60006142b98261429c565b9050919050565b6142d16142cc82612ac7565b6142ae565b82525050565b6000819050919050565b6142f26142ed82612b03565b6142d7565b82525050565b6000819050919050565b61431361430e82612d67565b6142f8565b82525050565b60006143258287614278565b60018201915061433582866142c0565b60148201915061434582856142e1565b6020820191506143558284614302565b60208201915081905095945050505050565b7f6465706f736974206f766572666c6f7700000000000000000000000000000000600082015250565b600061439d601083613372565b91506143a882614367565b602082019050919050565b600060208201905081810360008301526143cc81614390565b9050919050565b7f6761732076616c756573206f766572666c6f7700000000000000000000000000600082015250565b6000614409601383613372565b9150614414826143d3565b602082019050919050565b60006020820190508181036000830152614438816143fc565b9050919050565b7f55736564206d6f7265207468616e20766572696669636174696f6e4761730000600082015250565b6000614475601e83613372565b91506144808261443f565b602082019050919050565b60006060820190506144a06000830185612b0d565b6144ad6020830184612ad9565b81810360408301526144be81614468565b90509392505050565b600381106144d8576144d76138b9565b5b50565b60008190506144e9826144c7565b919050565b60006144f9826144db565b9050919050565b614509816144ee565b82525050565b60006060820190506145246000830186614500565b81810360208301526145368185613c5b565b90506145456040830184612b0d565b949350505050565b60008160e01c9050919050565b600060033d11156145795760046000803e61457660005161454d565b90505b90565b600060443d106146095761458e612a2a565b60043d036004823e80513d602482011167ffffffffffffffff821117156145b6575050614609565b808201805167ffffffffffffffff8111156145d45750505050614609565b80602083010160043d0385018111156145f1575050505050614609565b61460082602001850186613064565b82955050505050505b90565b600081519050919050565b60006146228261460c565b61462c8185613372565b935061463c818560208601613c31565b61464581613024565b840191505092915050565b60006060820190506146656000830186612b0d565b6146726020830185612ad9565b81810360408301526146848184614617565b9050949350505050565b7f706f73744f702072657665727400000000000000000000000000000000000000600082015250565b60006146c4600d83613372565b91506146cf8261468e565b602082019050919050565b60006060820190506146ef6000830185612b0d565b6146fc6020830184612ad9565b818103604083015261470d816146b7565b90509392505050565b7f70726566756e642062656c6f772061637475616c476173436f73740000000000600082015250565b600061474c601b83613372565b915061475782614716565b602082019050919050565b60006060820190506147776000830185612b0d565b6147846020830184612ad9565b81810360408301526147958161473f565b90509392505050565b60006080820190506147b36000830187612b0d565b6147c06020830186612b0d565b6147cd6040830185612b0d565b6147da60608301846132ab565b95945050505050565b7f696e76616c69642062656e656669636961727900000000000000000000000000600082015250565b6000614819601383613372565b9150614824826147e3565b602082019050919050565b600060208201905081810360008301526148488161480c565b9050919050565b6000606082019050818103600083015261486981866139d5565b90506148786020830185612d71565b6148856040830184612b0d565b949350505050565b600061489a600083613372565b91506148a5826137ab565b600082019050919050565b60006060820190506148c56000830185612b0d565b6148d26020830184612ad9565b81810360408301526148e38161488d565b90509392505050565b7f77616c6c6574206469646e2774207061792070726566756e6400000000000000600082015250565b6000614922601983613372565b915061492d826148ec565b602082019050919050565b600060608201905061494d6000830185612b0d565b61495a6020830184612ad9565b818103604083015261496b81614915565b90509392505050565b60006060820190506149896000830185612b0d565b6149966020830184612ad9565b81810360408301526149a781613f5b565b90509392505050565b7f7061796d6173746572206465706f73697420746f6f206c6f7700000000000000600082015250565b60006149e6601983613372565b91506149f1826149b0565b602082019050919050565b6000606082019050614a116000830185612b0d565b614a1e6020830184612ad9565b8181036040830152614a2f816149d9565b90509392505050565b6000614a4b614a46846130b0565b613095565b905082815260208101848484011115614a6757614a6661301f565b5b614a72848285613c31565b509392505050565b600082601f830112614a8f57614a8e612c78565b5b8151614a9f848260208601614a38565b91505092915050565b600060208284031215614abe57614abd612a34565b5b600082015167ffffffffffffffff811115614adc57614adb612a39565b5b614ae884828501614a7a565b91505092915050565b6000614afd8385613c20565b9350614b0a8385846130e1565b614b1383613024565b840190509392505050565b60006040820190508181036000830152614b39818587614af1565b9050614b486020830184612d71565b949350505050565b600081519050614b5f81612d9b565b92915050565b600060208284031215614b7b57614b7a612a34565b5b6000614b8984828501614b50565b91505092915050565b7f63726561746532206661696c6564000000000000000000000000000000000000600082015250565b6000614bc8600e83613372565b9150614bd382614b92565b602082019050919050565b60006020820190508181036000830152614bf781614bbb565b9050919050565b7f73656e64657220646f65736e2774206d6174636820637265617465322061646460008201527f7265737300000000000000000000000000000000000000000000000000000000602082015250565b6000614c5a602483613372565b9150614c6582614bfe565b604082019050919050565b60006020820190508181036000830152614c8981614c4d565b905091905056fea264697066735822122042340e80045f8ea6a5b8882fda0ec75fedb087a1e6bd3975539cc22579159db564736f6c63430008150033",
  "linkReferences": {},
  "deployedLinkReferences": {}
}