{"contracts/EntryPoint.sol":{"EntryPoint":{"abi":[{"inputs":[],"stateMutability":"nonpayable","type":"constructor"},{"inputs":[{"internalType":"uint256","name":"opIndex","type":"uint256"},{"internalType":"address","name":"paymaster","type":"address"},{"internalType":"string","name":"reason","type":"string"}],"name":"FailedOp","type":"error"},{"anonymous":false,"inputs":[{"indexed":true,"internalType":"address","name":"account","type":"address"},{"indexed":false,"internalType":"uint256","name":"totalDeposit","type":"uint256"}],"name":"Deposited","type":"event"},{"anonymous":false,"inputs":[{"indexed":true,"internalType":"address","name":"account","type":"address"},{"indexed":false,"internalType":"uint256","name":"totalStaked","type":"uint256"},{"indexed":false,"internalType":"uint256","name":"withdrawTime","type":"uint256"}],"name":"StakeLocked","type":"event"},{"anonymous":false,"inputs":[{"indexed":true,"internalType":"address","name":"account","type":"address"},{"indexed":false,"internalType":"uint256","name":"withdrawTime","type":"uint256"}],"name":"StakeUnlocked","type":"event"},{"anonymous":false,"inputs":[{"indexed":true,"internalType":"address","name":"account","type":"address"},{"indexed":false,"internalType":"address","name":"withdrawAddress","type":"address"},{"indexed":false,"internalType":"uint256","name":"amount","type":"uint256"}],"name":"StakeWithdrawn","type":"event"},{"anonymous":false,"inputs":[{"indexed":true,"internalType":"bytes32","name":"requestId","type":"bytes32"},{"indexed":true,"internalType":"address","name":"sender","type":"address"},{"indexed":true,"internalType":"address","name":"paymaster","type":"address"},{"indexed":false,"internalType":"uint256","name":"nonce","type":"uint256"},{"indexed":false,"internalType":"uint256","name":"actualGasCost","type":"uint256"},{"indexed":false,"internalType":"uint256","name":"actualGasPrice","type":"uint256"},{"indexed":false,"internalType":"bool","name":"success","type":"bool"}],"name":"UserOperationEvent","type":"event"},{"anonymous":false,"inputs":[{"indexed":true,"internalType":"bytes32","name":"requestId","type":"bytes32"},{"indexed":true,"internalType":"address","name":"sender","type":"address"},{"indexed":false,"internalType":"uint256","name":"nonce","type":"uint256"},{"indexed":false,"internalType":"bytes","name":"revertReason","type":"bytes"}],"name":"UserOperationRevertReason","type":"event"},{"anonymous":false,"inputs":[{"indexed":true,"internalType":"address","name":"account","type":"address"},{"indexed":false,"internalType":"address","name":"withdrawAddress","type":"address"},{"indexed":false,"internalType":"uint256","name":"amount","type":"uint256"}],"name":"Withdrawn","type":"event"},{"inputs":[{"internalType":"uint32","name":"_unstakeDelaySec","type":"uint32"}],"name":"addStake","outputs":[],"stateMutability":"payable","type":"function"},{"inputs":[{"internalType":"address","name":"account","type":"address"}],"name":"balanceOf","outputs":[{"internalType":"uint256","name":"","type":"uint256"}],"stateMutability":"view","type":"function"},{"inputs":[],"name":"create2factory","outputs":[{"internalType":"address","name":"","type":"address"}],"stateMutability":"view","type":"function"},{"inputs":[{"internalType":"address","name":"account","type":"address"}],"name":"depositTo","outputs":[],"stateMutability":"payable","type":"function"},{"inputs":[{"internalType":"address","name":"","type":"address"}],"name":"deposits","outputs":[{"internalType":"uint112","name":"deposit","type":"uint112"},{"internalType":"bool","name":"staked","type":"bool"},{"internalType":"uint112","name":"stake","type":"uint112"},{"internalType":"uint32","name":"unstakeDelaySec","type":"uint32"},{"internalType":"uint64","name":"withdrawTime","type":"uint64"}],"stateMutability":"view","type":"function"},{"inputs":[{"internalType":"address","name":"account","type":"address"}],"name":"getDepositInfo","outputs":[{"components":[{"internalType":"uint112","name":"deposit","type":"uint112"},{"internalType":"bool","name":"staked","type":"bool"},{"internalType":"uint112","name":"stake","type":"uint112"},{"internalType":"uint32","name":"unstakeDelaySec","type":"uint32"},{"internalType":"uint64","name":"withdrawTime","type":"uint64"}],"internalType":"struct StakeManager.DepositInfo","name":"info","type":"tuple"}],"stateMutability":"view","type":"function"},{"inputs":[{"components":[{"internalType":"address","name":"sender","type":"address"},{"internalType":"uint256","name":"nonce","type":"uint256"},{"internalType":"bytes","name":"initCode","type":"bytes"},{"internalType":"bytes","name":"callData","type":"bytes"},{"internalType":"uint256","name":"callGas","type":"uint256"},{"internalType":"uint256","name":"verificationGas","type":"uint256"},{"internalType":"uint256","name":"preVerificationGas","type":"uint256"},{"internalType":"uint256","name":"maxFeePerGas","type":"uint256"},{"internalType":"uint256","name":"maxPriorityFeePerGas","type":"uint256"},{"internalType":"address","name":"paymaster","type":"address"},{"internalType":"bytes","name":"paymasterData","type":"bytes"},{"internalType":"bytes","name":"signature","type":"bytes"}],"internalType":"struct UserOperation","name":"userOp","type":"tuple"}],"name":"getRequestId","outputs":[{"internalType":"bytes32","name":"","type":"bytes32"}],"stateMutability":"view","type":"function"},{"inputs":[{"internalType":"bytes","name":"initCode","type":"bytes"},{"internalType":"uint256","name":"salt","type":"uint256"}],"name":"getSenderAddress","outputs":[{"internalType":"address","name":"","type":"address"}],"stateMutability":"view","type":"function"},{"inputs":[{"internalType":"address","name":"sender","type":"address"}],"name":"getSenderStorage","outputs":[{"internalType":"uint256[]","name":"senderStorageCells","type":"uint256[]"}],"stateMutability":"view","type":"function"},{"inputs":[{"components":[{"internalType":"address","name":"sender","type":"address"},{"internalType":"uint256","name":"nonce","type":"uint256"},{"internalType":"bytes","name":"initCode","type":"bytes"},{"internalType":"bytes","name":"callData","type":"bytes"},{"internalType":"uint256","name":"callGas","type":"uint256"},{"internalType":"uint256","name":"verificationGas","type":"uint256"},{"internalType":"uint256","name":"preVerificationGas","type":"uint256"},{"internalType":"uint256","name":"maxFeePerGas","type":"uint256"},{"internalType":"uint256","name":"maxPriorityFeePerGas","type":"uint256"},{"internalType":"address","name":"paymaster","type":"address"},{"internalType":"bytes","name":"paymasterData","type":"bytes"},{"internalType":"bytes","name":"signature","type":"bytes"}],"internalType":"struct UserOperation[]","name":"ops","type":"tuple[]"},{"internalType":"address payable","name":"beneficiary","type":"address"}],"name":"handleOps","outputs":[],"stateMutability":"nonpayable","type":"function"},{"inputs":[{"components":[{"internalType":"address","name":"sender","type":"address"},{"internalType":"uint256","name":"nonce","type":"uint256"},{"internalType":"bytes","name":"initCode","type":"bytes"},{"internalType":"bytes","name":"callData","type":"bytes"},{"internalType":"uint256","name":"callGas","type":"uint256"},{"internalType":"uint256","name":"verificationGas","type":"uint256"},{"internalType":"uint256","name":"preVerificationGas","type":"uint256"},{"internalType":"uint256","name":"maxFeePerGas","type":"uint256"},{"internalType":"uint256","name":"maxPriorityFeePerGas","type":"uint256"},{"internalType":"address","name":"paymaster","type":"address"},{"internalType":"bytes","name":"paymasterData","type":"bytes"},{"internalType":"bytes","name":"signature","type":"bytes"}],"internalType":"struct UserOperation","name":"op","type":"tuple"},{"components":[{"internalType":"bytes32","name":"requestId","type":"bytes32"},{"internalType":"uint256","name":"prefund","type":"uint256"},{"internalType":"enum EntryPoint.PaymentMode","name":"paymentMode","type":"uint8"},{"internalType":"uint256","name":"contextOffset","type":"uint256"},{"internalType":"uint256","name":"preOpGas","type":"uint256"}],"internalType":"struct EntryPoint.UserOpInfo","name":"opInfo","type":"tuple"},{"internalType":"bytes","name":"context","type":"bytes"}],"name":"innerHandleOp","outputs":[{"internalType":"uint256","name":"actualGasCost","type":"uint256"}],"stateMutability":"nonpayable","type":"function"},{"inputs":[],"name":"paymasterStake","outputs":[{"internalType":"uint256","name":"","type":"uint256"}],"stateMutability":"view","type":"function"},{"inputs":[{"components":[{"internalType":"address","name":"sender","type":"address"},{"internalType":"uint256","name":"nonce","type":"uint256"},{"internalType":"bytes","name":"initCode","type":"bytes"},{"internalType":"bytes","name":"callData","type":"bytes"},{"internalType":"uint256","name":"callGas","type":"uint256"},{"internalType":"uint256","name":"verificationGas","type":"uint256"},{"internalType":"uint256","name":"preVerificationGas","type":"uint256"},{"internalType":"uint256","name":"maxFeePerGas","type":"uint256"},{"internalType":"uint256","name":"maxPriorityFeePerGas","type":"uint256"},{"internalType":"address","name":"paymaster","type":"address"},{"internalType":"bytes","name":"paymasterData","type":"bytes"},{"internalType":"bytes","name":"signature","type":"bytes"}],"internalType":"struct UserOperation","name":"userOp","type":"tuple"}],"name":"simulateValidation","outputs":[{"internalType":"uint256","name":"preOpGas","type":"uint256"},{"internalType":"uint256","name":"prefund","type":"uint256"}],"stateMutability":"nonpayable","type":"function"},{"inputs":[],"name":"unlockStake","outputs":[],"stateMutability":"nonpayable","type":"function"},{"inputs":[],"name":"unstakeDelaySec","outputs":[{"internalType":"uint32","name":"","type":"uint32"}],"stateMutability":"view","type":"function"},{"inputs":[{"internalType":"address payable","name":"withdrawAddress","type":"address"}],"name":"withdrawStake","outputs":[],"stateMutability":"nonpayable","type":"function"},{"inputs":[{"internalType":"address payable","name":"withdrawAddress","type":"address"},{"internalType":"uint256","name":"withdrawAmount","type":"uint256"}],"name":"withdrawTo","outputs":[],"stateMutability":"nonpayable","type":"function"},{"stateMutability":"payable","type":"receive"}],"evm":{"bytecode":{"linkReferences":{},"object":"60e060405234801561001057600080fd5b503373ffffffffffffffffffffffffffffffffffffffff1660c08173ffffffffffffffffffffffffffffffffffffffff168152505060805160a05160c051614cc66100906000396000818161090f0152818161183b015261279301526000818161065f015261093301526000818161054f0152610f6f0152614cc66000f3fe6080604052600436106101025760003560e01c80635287ce1211610095578063bb9fe6bf11610064578063bb9fe6bf14610354578063c23a5cea1461036b578063c31e435414610394578063ec8b5dbf146103d1578063fc7e286d1461040e57610112565b80635287ce121461028157806370a08231146102be57806388799426146102fb578063b760faf91461033857610112565b8063205c2878116100d1578063205c2878146101c75780632815c17b146101f0578063390b9978146102195780634baeaf8a1461024457610112565b80630396cb60146101175780630bfb68471461013357806317c6a9871461015e5780631a1c11411461018957610112565b36610112576101103361044f565b005b600080fd5b610131600480360381019061012c9190612a7a565b61050b565b005b34801561013f57600080fd5b5061014861090d565b6040516101559190612ae8565b60405180910390f35b34801561016a57600080fd5b50610173610931565b6040516101809190612b1c565b60405180910390f35b34801561019557600080fd5b506101b060048036038101906101ab9190612b5c565b610955565b6040516101be929190612ba5565b60405180910390f35b3480156101d357600080fd5b506101ee60048036038101906101e99190612c38565b610a10565b005b3480156101fc57600080fd5b5061021760048036038101906102129190612cdd565b610cfc565b005b34801561022557600080fd5b5061022e610f6d565b60405161023b9190612d4c565b60405180910390f35b34801561025057600080fd5b5061026b60048036038101906102669190612b5c565b610f91565b6040516102789190612d80565b60405180910390f35b34801561028d57600080fd5b506102a860048036038101906102a39190612dc7565b610fcd565b6040516102b59190612ed2565b60405180910390f35b3480156102ca57600080fd5b506102e560048036038101906102e09190612dc7565b611120565b6040516102f29190612b1c565b60405180910390f35b34801561030757600080fd5b50610322600480360381019061031d9190612f62565b611195565b60405161032f9190612b1c565b60405180910390f35b610352600480360381019061034d9190612dc7565b61044f565b005b34801561036057600080fd5b50610369611371565b005b34801561037757600080fd5b50610392600480360381019061038d9190612ff2565b611525565b005b3480156103a057600080fd5b506103bb60048036038101906103b69190613160565b611831565b6040516103c89190612ae8565b60405180910390f35b3480156103dd57600080fd5b506103f860048036038101906103f39190612dc7565b61189b565b604051610405919061327a565b60405180910390f35b34801561041a57600080fd5b5061043560048036038101906104309190612dc7565b611957565b6040516104469594939291906132c9565b60405180910390f35b61045981346119f2565b60008060008373ffffffffffffffffffffffffffffffffffffffff1673ffffffffffffffffffffffffffffffffffffffff16815260200190815260200160002090508173ffffffffffffffffffffffffffffffffffffffff167f2da466a7b24304f47e87fa2e1e5a81b9831ce54fec19055ce277ca2f39ba42c48260000160009054906101000a90046dffffffffffffffffffffffffffff166040516104ff9190613357565b60405180910390a25050565b60008060003373ffffffffffffffffffffffffffffffffffffffff1673ffffffffffffffffffffffffffffffffffffffff16815260200190815260200160002090507f000000000000000000000000000000000000000000000000000000000000000063ffffffff168263ffffffff1610156105bc576040517f08c379a00000000000000000000000000000000000000000000000000000000081526004016105b3906133cf565b60405180910390fd5b8060010160009054906101000a900463ffffffff1663ffffffff168263ffffffff16101561061f576040517f08c379a00000000000000000000000000000000000000000000000000000000081526004016106169061343b565b60405180910390fd5b60003482600001600f9054906101000a90046dffffffffffffffffffffffffffff166dffffffffffffffffffffffffffff1661065b919061348a565b90507f00000000000000000000000000000000000000000000000000000000000000008110156106c0576040517f08c379a00000000000000000000000000000000000000000000000000000000081526004016106b79061350a565b60405180910390fd5b6dffffffffffffffffffffffffffff80168110610712576040517f08c379a000000000000000000000000000000000000000000000000000000000815260040161070990613576565b60405180910390fd5b6040518060a001604052808360000160009054906101000a90046dffffffffffffffffffffffffffff166dffffffffffffffffffffffffffff168152602001600115158152602001826dffffffffffffffffffffffffffff1681526020018463ffffffff168152602001600067ffffffffffffffff168152506000803373ffffffffffffffffffffffffffffffffffffffff1673ffffffffffffffffffffffffffffffffffffffff16815260200190815260200160002060008201518160000160006101000a8154816dffffffffffffffffffffffffffff02191690836dffffffffffffffffffffffffffff160217905550602082015181600001600e6101000a81548160ff021916908315150217905550604082015181600001600f6101000a8154816dffffffffffffffffffffffffffff02191690836dffffffffffffffffffffffffffff16021790555060608201518160010160006101000a81548163ffffffff021916908363ffffffff16021790555060808201518160010160046101000a81548167ffffffffffffffff021916908367ffffffffffffffff1602179055509050503373ffffffffffffffffffffffffffffffffffffffff167fa5ae833d0bb1dcd632d98a8b70973e8516812898e19bf27b70071ebc8dc52c0182856040516109009291906135c7565b60405180910390a2505050565b7f000000000000000000000000000000000000000000000000000000000000000081565b7f000000000000000000000000000000000000000000000000000000000000000081565b60008060005a9050600061096885610f91565b905061097660008683611b02565b905050809350508460c001355a8361098e91906135f0565b610998919061348a565b9350600073ffffffffffffffffffffffffffffffffffffffff163373ffffffffffffffffffffffffffffffffffffffff1614610a09576040517f08c379a0000000000000000000000000000000000000000000000000000000008152600401610a0090613696565b60405180910390fd5b5050915091565b60008060003373ffffffffffffffffffffffffffffffffffffffff1673ffffffffffffffffffffffffffffffffffffffff1681526020019081526020016000206040518060a00160405290816000820160009054906101000a90046dffffffffffffffffffffffffffff166dffffffffffffffffffffffffffff166dffffffffffffffffffffffffffff16815260200160008201600e9054906101000a900460ff1615151515815260200160008201600f9054906101000a90046dffffffffffffffffffffffffffff166dffffffffffffffffffffffffffff166dffffffffffffffffffffffffffff1681526020016001820160009054906101000a900463ffffffff1663ffffffff1663ffffffff1681526020016001820160049054906101000a900467ffffffffffffffff1667ffffffffffffffff1667ffffffffffffffff1681525050905080600001516dffffffffffffffffffffffffffff16821115610baf576040517f08c379a0000000000000000000000000000000000000000000000000000000008152600401610ba690613702565b60405180910390fd5b8181600001516dffffffffffffffffffffffffffff16610bcf91906135f0565b81600001906dffffffffffffffffffffffffffff1690816dffffffffffffffffffffffffffff16815250503373ffffffffffffffffffffffffffffffffffffffff167fd1c19fbcd4551a5edfb66d43d2e337c04837afda3482b42bdf569a8fccdae5fb8484604051610c42929190613777565b60405180910390a260008373ffffffffffffffffffffffffffffffffffffffff1683604051610c70906137d1565b60006040518083038185875af1925050503d8060008114610cad576040519150601f19603f3d011682016040523d82523d6000602084013e610cb2565b606091505b5050905080610cf6576040517f08c379a0000000000000000000000000000000000000000000000000000000008152600401610ced90613832565b60405180910390fd5b50505050565b600083839050905060008167ffffffffffffffff811115610d2057610d1f613035565b5b604051908082528060200260200182016040528015610d5957816020015b610d46612985565b815260200190600190039081610d3e5790505b50905060005b82811015610e345760005a905036878784818110610d8057610d7f613852565b5b9050602002810190610d929190613890565b90506060600080610da284610f91565b9050600080610db2888785611b02565b8097508193508294505050508493506040518060a00160405280848152602001838152602001826001811115610deb57610dea6138b9565b5b81526020018581526020018760c001355a8a0301815250898981518110610e1557610e14613852565b5b6020026020010181905250505050505050508080600101915050610d5f565b506000805b86869050811015610f5a5760005a905036888884818110610e5d57610e5c613852565b5b9050602002810190610e6f9190613890565b90506000858481518110610e8657610e85613852565b5b6020026020010151905060008160600151905060608190503073ffffffffffffffffffffffffffffffffffffffff1663887994268585846040518463ffffffff1660e01b8152600401610edb93929190613c94565b6020604051808303816000875af1925050508015610f1757506040513d601f19601f82011682018060405250810190610f149190613cee565b60015b610f4157600083608001515a8703019050610f3787600287878686611c6e565b8801975050610f48565b8088019750505b50505050508080600101915050610e39565b50610f658482611fe6565b505050505050565b7f000000000000000000000000000000000000000000000000000000000000000081565b6000610f9c826120d0565b3046604051602001610fb093929190613d1b565b604051602081830303815290604052805190602001209050919050565b610fd56129c9565b6000808373ffffffffffffffffffffffffffffffffffffffff1673ffffffffffffffffffffffffffffffffffffffff1681526020019081526020016000206040518060a00160405290816000820160009054906101000a90046dffffffffffffffffffffffffffff166dffffffffffffffffffffffffffff166dffffffffffffffffffffffffffff16815260200160008201600e9054906101000a900460ff1615151515815260200160008201600f9054906101000a90046dffffffffffffffffffffffffffff166dffffffffffffffffffffffffffff166dffffffffffffffffffffffffffff1681526020016001820160009054906101000a900463ffffffff1663ffffffff1663ffffffff1681526020016001820160049054906101000a900467ffffffffffffffff1667ffffffffffffffff1667ffffffffffffffff16815250509050919050565b60008060008373ffffffffffffffffffffffffffffffffffffffff1673ffffffffffffffffffffffffffffffffffffffff16815260200190815260200160002060000160009054906101000a90046dffffffffffffffffffffffffffff166dffffffffffffffffffffffffffff169050919050565b6000805a90503073ffffffffffffffffffffffffffffffffffffffff163373ffffffffffffffffffffffffffffffffffffffff16146111d357600080fd5b6000808780606001906111e69190613d52565b905011156112f4576000806111fa896120e9565b73ffffffffffffffffffffffffffffffffffffffff1689608001358a80606001906112259190613d52565b604051611233929190613dda565b60006040518083038160008787f1925050503d8060008114611271576040519150601f19603f3d011682016040523d82523d6000602084013e611276565b606091505b5091509150816112f1576000815111156112ec57611293896120e9565b73ffffffffffffffffffffffffffffffffffffffff1688600001357f1c4fada7374c0a9ee8841fc38afe82932dc0f8e69012e927f061a8bae611a2018b60200135846040516112e3929190613df3565b60405180910390a35b600192505b50505b600086608001355a84030190506113646000838a8a8036038101906113199190613f05565b8a8a8080601f016020809104026020016040519081016040528093929190818152602001838380828437600081840152601f19601f8201169050808301925050505050505086611c6e565b9350505050949350505050565b60008060003373ffffffffffffffffffffffffffffffffffffffff1673ffffffffffffffffffffffffffffffffffffffff168152602001908152602001600020905060008160010160009054906101000a900463ffffffff1663ffffffff1603611410576040517f08c379a000000000000000000000000000000000000000000000000000000000815260040161140790613f7e565b60405180910390fd5b80600001600e9054906101000a900460ff16611461576040517f08c379a000000000000000000000000000000000000000000000000000000000815260040161145890613fea565b60405180910390fd5b60008160010160009054906101000a900463ffffffff1663ffffffff1642611489919061400a565b9050808260010160046101000a81548167ffffffffffffffff021916908367ffffffffffffffff160217905550600082600001600e6101000a81548160ff0219169083151502179055503373ffffffffffffffffffffffffffffffffffffffff167ffa9b3c14cc825c412c9ed81b3ba365a5b459439403f18829e572ed53a4180f0a826040516115199190614077565b60405180910390a25050565b60008060003373ffffffffffffffffffffffffffffffffffffffff1673ffffffffffffffffffffffffffffffffffffffff1681526020019081526020016000209050600081600001600f9054906101000a90046dffffffffffffffffffffffffffff166dffffffffffffffffffffffffffff169050600081116115dd576040517f08c379a00000000000000000000000000000000000000000000000000000000081526004016115d4906140de565b60405180910390fd5b60008260010160049054906101000a900467ffffffffffffffff1667ffffffffffffffff1611611642576040517f08c379a00000000000000000000000000000000000000000000000000000000081526004016116399061414a565b60405180910390fd5b428260010160049054906101000a900467ffffffffffffffff1667ffffffffffffffff1611156116a7576040517f08c379a000000000000000000000000000000000000000000000000000000000815260040161169e906141b6565b60405180910390fd5b60008260010160006101000a81548163ffffffff021916908363ffffffff16021790555060008260010160046101000a81548167ffffffffffffffff021916908367ffffffffffffffff160217905550600082600001600f6101000a8154816dffffffffffffffffffffffffffff02191690836dffffffffffffffffffffffffffff1602179055503373ffffffffffffffffffffffffffffffffffffffff167fb7c918e0e249f999e965cafeb6c664271b3f4317d296461500e71da39f0cbda38483604051611777929190613777565b60405180910390a260008373ffffffffffffffffffffffffffffffffffffffff16826040516117a5906137d1565b60006040518083038185875af1925050503d80600081146117e2576040519150601f19603f3d011682016040523d82523d6000602084013e6117e7565b606091505b505090508061182b576040517f08c379a000000000000000000000000000000000000000000000000000000000815260040161182290614222565b60405180910390fd5b50505050565b60008060ff60f81b7f00000000000000000000000000000000000000000000000000000000000000008486805190602001206040516020016118769493929190614319565b6040516020818303038152906040528051906020012090508060001c91505092915050565b60606000806000808573ffffffffffffffffffffffffffffffffffffffff1673ffffffffffffffffffffffffffffffffffffffff1681526020019081526020016000209050809150600167ffffffffffffffff8111156118fe576118fd613035565b5b60405190808252806020026020018201604052801561192c5781602001602082028036833780820191505090505b509250818360008151811061194457611943613852565b5b6020026020010181815250505050919050565b60006020528060005260406000206000915090508060000160009054906101000a90046dffffffffffffffffffffffffffff169080600001600e9054906101000a900460ff169080600001600f9054906101000a90046dffffffffffffffffffffffffffff16908060010160009054906101000a900463ffffffff16908060010160049054906101000a900467ffffffffffffffff16905085565b60008060008473ffffffffffffffffffffffffffffffffffffffff1673ffffffffffffffffffffffffffffffffffffffff16815260200190815260200160002090506000828260000160009054906101000a90046dffffffffffffffffffffffffffff166dffffffffffffffffffffffffffff16611a70919061348a565b90506dffffffffffffffffffffffffffff8016811115611ac5576040517f08c379a0000000000000000000000000000000000000000000000000000000008152600401611abc906143b3565b60405180910390fd5b808260000160006101000a8154816dffffffffffffffffffffffffffff02191690836dffffffffffffffffffffffffffff16021790555050505050565b600080606060005a905060008661010001358760e0013588608001358960a001358a60c001351717171790506effffffffffffffffffffffffffffff8016811115611b82576040517f08c379a0000000000000000000000000000000000000000000000000000000008152600401611b799061441f565b60405180910390fd5b6000611b8d886120f9565b8096508197505050611ba28989898989612128565b9050600043905060006001811115611bbd57611bbc6138b9565b5b866001811115611bd057611bcf6138b9565b5b03611be957611be28a8a8a8a866123e4565b9450611bfc565b6040518060200160405280600081525094505b60005a85039050808a60a001351015611c60578a8a610120016020810190611c249190612dc7565b6040517efa072b000000000000000000000000000000000000000000000000000000008152600401611c5792919061448b565b60405180910390fd5b505050505093509350939050565b6000805a90506000611c7f87612691565b905060008088610120016020810190611c989190612dc7565b9050600073ffffffffffffffffffffffffffffffffffffffff168173ffffffffffffffffffffffffffffffffffffffff1603611cde57611cd7896120e9565b9150611eb1565b809150600087511115611eb0578286029450600280811115611d0357611d026138b9565b5b8a6002811115611d1657611d156138b9565b5b14611d95578073ffffffffffffffffffffffffffffffffffffffff1663a9a234098a60a001358c8a896040518563ffffffff1660e01b8152600401611d5d9392919061450f565b600060405180830381600088803b158015611d7757600080fd5b5087f1158015611d8b573d6000803e3d6000fd5b5050505050611eaf565b8073ffffffffffffffffffffffffffffffffffffffff1663a9a234098a60a001358c8a896040518563ffffffff1660e01b8152600401611dd79392919061450f565b600060405180830381600088803b158015611df157600080fd5b5087f193505050508015611e03575060015b611eae57611e0f61455a565b806308c379a003611e6e5750611e2361457c565b80611e2e5750611e70565b8b82826040517efa072b000000000000000000000000000000000000000000000000000000008152600401611e6593929190614650565b60405180910390fd5b505b8a816040517efa072b000000000000000000000000000000000000000000000000000000008152600401611ea59291906146da565b60405180910390fd5b5b5b5b5a84038601955082860294508488602001511015611f07578a816040517efa072b000000000000000000000000000000000000000000000000000000008152600401611efe929190614762565b60405180910390fd5b6000858960200151039050611f1c83826119f2565b6000806002811115611f3157611f306138b9565b5b8c6002811115611f4457611f436138b9565b5b1490508a610120016020810190611f5b9190612dc7565b73ffffffffffffffffffffffffffffffffffffffff16611f7a8c6120e9565b73ffffffffffffffffffffffffffffffffffffffff168b600001517f33fd4d1f25a5461bea901784a6571de6debc16cd0831932c22c6969cd73ba9948e602001358b8a87604051611fce949392919061479e565b60405180910390a45050505050509695505050505050565b600073ffffffffffffffffffffffffffffffffffffffff168273ffffffffffffffffffffffffffffffffffffffff1603612055576040517f08c379a000000000000000000000000000000000000000000000000000000000815260040161204c9061482f565b60405180910390fd5b60008273ffffffffffffffffffffffffffffffffffffffff168260405161207b906137d1565b60006040518083038185875af1925050503d80600081146120b8576040519150601f19603f3d011682016040523d82523d6000602084013e6120bd565b606091505b50509050806120cb57600080fd5b505050565b60006120db826126cc565b805190602001209050919050565b6000808235905080915050919050565b6000806121058361270e565b91506121108361272a565b1561211e5760009050612123565b600190505b915091565b6000805a905061213786612776565b600080612143886120e9565b905060006001811115612159576121586138b9565b5b85600181111561216c5761216b6138b9565b5b1461219457600061217c82611120565b905086811161218d57808703612190565b60005b9250505b8073ffffffffffffffffffffffffffffffffffffffff1663fcbac1f48960a001358a8a866040518563ffffffff1660e01b81526004016121d69392919061484f565b600060405180830381600088803b1580156121f057600080fd5b5087f193505050508015612202575060015b6122af5761220e61455a565b806308c379a00361226e575061222261457c565b8061222d5750612270565b896000826040517efa072b00000000000000000000000000000000000000000000000000000000815260040161226593929190614650565b60405180910390fd5b505b8860006040517efa072b0000000000000000000000000000000000000000000000000000000081526004016122a69291906148b0565b60405180910390fd5b600060018111156122c3576122c26138b9565b5b8560018111156122d6576122d56138b9565b5b146123d35760008060008373ffffffffffffffffffffffffffffffffffffffff1673ffffffffffffffffffffffffffffffffffffffff168152602001908152602001600020905060008160000160009054906101000a90046dffffffffffffffffffffffffffff166dffffffffffffffffffffffffffff16905080881115612397578a60006040517efa072b00000000000000000000000000000000000000000000000000000000815260040161238e929190614938565b60405180910390fd5b8781038260000160006101000a8154816dffffffffffffffffffffffffffff02191690836dffffffffffffffffffffffffffff16021790555050505b5a8303935050505095945050505050565b60606000856101200160208101906123fc9190612dc7565b905060008060008373ffffffffffffffffffffffffffffffffffffffff1673ffffffffffffffffffffffffffffffffffffffff168152602001908152602001600020905060008160000160009054906101000a90046dffffffffffffffffffffffffffff166dffffffffffffffffffffffffffff169050600082600001600e9054906101000a900460ff169050806124cc5789846040517efa072b0000000000000000000000000000000000000000000000000000000081526004016124c3929190614974565b60405180910390fd5b868210156125125789846040517efa072b0000000000000000000000000000000000000000000000000000000081526004016125099291906149fc565b60405180910390fd5b8682038360000160006101000a8154816dffffffffffffffffffffffffffff02191690836dffffffffffffffffffffffffffff1602179055506000868a60a001350390508473ffffffffffffffffffffffffffffffffffffffff16637bfd0845828c8c8c6040518563ffffffff1660e01b81526004016125949392919061484f565b6000604051808303818786fa935050505080156125d457506040513d6000823e3d601f19601f820116820180604052508101906125d19190614aa8565b60015b61267f576125e061455a565b806308c379a00361263f57506125f461457c565b806125ff5750612641565b8b86826040517efa072b00000000000000000000000000000000000000000000000000000000815260040161263693929190614650565b60405180910390fd5b505b8a856040517efa072b0000000000000000000000000000000000000000000000000000000081526004016126769291906148b0565b60405180910390fd5b80965050505050505095945050505050565b6000808260e001359050600083610100013590508082036126b65781925050506126c7565b6126c282488301612932565b925050505b919050565b6060366000838061016001906126e29190613d52565b915091508360208184030360405194506020810185016040528085528082602087013750505050919050565b600061271982612691565b6127228361294b565b029050919050565b60008073ffffffffffffffffffffffffffffffffffffffff16826101200160208101906127579190612dc7565b73ffffffffffffffffffffffffffffffffffffffff1614159050919050565b60008180604001906127889190613d52565b90501461292f5760007f000000000000000000000000000000000000000000000000000000000000000073ffffffffffffffffffffffffffffffffffffffff16634af63f028380604001906127dd9190613d52565b856020013560001b6040518463ffffffff1660e01b815260040161280393929190614b1e565b6020604051808303816000875af1158015612822573d6000803e3d6000fd5b505050506040513d601f19601f820116820180604052508101906128469190614b65565b9050600073ffffffffffffffffffffffffffffffffffffffff168173ffffffffffffffffffffffffffffffffffffffff16036128b7576040517f08c379a00000000000000000000000000000000000000000000000000000000081526004016128ae90614bde565b60405180910390fd5b6128c0826120e9565b73ffffffffffffffffffffffffffffffffffffffff168173ffffffffffffffffffffffffffffffffffffffff161461292d576040517f08c379a000000000000000000000000000000000000000000000000000000000815260040161292490614c70565b60405180910390fd5b505b50565b60008183106129415781612943565b825b905092915050565b6000806129578361272a565b612962576001612965565b60035b60ff1690508260c00135818460a001350284608001350101915050919050565b6040518060a001604052806000801916815260200160008152602001600060018111156129b5576129b46138b9565b5b815260200160008152602001600081525090565b6040518060a0016040528060006dffffffffffffffffffffffffffff16815260200160001515815260200160006dffffffffffffffffffffffffffff168152602001600063ffffffff168152602001600067ffffffffffffffff1681525090565b6000604051905090565b600080fd5b600080fd5b600063ffffffff82169050919050565b612a5781612a3e565b8114612a6257600080fd5b50565b600081359050612a7481612a4e565b92915050565b600060208284031215612a9057612a8f612a34565b5b6000612a9e84828501612a65565b91505092915050565b600073ffffffffffffffffffffffffffffffffffffffff82169050919050565b6000612ad282612aa7565b9050919050565b612ae281612ac7565b82525050565b6000602082019050612afd6000830184612ad9565b92915050565b6000819050919050565b612b1681612b03565b82525050565b6000602082019050612b316000830184612b0d565b92915050565b600080fd5b60006101808284031215612b5357612b52612b37565b5b81905092915050565b600060208284031215612b7257612b71612a34565b5b600082013567ffffffffffffffff811115612b9057612b8f612a39565b5b612b9c84828501612b3c565b91505092915050565b6000604082019050612bba6000830185612b0d565b612bc76020830184612b0d565b9392505050565b6000612bd982612aa7565b9050919050565b612be981612bce565b8114612bf457600080fd5b50565b600081359050612c0681612be0565b92915050565b612c1581612b03565b8114612c2057600080fd5b50565b600081359050612c3281612c0c565b92915050565b60008060408385031215612c4f57612c4e612a34565b5b6000612c5d85828601612bf7565b9250506020612c6e85828601612c23565b9150509250929050565b600080fd5b600080fd5b600080fd5b60008083601f840112612c9d57612c9c612c78565b5b8235905067ffffffffffffffff811115612cba57612cb9612c7d565b5b602083019150836020820283011115612cd657612cd5612c82565b5b9250929050565b600080600060408486031215612cf657612cf5612a34565b5b600084013567ffffffffffffffff811115612d1457612d13612a39565b5b612d2086828701612c87565b93509350506020612d3386828701612bf7565b9150509250925092565b612d4681612a3e565b82525050565b6000602082019050612d616000830184612d3d565b92915050565b6000819050919050565b612d7a81612d67565b82525050565b6000602082019050612d956000830184612d71565b92915050565b612da481612ac7565b8114612daf57600080fd5b50565b600081359050612dc181612d9b565b92915050565b600060208284031215612ddd57612ddc612a34565b5b6000612deb84828501612db2565b91505092915050565b60006dffffffffffffffffffffffffffff82169050919050565b612e1781612df4565b82525050565b60008115159050919050565b612e3281612e1d565b82525050565b612e4181612a3e565b82525050565b600067ffffffffffffffff82169050919050565b612e6481612e47565b82525050565b60a082016000820151612e806000850182612e0e565b506020820151612e936020850182612e29565b506040820151612ea66040850182612e0e565b506060820151612eb96060850182612e38565b506080820151612ecc6080850182612e5b565b50505050565b600060a082019050612ee76000830184612e6a565b92915050565b600060a08284031215612f0357612f02612b37565b5b81905092915050565b60008083601f840112612f2257612f21612c78565b5b8235905067ffffffffffffffff811115612f3f57612f3e612c7d565b5b602083019150836001820283011115612f5b57612f5a612c82565b5b9250929050565b60008060008060e08587031215612f7c57612f7b612a34565b5b600085013567ffffffffffffffff811115612f9a57612f99612a39565b5b612fa687828801612b3c565b9450506020612fb787828801612eed565b93505060c085013567ffffffffffffffff811115612fd857612fd7612a39565b5b612fe487828801612f0c565b925092505092959194509250565b60006020828403121561300857613007612a34565b5b600061301684828501612bf7565b91505092915050565b600080fd5b6000601f19601f8301169050919050565b7f4e487b7100000000000000000000000000000000000000000000000000000000600052604160045260246000fd5b61306d82613024565b810181811067ffffffffffffffff8211171561308c5761308b613035565b5b80604052505050565b600061309f612a2a565b90506130ab8282613064565b919050565b600067ffffffffffffffff8211156130cb576130ca613035565b5b6130d482613024565b9050602081019050919050565b82818337600083830152505050565b60006131036130fe846130b0565b613095565b90508281526020810184848401111561311f5761311e61301f565b5b61312a8482856130e1565b509392505050565b600082601f83011261314757613146612c78565b5b81356131578482602086016130f0565b91505092915050565b6000806040838503121561317757613176612a34565b5b600083013567ffffffffffffffff81111561319557613194612a39565b5b6131a185828601613132565b92505060206131b285828601612c23565b9150509250929050565b600081519050919050565b600082825260208201905092915050565b6000819050602082019050919050565b6131f181612b03565b82525050565b600061320383836131e8565b60208301905092915050565b6000602082019050919050565b6000613227826131bc565b61323181856131c7565b935061323c836131d8565b8060005b8381101561326d57815161325488826131f7565b975061325f8361320f565b925050600181019050613240565b5085935050505092915050565b60006020820190508181036000830152613294818461321c565b905092915050565b6132a581612df4565b82525050565b6132b481612e1d565b82525050565b6132c381612e47565b82525050565b600060a0820190506132de600083018861329c565b6132eb60208301876132ab565b6132f8604083018661329c565b6133056060830185612d3d565b61331260808301846132ba565b9695505050505050565b6000819050919050565b600061334161333c61333784612df4565b61331c565b612b03565b9050919050565b61335181613326565b82525050565b600060208201905061336c6000830184613348565b92915050565b600082825260208201905092915050565b7f756e7374616b652064656c617920746f6f206c6f770000000000000000000000600082015250565b60006133b9601583613372565b91506133c482613383565b602082019050919050565b600060208201905081810360008301526133e8816133ac565b9050919050565b7f63616e6e6f7420646563726561736520756e7374616b652074696d6500000000600082015250565b6000613425601c83613372565b9150613430826133ef565b602082019050919050565b6000602082019050818103600083015261345481613418565b9050919050565b7f4e487b7100000000000000000000000000000000000000000000000000000000600052601160045260246000fd5b600061349582612b03565b91506134a083612b03565b92508282019050808211156134b8576134b761345b565b5b92915050565b7f7374616b652076616c756520746f6f206c6f7700000000000000000000000000600082015250565b60006134f4601383613372565b91506134ff826134be565b602082019050919050565b60006020820190508181036000830152613523816134e7565b9050919050565b7f7374616b65206f766572666c6f77000000000000000000000000000000000000600082015250565b6000613560600e83613372565b915061356b8261352a565b602082019050919050565b6000602082019050818103600083015261358f81613553565b9050919050565b60006135b16135ac6135a784612a3e565b61331c565b612b03565b9050919050565b6135c181613596565b82525050565b60006040820190506135dc6000830185612b0d565b6135e960208301846135b8565b9392505050565b60006135fb82612b03565b915061360683612b03565b925082820390508181111561361e5761361d61345b565b5b92915050565b7f6d7573742062652063616c6c6564206f66662d636861696e207769746820667260008201527f6f6d3d7a65726f2d616464720000000000000000000000000000000000000000602082015250565b6000613680602c83613372565b915061368b82613624565b604082019050919050565b600060208201905081810360008301526136af81613673565b9050919050565b7f576974686472617720616d6f756e7420746f6f206c6172676500000000000000600082015250565b60006136ec601983613372565b91506136f7826136b6565b602082019050919050565b6000602082019050818103600083015261371b816136df565b9050919050565b600061373d61373861373384612aa7565b61331c565b612aa7565b9050919050565b600061374f82613722565b9050919050565b600061376182613744565b9050919050565b61377181613756565b82525050565b600060408201905061378c6000830185613768565b6137996020830184612b0d565b9392505050565b600081905092915050565b50565b60006137bb6000836137a0565b91506137c6826137ab565b600082019050919050565b60006137dc826137ae565b9150819050919050565b7f6661696c656420746f2077697468647261770000000000000000000000000000600082015250565b600061381c601283613372565b9150613827826137e6565b602082019050919050565b6000602082019050818103600083015261384b8161380f565b9050919050565b7f4e487b7100000000000000000000000000000000000000000000000000000000600052603260045260246000fd5b600080fd5b600080fd5b600080fd5b600082356001610180038336030381126138ad576138ac613881565b5b80830191505092915050565b7f4e487b7100000000000000000000000000000000000000000000000000000000600052602160045260246000fd5b60006138f76020840184612db2565b905092915050565b61390881612ac7565b82525050565b600061391d6020840184612c23565b905092915050565b600080fd5b600080fd5b600080fd5b600080833560016020038436030381126139515761395061392f565b5b83810192508235915060208301925067ffffffffffffffff82111561397957613978613925565b5b60018202360383131561398f5761398e61392a565b5b509250929050565b600082825260208201905092915050565b60006139b48385613997565b93506139c18385846130e1565b6139ca83613024565b840190509392505050565b600061018083016139e960008401846138e8565b6139f660008601826138ff565b50613a04602084018461390e565b613a1160208601826131e8565b50613a1f6040840184613934565b8583036040870152613a328382846139a8565b92505050613a436060840184613934565b8583036060870152613a568382846139a8565b92505050613a67608084018461390e565b613a7460808601826131e8565b50613a8260a084018461390e565b613a8f60a08601826131e8565b50613a9d60c084018461390e565b613aaa60c08601826131e8565b50613ab860e084018461390e565b613ac560e08601826131e8565b50613ad461010084018461390e565b613ae26101008601826131e8565b50613af16101208401846138e8565b613aff6101208601826138ff565b50613b0e610140840184613934565b858303610140870152613b228382846139a8565b92505050613b34610160840184613934565b858303610160870152613b488382846139a8565b925050508091505092915050565b613b5f81612d67565b82525050565b60028110613b7657613b756138b9565b5b50565b6000819050613b8782613b65565b919050565b6000613b9782613b79565b9050919050565b613ba781613b8c565b82525050565b60a082016000820151613bc36000850182613b56565b506020820151613bd660208501826131e8565b506040820151613be96040850182613b9e565b506060820151613bfc60608501826131e8565b506080820151613c0f60808501826131e8565b50505050565b600081519050919050565b600082825260208201905092915050565b60005b83811015613c4f578082015181840152602081019050613c34565b60008484015250505050565b6000613c6682613c15565b613c708185613c20565b9350613c80818560208601613c31565b613c8981613024565b840191505092915050565b600060e0820190508181036000830152613cae81866139d5565b9050613cbd6020830185613bad565b81810360c0830152613ccf8184613c5b565b9050949350505050565b600081519050613ce881612c0c565b92915050565b600060208284031215613d0457613d03612a34565b5b6000613d1284828501613cd9565b91505092915050565b6000606082019050613d306000830186612d71565b613d3d6020830185612ad9565b613d4a6040830184612b0d565b949350505050565b60008083356001602003843603038112613d6f57613d6e613881565b5b80840192508235915067ffffffffffffffff821115613d9157613d90613886565b5b602083019250600182023603831315613dad57613dac61388b565b5b509250929050565b6000613dc183856137a0565b9350613dce8385846130e1565b82840190509392505050565b6000613de7828486613db5565b91508190509392505050565b6000604082019050613e086000830185612b0d565b8181036020830152613e1a8184613c5b565b90509392505050565b600080fd5b613e3181612d67565b8114613e3c57600080fd5b50565b600081359050613e4e81613e28565b92915050565b60028110613e6157600080fd5b50565b600081359050613e7381613e54565b92915050565b600060a08284031215613e8f57613e8e613e23565b5b613e9960a0613095565b90506000613ea984828501613e3f565b6000830152506020613ebd84828501612c23565b6020830152506040613ed184828501613e64565b6040830152506060613ee584828501612c23565b6060830152506080613ef984828501612c23565b60808301525092915050565b600060a08284031215613f1b57613f1a612a34565b5b6000613f2984828501613e79565b91505092915050565b7f6e6f74207374616b656400000000000000000000000000000000000000000000600082015250565b6000613f68600a83613372565b9150613f7382613f32565b602082019050919050565b60006020820190508181036000830152613f9781613f5b565b9050919050565b7f616c726561647920756e7374616b696e67000000000000000000000000000000600082015250565b6000613fd4601183613372565b9150613fdf82613f9e565b602082019050919050565b6000602082019050818103600083015261400381613fc7565b9050919050565b600061401582612e47565b915061402083612e47565b9250828201905067ffffffffffffffff8111156140405761403f61345b565b5b92915050565b600061406161405c61405784612e47565b61331c565b612b03565b9050919050565b61407181614046565b82525050565b600060208201905061408c6000830184614068565b92915050565b7f4e6f207374616b6520746f207769746864726177000000000000000000000000600082015250565b60006140c8601483613372565b91506140d382614092565b602082019050919050565b600060208201905081810360008301526140f7816140bb565b9050919050565b7f6d7573742063616c6c20756e6c6f636b5374616b652829206669727374000000600082015250565b6000614134601d83613372565b915061413f826140fe565b602082019050919050565b6000602082019050818103600083015261416381614127565b9050919050565b7f5374616b65207769746864726177616c206973206e6f74206475650000000000600082015250565b60006141a0601b83613372565b91506141ab8261416a565b602082019050919050565b600060208201905081810360008301526141cf81614193565b9050919050565b7f6661696c656420746f207769746864726177207374616b650000000000000000600082015250565b600061420c601883613372565b9150614217826141d6565b602082019050919050565b6000602082019050818103600083015261423b816141ff565b9050919050565b60007fff0000000000000000000000000000000000000000000000000000000000000082169050919050565b6000819050919050565b61428961428482614242565b61426e565b82525050565b60008160601b9050919050565b60006142a78261428f565b9050919050565b60006142b98261429c565b9050919050565b6142d16142cc82612ac7565b6142ae565b82525050565b6000819050919050565b6142f26142ed82612b03565b6142d7565b82525050565b6000819050919050565b61431361430e82612d67565b6142f8565b82525050565b60006143258287614278565b60018201915061433582866142c0565b60148201915061434582856142e1565b6020820191506143558284614302565b60208201915081905095945050505050565b7f6465706f736974206f766572666c6f7700000000000000000000000000000000600082015250565b600061439d601083613372565b91506143a882614367565b602082019050919050565b600060208201905081810360008301526143cc81614390565b9050919050565b7f6761732076616c756573206f766572666c6f7700000000000000000000000000600082015250565b6000614409601383613372565b9150614414826143d3565b602082019050919050565b60006020820190508181036000830152614438816143fc565b9050919050565b7f55736564206d6f7265207468616e20766572696669636174696f6e4761730000600082015250565b6000614475601e83613372565b91506144808261443f565b602082019050919050565b60006060820190506144a06000830185612b0d565b6144ad6020830184612ad9565b81810360408301526144be81614468565b90509392505050565b600381106144d8576144d76138b9565b5b50565b60008190506144e9826144c7565b919050565b60006144f9826144db565b9050919050565b614509816144ee565b82525050565b60006060820190506145246000830186614500565b81810360208301526145368185613c5b565b90506145456040830184612b0d565b949350505050565b60008160e01c9050919050565b600060033d11156145795760046000803e61457660005161454d565b90505b90565b600060443d106146095761458e612a2a565b60043d036004823e80513d602482011167ffffffffffffffff821117156145b6575050614609565b808201805167ffffffffffffffff8111156145d45750505050614609565b80602083010160043d0385018111156145f1575050505050614609565b61460082602001850186613064565b82955050505050505b90565b600081519050919050565b60006146228261460c565b61462c8185613372565b935061463c818560208601613c31565b61464581613024565b840191505092915050565b60006060820190506146656000830186612b0d565b6146726020830185612ad9565b81810360408301526146848184614617565b9050949350505050565b7f706f73744f702072657665727400000000000000000000000000000000000000600082015250565b60006146c4600d83613372565b91506146cf8261468e565b602082019050919050565b60006060820190506146ef6000830185612b0d565b6146fc6020830184612ad9565b818103604083015261470d816146b7565b90509392505050565b7f70726566756e642062656c6f772061637475616c476173436f73740000000000600082015250565b600061474c601b83613372565b915061475782614716565b602082019050919050565b60006060820190506147776000830185612b0d565b6147846020830184612ad9565b81810360408301526147958161473f565b90509392505050565b60006080820190506147b36000830187612b0d565b6147c06020830186612b0d565b6147cd6040830185612b0d565b6147da60608301846132ab565b95945050505050565b7f696e76616c69642062656e656669636961727900000000000000000000000000600082015250565b6000614819601383613372565b9150614824826147e3565b602082019050919050565b600060208201905081810360008301526148488161480c565b9050919050565b6000606082019050818103600083015261486981866139d5565b90506148786020830185612d71565b6148856040830184612b0d565b949350505050565b600061489a600083613372565b91506148a5826137ab565b600082019050919050565b60006060820190506148c56000830185612b0d565b6148d26020830184612ad9565b81810360408301526148e38161488d565b90509392505050565b7f77616c6c6574206469646e2774207061792070726566756e6400000000000000600082015250565b6000614922601983613372565b915061492d826148ec565b602082019050919050565b600060608201905061494d6000830185612b0d565b61495a6020830184612ad9565b818103604083015261496b81614915565b90509392505050565b60006060820190506149896000830185612b0d565b6149966020830184612ad9565b81810360408301526149a781613f5b565b90509392505050565b7f7061796d6173746572206465706f73697420746f6f206c6f7700000000000000600082015250565b60006149e6601983613372565b91506149f1826149b0565b602082019050919050565b6000606082019050614a116000830185612b0d565b614a1e6020830184612ad9565b8181036040830152614a2f816149d9565b90509392505050565b6000614a4b614a46846130b0565b613095565b905082815260208101848484011115614a6757614a6661301f565b5b614a72848285613c31565b509392505050565b600082601f830112614a8f57614a8e612c78565b5b8151614a9f848260208601614a38565b91505092915050565b600060208284031215614abe57614abd612a34565b5b600082015167ffffffffffffffff811115614adc57614adb612a39565b5b614ae884828501614a7a565b91505092915050565b6000614afd8385613c20565b9350614b0a8385846130e1565b614b1383613024565b840190509392505050565b60006040820190508181036000830152614b39818587614af1565b9050614b486020830184612d71565b949350505050565b600081519050614b5f81612d9b565b92915050565b600060208284031215614b7b57614b7a612a34565b5b6000614b8984828501614b50565b91505092915050565b7f63726561746532206661696c6564000000000000000000000000000000000000600082015250565b6000614bc8600e83613372565b9150614bd382614b92565b602082019050919050565b60006020820190508181036000830152614bf781614bbb565b9050919050565b7f73656e64657220646f65736e2774206d6174636820637265617465322061646460008201527f7265737300000000000000000000000000000000000000000000000000000000602082015250565b6000614c5a602483613372565b9150614c6582614bfe565b604082019050919050565b60006020820190508181036000830152614c8981614c4d565b905091905056fea264697066735822122042340e80045f8ea6a5b8882fda0ec75fedb087a1e6bd3975539cc22579159db564736f6c63430008150033","opcodes":"PUSH1 0xE0 PUSH1 0x40 MSTORE CALLVALUE DUP1 ISZERO PUSH2 0x10 JUMPI PUSH1 0x0 DUP1 REVERT JUMPDEST POP CALLER PUSH20 0xFFFFFFFFFFFFFFFFFFFFFFFFFFFFFFFFFFFFFFFF AND PUSH1 0xC0 DUP2 PUSH20 0xFFFFFFFFFFFFFFFFFFFFFFFFFFFFFFFFFFFFFFFF AND DUP2 MSTORE POP POP PUSH1 0x80 MLOAD PUSH1 0xA0 MLOAD PUSH1 0xC0 MLOAD PUSH2 0x4CC6 PUSH2 0x90 PUSH1 0x0 CODECOPY PUSH1 0x0 DUP2 DUP2 PUSH2 0x90F ADD MSTORE DUP2 DUP2 PUSH2 0x183B ADD MSTORE PUSH2 0x2793 ADD MSTORE PUSH1 0x0 DUP2 DUP2 PUSH2 0x65F ADD MSTORE PUSH2 0x933 ADD MSTORE PUSH1 0x0 DUP2 DUP2 PUSH2 0x54F ADD MSTORE PUSH2 0xF6F ADD MSTORE PUSH2 0x4CC6 PUSH1 0x0 RETURN INVALID PUSH1 0x80 PUSH1 0x40 MSTORE PUSH1 0x4 CALLDATASIZE LT PUSH2 0x102 JUMPI PUSH1 0x0 CALLDATALOAD PUSH1 0xE0 SHR DUP1 PUSH4 0x5287CE12 GT PUSH2 0x95 JUMPI DUP1 PUSH4 0xBB9FE6BF GT PUSH2 0x64 JUMPI DUP1 PUSH4 0xBB9FE6BF EQ PUSH2 0x354 JUMPI DUP1 PUSH4 0xC23A5CEA EQ PUSH2 0x36B JUMPI DUP1 PUSH4 0xC31E4354 EQ PUSH2 0x394 JUMPI DUP1 PUSH4 0xEC8B5DBF EQ PUSH2 0x3D1 JUMPI DUP1 PUSH4 0xFC7E286D EQ PUSH2 0x40E JUMPI PUSH2 0x112 JUMP JUMPDEST DUP1 PUSH4 0x5287CE12 EQ PUSH2 0x281 JUMPI DUP1 PUSH4 0x70A08231 EQ PUSH2 0x2BE JUMPI DUP1 PUSH4 0x88799426 EQ PUSH2 0x2FB JUMPI DUP1 PUSH4 0xB760FAF9 EQ PUSH2 0x338 JUMPI PUSH2 0x112 JUMP JUMPDEST DUP1 PUSH4 0x205C2878 GT PUSH2 0xD1 JUMPI DUP1 PUSH4 0x205C2878 EQ PUSH2 0x1C7 JUMPI DUP1 PUSH4 0x2815C17B EQ PUSH2 0x1F0 JUMPI DUP1 PUSH4 0x390B9978 EQ PUSH2 0x219 JUMPI DUP1 PUSH4 0x4BAEAF8A EQ PUSH2 0x244 JUMPI PUSH2 0x112 JUMP JUMPDEST DUP1 PUSH4 0x396CB60 EQ PUSH2 0x117 JUMPI DUP1 PUSH4 0xBFB6847 EQ PUSH2 0x133 JUMPI DUP1 PUSH4 0x17C6A987 EQ PUSH2 0x15E JUMPI DUP1 PUSH4 0x1A1C1141 EQ PUSH2 0x189 JUMPI PUSH2 0x112 JUMP JUMPDEST CALLDATASIZE PUSH2 0x112 JUMPI PUSH2 0x110 CALLER PUSH2 0x44F JUMP JUMPDEST STOP JUMPDEST PUSH1 0x0 DUP1 REVERT JUMPDEST PUSH2 0x131 PUSH1 0x4 DUP1 CALLDATASIZE SUB DUP2 ADD SWAP1 PUSH2 0x12C SWAP2 SWAP1 PUSH2 0x2A7A JUMP JUMPDEST PUSH2 0x50B JUMP JUMPDEST STOP JUMPDEST CALLVALUE DUP1 ISZERO PUSH2 0x13F JUMPI PUSH1 0x0 DUP1 REVERT JUMPDEST POP PUSH2 0x148 PUSH2 0x90D JUMP JUMPDEST PUSH1 0x40 MLOAD PUSH2 0x155 SWAP2 SWAP1 PUSH2 0x2AE8 JUMP JUMPDEST PUSH1 0x40 MLOAD DUP1 SWAP2 SUB SWAP1 RETURN JUMPDEST CALLVALUE DUP1 ISZERO PUSH2 0x16A JUMPI PUSH1 0x0 DUP1 REVERT JUMPDEST POP PUSH2 0x173 PUSH2 0x931 JUMP JUMPDEST PUSH1 0x40 MLOAD PUSH2 0x180 SWAP2 SWAP1 PUSH2 0x2B1C JUMP JUMPDEST PUSH1 0x40 MLOAD DUP1 SWAP2 SUB SWAP1 RETURN JUMPDEST CALLVALUE DUP1 ISZERO PUSH2 0x195 JUMPI PUSH1 0x0 DUP1 REVERT JUMPDEST POP PUSH2 0x1B0 PUSH1 0x4 DUP1 CALLDATASIZE SUB DUP2 ADD SWAP1 PUSH2 0x1AB SWAP2 SWAP1 PUSH2 0x2B5C JUMP JUMPDEST PUSH2 0x955 JUMP JUMPDEST PUSH1 0x40 MLOAD PUSH2 0x1BE SWAP3 SWAP2 SWAP1 PUSH2 0x2BA5 JUMP JUMPDEST PUSH1 0x40 MLOAD DUP1 SWAP2 SUB SWAP1 RETURN JUMPDEST CALLVALUE DUP1 ISZERO PUSH2 0x1D3 JUMPI PUSH1 0x0 DUP1 REVERT JUMPDEST POP PUSH2 0x1EE PUSH1 0x4 DUP1 CALLDATASIZE SUB DUP2 ADD SWAP1 PUSH2 0x1E9 SWAP2 SWAP1 PUSH2 0x2C38 JUMP JUMPDEST PUSH2 0xA10 JUMP JUMPDEST STOP JUMPDEST CALLVALUE DUP1 ISZERO PUSH2 0x1FC JUMPI PUSH1 0x0 DUP1 REVERT JUMPDEST POP PUSH2 0x217 PUSH1 0x4 DUP1 CALLDATASIZE SUB DUP2 ADD SWAP1 PUSH2 0x212 SWAP2 SWAP1 PUSH2 0x2CDD JUMP JUMPDEST PUSH2 0xCFC JUMP JUMPDEST STOP JUMPDEST CALLVALUE DUP1 ISZERO PUSH2 0x225 JUMPI PUSH1 0x0 DUP1 REVERT JUMPDEST POP PUSH2 0x22E PUSH2 0xF6D JUMP JUMPDEST PUSH1 0x40 MLOAD PUSH2 0x23B SWAP2 SWAP1 PUSH2 0x2D4C JUMP JUMPDEST PUSH1 0x40 MLOAD DUP1 SWAP2 SUB SWAP1 RETURN JUMPDEST CALLVALUE DUP1 ISZERO PUSH2 0x250 JUMPI PUSH1 0x0 DUP1 REVERT JUMPDEST POP PUSH2 0x26B PUSH1 0x4 DUP1 CALLDATASIZE SUB DUP2 ADD SWAP1 PUSH2 0x266 SWAP2 SWAP1 PUSH2 0x2B5C JUMP JUMPDEST PUSH2 0xF91 JUMP JUMPDEST PUSH1 0x40 MLOAD PUSH2 0x278 SWAP2 SWAP1 PUSH2 0x2D80 JUMP JUMPDEST PUSH1 0x40 MLOAD DUP1 SWAP2 SUB SWAP1 RETURN JUMPDEST CALLVALUE DUP1 ISZERO PUSH2 0x28D JUMPI PUSH1 0x0 DUP1 REVERT JUMPDEST POP PUSH2 0x2A8 PUSH1 0x4 DUP1 CALLDATASIZE SUB DUP2 ADD SWAP1 PUSH2 0x2A3 SWAP2 SWAP1 PUSH2 0x2DC7 JUMP JUMPDEST PUSH2 0xFCD JUMP JUMPDEST PUSH1 0x40 MLOAD PUSH2 0x2B5 SWAP2 SWAP1 PUSH2 0x2ED2 JUMP JUMPDEST PUSH1 0x40 MLOAD DUP1 SWAP2 SUB SWAP1 RETURN JUMPDEST CALLVALUE DUP1 ISZERO PUSH2 0x2CA JUMPI PUSH1 0x0 DUP1 REVERT JUMPDEST POP PUSH2 0x2E5 PUSH1 0x4 DUP1 CALLDATASIZE SUB DUP2 ADD SWAP1 PUSH2 0x2E0 SWAP2 SWAP1 PUSH2 0x2DC7 JUMP JUMPDEST PUSH2 0x1120 JUMP JUMPDEST PUSH1 0x40 MLOAD PUSH2 0x2F2 SWAP2 SWAP1 PUSH2 0x2B1C JUMP JUMPDEST PUSH1 0x40 MLOAD DUP1 SWAP2 SUB SWAP1 RETURN JUMPDEST CALLVALUE DUP1 ISZERO PUSH2 0x307 JUMPI PUSH1 0x0 DUP1 REVERT JUMPDEST POP PUSH2 0x322 PUSH1 0x4 DUP1 CALLDATASIZE SUB DUP2 ADD SWAP1 PUSH2 0x31D SWAP2 SWAP1 PUSH2 0x2F62 JUMP JUMPDEST PUSH2 0x1195 JUMP JUMPDEST PUSH1 0x40 MLOAD PUSH2 0x32F SWAP2 SWAP1 PUSH2 0x2B1C JUMP JUMPDEST PUSH1 0x40 MLOAD DUP1 SWAP2 SUB SWAP1 RETURN JUMPDEST PUSH2 0x352 PUSH1 0x4 DUP1 CALLDATASIZE SUB DUP2 ADD SWAP1 PUSH2 0x34D SWAP2 SWAP1 PUSH2 0x2DC7 JUMP JUMPDEST PUSH2 0x44F JUMP JUMPDEST STOP JUMPDEST CALLVALUE DUP1 ISZERO PUSH2 0x360 JUMPI PUSH1 0x0 DUP1 REVERT JUMPDEST POP PUSH2 0x369 PUSH2 0x1371 JUMP JUMPDEST STOP JUMPDEST CALLVALUE DUP1 ISZERO PUSH2 0x377 JUMPI PUSH1 0x0 DUP1 REVERT JUMPDEST POP PUSH2 0x392 PUSH1 0x4 DUP1 CALLDATASIZE SUB DUP2 ADD SWAP1 PUSH2 0x38D SWAP2 SWAP1 PUSH2 0x2FF2 JUMP JUMPDEST PUSH2 0x1525 JUMP JUMPDEST STOP JUMPDEST CALLVALUE DUP1 ISZERO PUSH2 0x3A0 JUMPI PUSH1 0x0 DUP1 REVERT JUMPDEST POP PUSH2 0x3BB PUSH1 0x4 DUP1 CALLDATASIZE SUB DUP2 ADD SWAP1 PUSH2 0x3B6 SWAP2 SWAP1 PUSH2 0x3160 JUMP JUMPDEST PUSH2 0x1831 JUMP JUMPDEST PUSH1 0x40 MLOAD PUSH2 0x3C8 SWAP2 SWAP1 PUSH2 0x2AE8 JUMP JUMPDEST PUSH1 0x40 MLOAD DUP1 SWAP2 SUB SWAP1 RETURN JUMPDEST CALLVALUE DUP1 ISZERO PUSH2 0x3DD JUMPI PUSH1 0x0 DUP1 REVERT JUMPDEST POP PUSH2 0x3F8 PUSH1 0x4 DUP1 CALLDATASIZE SUB DUP2 ADD SWAP1 PUSH2 0x3F3 SWAP2 SWAP1 PUSH2 0x2DC7 JUMP JUMPDEST PUSH2 0x189B JUMP JUMPDEST PUSH1 0x40 MLOAD PUSH2 0x405 SWAP2 SWAP1 PUSH2 0x327A JUMP JUMPDEST PUSH1 0x40 MLOAD DUP1 SWAP2 SUB SWAP1 RETURN JUMPDEST CALLVALUE DUP1 ISZERO PUSH2 0x41A JUMPI PUSH1 0x0 DUP1 REVERT JUMPDEST POP PUSH2 0x435 PUSH1 0x4 DUP1 CALLDATASIZE SUB DUP2 ADD SWAP1 PUSH2 0x430 SWAP2 SWAP1 PUSH2 0x2DC7 JUMP JUMPDEST PUSH2 0x1957 JUMP JUMPDEST PUSH1 0x40 MLOAD PUSH2 0x446 SWAP6 SWAP5 SWAP4 SWAP3 SWAP2 SWAP1 PUSH2 0x32C9 JUMP JUMPDEST PUSH1 0x40 MLOAD DUP1 SWAP2 SUB SWAP1 RETURN JUMPDEST PUSH2 0x459 DUP2 CALLVALUE PUSH2 0x19F2 JUMP JUMPDEST PUSH1 0x0 DUP1 PUSH1 0x0 DUP4 PUSH20 0xFFFFFFFFFFFFFFFFFFFFFFFFFFFFFFFFFFFFFFFF AND PUSH20 0xFFFFFFFFFFFFFFFFFFFFFFFFFFFFFFFFFFFFFFFF AND DUP2 MSTORE PUSH1 0x20 ADD SWAP1 DUP2 MSTORE PUSH1 0x20 ADD PUSH1 0x0 KECCAK256 SWAP1 POP DUP2 PUSH20 0xFFFFFFFFFFFFFFFFFFFFFFFFFFFFFFFFFFFFFFFF AND PUSH32 0x2DA466A7B24304F47E87FA2E1E5A81B9831CE54FEC19055CE277CA2F39BA42C4 DUP3 PUSH1 0x0 ADD PUSH1 0x0 SWAP1 SLOAD SWAP1 PUSH2 0x100 EXP SWAP1 DIV PUSH14 0xFFFFFFFFFFFFFFFFFFFFFFFFFFFF AND PUSH1 0x40 MLOAD PUSH2 0x4FF SWAP2 SWAP1 PUSH2 0x3357 JUMP JUMPDEST PUSH1 0x40 MLOAD DUP1 SWAP2 SUB SWAP1 LOG2 POP POP JUMP JUMPDEST PUSH1 0x0 DUP1 PUSH1 0x0 CALLER PUSH20 0xFFFFFFFFFFFFFFFFFFFFFFFFFFFFFFFFFFFFFFFF AND PUSH20 0xFFFFFFFFFFFFFFFFFFFFFFFFFFFFFFFFFFFFFFFF AND DUP2 MSTORE PUSH1 0x20 ADD SWAP1 DUP2 MSTORE PUSH1 0x20 ADD PUSH1 0x0 KECCAK256 SWAP1 POP PUSH32 0x0 PUSH4 0xFFFFFFFF AND DUP3 PUSH4 0xFFFFFFFF AND LT ISZERO PUSH2 0x5BC JUMPI PUSH1 0x40 MLOAD PUSH32 0x8C379A000000000000000000000000000000000000000000000000000000000 DUP2 MSTORE PUSH1 0x4 ADD PUSH2 0x5B3 SWAP1 PUSH2 0x33CF JUMP JUMPDEST PUSH1 0x40 MLOAD DUP1 SWAP2 SUB SWAP1 REVERT JUMPDEST DUP1 PUSH1 0x1 ADD PUSH1 0x0 SWAP1 SLOAD SWAP1 PUSH2 0x100 EXP SWAP1 DIV PUSH4 0xFFFFFFFF AND PUSH4 0xFFFFFFFF AND DUP3 PUSH4 0xFFFFFFFF AND LT ISZERO PUSH2 0x61F JUMPI PUSH1 0x40 MLOAD PUSH32 0x8C379A000000000000000000000000000000000000000000000000000000000 DUP2 MSTORE PUSH1 0x4 ADD PUSH2 0x616 SWAP1 PUSH2 0x343B JUMP JUMPDEST PUSH1 0x40 MLOAD DUP1 SWAP2 SUB SWAP1 REVERT JUMPDEST PUSH1 0x0 CALLVALUE DUP3 PUSH1 0x0 ADD PUSH1 0xF SWAP1 SLOAD SWAP1 PUSH2 0x100 EXP SWAP1 DIV PUSH14 0xFFFFFFFFFFFFFFFFFFFFFFFFFFFF AND PUSH14 0xFFFFFFFFFFFFFFFFFFFFFFFFFFFF AND PUSH2 0x65B SWAP2 SWAP1 PUSH2 0x348A JUMP JUMPDEST SWAP1 POP PUSH32 0x0 DUP2 LT ISZERO PUSH2 0x6C0 JUMPI PUSH1 0x40 MLOAD PUSH32 0x8C379A000000000000000000000000000000000000000000000000000000000 DUP2 MSTORE PUSH1 0x4 ADD PUSH2 0x6B7 SWAP1 PUSH2 0x350A JUMP JUMPDEST PUSH1 0x40 MLOAD DUP1 SWAP2 SUB SWAP1 REVERT JUMPDEST PUSH14 0xFFFFFFFFFFFFFFFFFFFFFFFFFFFF DUP1 AND DUP2 LT PUSH2 0x712 JUMPI PUSH1 0x40 MLOAD PUSH32 0x8C379A000000000000000000000000000000000000000000000000000000000 DUP2 MSTORE PUSH1 0x4 ADD PUSH2 0x709 SWAP1 PUSH2 0x3576 JUMP JUMPDEST PUSH1 0x40 MLOAD DUP1 SWAP2 SUB SWAP1 REVERT JUMPDEST PUSH1 0x40 MLOAD DUP1 PUSH1 0xA0 ADD PUSH1 0x40 MSTORE DUP1 DUP4 PUSH1 0x0 ADD PUSH1 0x0 SWAP1 SLOAD SWAP1 PUSH2 0x100 EXP SWAP1 DIV PUSH14 0xFFFFFFFFFFFFFFFFFFFFFFFFFFFF AND PUSH14 0xFFFFFFFFFFFFFFFFFFFFFFFFFFFF AND DUP2 MSTORE PUSH1 0x20 ADD PUSH1 0x1 ISZERO ISZERO DUP2 MSTORE PUSH1 0x20 ADD DUP3 PUSH14 0xFFFFFFFFFFFFFFFFFFFFFFFFFFFF AND DUP2 MSTORE PUSH1 0x20 ADD DUP5 PUSH4 0xFFFFFFFF AND DUP2 MSTORE PUSH1 0x20 ADD PUSH1 0x0 PUSH8 0xFFFFFFFFFFFFFFFF AND DUP2 MSTORE POP PUSH1 0x0 DUP1 CALLER PUSH20 0xFFFFFFFFFFFFFFFFFFFFFFFFFFFFFFFFFFFFFFFF AND PUSH20 0xFFFFFFFFFFFFFFFFFFFFFFFFFFFFFFFFFFFFFFFF AND DUP2 MSTORE PUSH1 0x20 ADD SWAP1 DUP2 MSTORE PUSH1 0x20 ADD PUSH1 0x0 KECCAK256 PUSH1 0x0 DUP3 ADD MLOAD DUP2 PUSH1 0x0 ADD PUSH1 0x0 PUSH2 0x100 EXP DUP2 SLOAD DUP2 PUSH14 0xFFFFFFFFFFFFFFFFFFFFFFFFFFFF MUL NOT AND SWAP1 DUP4 PUSH14 0xFFFFFFFFFFFFFFFFFFFFFFFFFFFF AND MUL OR SWAP1 SSTORE POP PUSH1 0x20 DUP3 ADD MLOAD DUP2 PUSH1 0x0 ADD PUSH1 0xE PUSH2 0x100 EXP DUP2 SLOAD DUP2 PUSH1 0xFF MUL NOT AND SWAP1 DUP4 ISZERO ISZERO MUL OR SWAP1 SSTORE POP PUSH1 0x40 DUP3 ADD MLOAD DUP2 PUSH1 0x0 ADD PUSH1 0xF PUSH2 0x100 EXP DUP2 SLOAD DUP2 PUSH14 0xFFFFFFFFFFFFFFFFFFFFFFFFFFFF MUL NOT AND SWAP1 DUP4 PUSH14 0xFFFFFFFFFFFFFFFFFFFFFFFFFFFF AND MUL OR SWAP1 SSTORE POP PUSH1 0x60 DUP3 ADD MLOAD DUP2 PUSH1 0x1 ADD PUSH1 0x0 PUSH2 0x100 EXP DUP2 SLOAD DUP2 PUSH4 0xFFFFFFFF MUL NOT AND SWAP1 DUP4 PUSH4 0xFFFFFFFF AND MUL OR SWAP1 SSTORE POP PUSH1 0x80 DUP3 ADD MLOAD DUP2 PUSH1 0x1 ADD PUSH1 0x4 PUSH2 0x100 EXP DUP2 SLOAD DUP2 PUSH8 0xFFFFFFFFFFFFFFFF MUL NOT AND SWAP1 DUP4 PUSH8 0xFFFFFFFFFFFFFFFF AND MUL OR SWAP1 SSTORE POP SWAP1 POP POP CALLER PUSH20 0xFFFFFFFFFFFFFFFFFFFFFFFFFFFFFFFFFFFFFFFF AND PUSH32 0xA5AE833D0BB1DCD632D98A8B70973E8516812898E19BF27B70071EBC8DC52C01 DUP3 DUP6 PUSH1 0x40 MLOAD PUSH2 0x900 SWAP3 SWAP2 SWAP1 PUSH2 0x35C7 JUMP JUMPDEST PUSH1 0x40 MLOAD DUP1 SWAP2 SUB SWAP1 LOG2 POP POP POP JUMP JUMPDEST PUSH32 0x0 DUP2 JUMP JUMPDEST PUSH32 0x0 DUP2 JUMP JUMPDEST PUSH1 0x0 DUP1 PUSH1 0x0 GAS SWAP1 POP PUSH1 0x0 PUSH2 0x968 DUP6 PUSH2 0xF91 JUMP JUMPDEST SWAP1 POP PUSH2 0x976 PUSH1 0x0 DUP7 DUP4 PUSH2 0x1B02 JUMP JUMPDEST SWAP1 POP POP DUP1 SWAP4 POP POP DUP5 PUSH1 0xC0 ADD CALLDATALOAD GAS DUP4 PUSH2 0x98E SWAP2 SWAP1 PUSH2 0x35F0 JUMP JUMPDEST PUSH2 0x998 SWAP2 SWAP1 PUSH2 0x348A JUMP JUMPDEST SWAP4 POP PUSH1 0x0 PUSH20 0xFFFFFFFFFFFFFFFFFFFFFFFFFFFFFFFFFFFFFFFF AND CALLER PUSH20 0xFFFFFFFFFFFFFFFFFFFFFFFFFFFFFFFFFFFFFFFF AND EQ PUSH2 0xA09 JUMPI PUSH1 0x40 MLOAD PUSH32 0x8C379A000000000000000000000000000000000000000000000000000000000 DUP2 MSTORE PUSH1 0x4 ADD PUSH2 0xA00 SWAP1 PUSH2 0x3696 JUMP JUMPDEST PUSH1 0x40 MLOAD DUP1 SWAP2 SUB SWAP1 REVERT JUMPDEST POP POP SWAP2 POP SWAP2 JUMP JUMPDEST PUSH1 0x0 DUP1 PUSH1 0x0 CALLER PUSH20 0xFFFFFFFFFFFFFFFFFFFFFFFFFFFFFFFFFFFFFFFF AND PUSH20 0xFFFFFFFFFFFFFFFFFFFFFFFFFFFFFFFFFFFFFFFF AND DUP2 MSTORE PUSH1 0x20 ADD SWAP1 DUP2 MSTORE PUSH1 0x20 ADD PUSH1 0x0 KECCAK256 PUSH1 0x40 MLOAD DUP1 PUSH1 0xA0 ADD PUSH1 0x40 MSTORE SWAP1 DUP2 PUSH1 0x0 DUP3 ADD PUSH1 0x0 SWAP1 SLOAD SWAP1 PUSH2 0x100 EXP SWAP1 DIV PUSH14 0xFFFFFFFFFFFFFFFFFFFFFFFFFFFF AND PUSH14 0xFFFFFFFFFFFFFFFFFFFFFFFFFFFF AND PUSH14 0xFFFFFFFFFFFFFFFFFFFFFFFFFFFF AND DUP2 MSTORE PUSH1 0x20 ADD PUSH1 0x0 DUP3 ADD PUSH1 0xE SWAP1 SLOAD SWAP1 PUSH2 0x100 EXP SWAP1 DIV PUSH1 0xFF AND ISZERO ISZERO ISZERO ISZERO DUP2 MSTORE PUSH1 0x20 ADD PUSH1 0x0 DUP3 ADD PUSH1 0xF SWAP1 SLOAD SWAP1 PUSH2 0x100 EXP SWAP1 DIV PUSH14 0xFFFFFFFFFFFFFFFFFFFFFFFFFFFF AND PUSH14 0xFFFFFFFFFFFFFFFFFFFFFFFFFFFF AND PUSH14 0xFFFFFFFFFFFFFFFFFFFFFFFFFFFF AND DUP2 MSTORE PUSH1 0x20 ADD PUSH1 0x1 DUP3 ADD PUSH1 0x0 SWAP1 SLOAD SWAP1 PUSH2 0x100 EXP SWAP1 DIV PUSH4 0xFFFFFFFF AND PUSH4 0xFFFFFFFF AND PUSH4 0xFFFFFFFF AND DUP2 MSTORE PUSH1 0x20 ADD PUSH1 0x1 DUP3 ADD PUSH1 0x4 SWAP1 SLOAD SWAP1 PUSH2 0x100 EXP SWAP1 DIV PUSH8 0xFFFFFFFFFFFFFFFF AND PUSH8 0xFFFFFFFFFFFFFFFF AND PUSH8 0xFFFFFFFFFFFFFFFF AND DUP2 MSTORE POP POP SWAP1 POP DUP1 PUSH1 0x0 ADD MLOAD PUSH14 0xFFFFFFFFFFFFFFFFFFFFFFFFFFFF AND DUP3 GT ISZERO PUSH2 0xBAF JUMPI PUSH1 0x40 MLOAD PUSH32 0x8C379A000000000000000000000000000000000000000000000000000000000 DUP2 MSTORE PUSH1 0x4 ADD PUSH2 0xBA6 SWAP1 PUSH2 0x3702 JUMP JUMPDEST PUSH1 0x40 MLOAD DUP1 SWAP2 SUB SWAP1 REVERT JUMPDEST DUP2 DUP2 PUSH1 0x0 ADD MLOAD PUSH14 0xFFFFFFFFFFFFFFFFFFFFFFFFFFFF AND PUSH2 0xBCF SWAP2 SWAP1 PUSH2 0x35F0 JUMP JUMPDEST DUP2 PUSH1 0x0 ADD SWAP1 PUSH14 0xFFFFFFFFFFFFFFFFFFFFFFFFFFFF AND SWAP1 DUP2 PUSH14 0xFFFFFFFFFFFFFFFFFFFFFFFFFFFF AND DUP2 MSTORE POP POP CALLER PUSH20 0xFFFFFFFFFFFFFFFFFFFFFFFFFFFFFFFFFFFFFFFF AND PUSH32 0xD1C19FBCD4551A5EDFB66D43D2E337C04837AFDA3482B42BDF569A8FCCDAE5FB DUP5 DUP5 PUSH1 0x40 MLOAD PUSH2 0xC42 SWAP3 SWAP2 SWAP1 PUSH2 0x3777 JUMP JUMPDEST PUSH1 0x40 MLOAD DUP1 SWAP2 SUB SWAP1 LOG2 PUSH1 0x0 DUP4 PUSH20 0xFFFFFFFFFFFFFFFFFFFFFFFFFFFFFFFFFFFFFFFF AND DUP4 PUSH1 0x40 MLOAD PUSH2 0xC70 SWAP1 PUSH2 0x37D1 JUMP JUMPDEST PUSH1 0x0 PUSH1 0x40 MLOAD DUP1 DUP4 SUB DUP2 DUP6 DUP8 GAS CALL SWAP3 POP POP POP RETURNDATASIZE DUP1 PUSH1 0x0 DUP2 EQ PUSH2 0xCAD JUMPI PUSH1 0x40 MLOAD SWAP2 POP PUSH1 0x1F NOT PUSH1 0x3F RETURNDATASIZE ADD AND DUP3 ADD PUSH1 0x40 MSTORE RETURNDATASIZE DUP3 MSTORE RETURNDATASIZE PUSH1 0x0 PUSH1 0x20 DUP5 ADD RETURNDATACOPY PUSH2 0xCB2 JUMP JUMPDEST PUSH1 0x60 SWAP2 POP JUMPDEST POP POP SWAP1 POP DUP1 PUSH2 0xCF6 JUMPI PUSH1 0x40 MLOAD PUSH32 0x8C379A000000000000000000000000000000000000000000000000000000000 DUP2 MSTORE PUSH1 0x4 ADD PUSH2 0xCED SWAP1 PUSH2 0x3832 JUMP JUMPDEST PUSH1 0x40 MLOAD DUP1 SWAP2 SUB SWAP1 REVERT JUMPDEST POP POP POP POP JUMP JUMPDEST PUSH1 0x0 DUP4 DUP4 SWAP1 POP SWAP1 POP PUSH1 0x0 DUP2 PUSH8 0xFFFFFFFFFFFFFFFF DUP2 GT ISZERO PUSH2 0xD20 JUMPI PUSH2 0xD1F PUSH2 0x3035 JUMP JUMPDEST JUMPDEST PUSH1 0x40 MLOAD SWAP1 DUP1 DUP3 MSTORE DUP1 PUSH1 0x20 MUL PUSH1 0x20 ADD DUP3 ADD PUSH1 0x40 MSTORE DUP1 ISZERO PUSH2 0xD59 JUMPI DUP2 PUSH1 0x20 ADD JUMPDEST PUSH2 0xD46 PUSH2 0x2985 JUMP JUMPDEST DUP2 MSTORE PUSH1 0x20 ADD SWAP1 PUSH1 0x1 SWAP1 SUB SWAP1 DUP2 PUSH2 0xD3E JUMPI SWAP1 POP JUMPDEST POP SWAP1 POP PUSH1 0x0 JUMPDEST DUP3 DUP2 LT ISZERO PUSH2 0xE34 JUMPI PUSH1 0x0 GAS SWAP1 POP CALLDATASIZE DUP8 DUP8 DUP5 DUP2 DUP2 LT PUSH2 0xD80 JUMPI PUSH2 0xD7F PUSH2 0x3852 JUMP JUMPDEST JUMPDEST SWAP1 POP PUSH1 0x20 MUL DUP2 ADD SWAP1 PUSH2 0xD92 SWAP2 SWAP1 PUSH2 0x3890 JUMP JUMPDEST SWAP1 POP PUSH1 0x60 PUSH1 0x0 DUP1 PUSH2 0xDA2 DUP5 PUSH2 0xF91 JUMP JUMPDEST SWAP1 POP PUSH1 0x0 DUP1 PUSH2 0xDB2 DUP9 DUP8 DUP6 PUSH2 0x1B02 JUMP JUMPDEST DUP1 SWAP8 POP DUP2 SWAP4 POP DUP3 SWAP5 POP POP POP POP DUP5 SWAP4 POP PUSH1 0x40 MLOAD DUP1 PUSH1 0xA0 ADD PUSH1 0x40 MSTORE DUP1 DUP5 DUP2 MSTORE PUSH1 0x20 ADD DUP4 DUP2 MSTORE PUSH1 0x20 ADD DUP3 PUSH1 0x1 DUP2 GT ISZERO PUSH2 0xDEB JUMPI PUSH2 0xDEA PUSH2 0x38B9 JUMP JUMPDEST JUMPDEST DUP2 MSTORE PUSH1 0x20 ADD DUP6 DUP2 MSTORE PUSH1 0x20 ADD DUP8 PUSH1 0xC0 ADD CALLDATALOAD GAS DUP11 SUB ADD DUP2 MSTORE POP DUP10 DUP10 DUP2 MLOAD DUP2 LT PUSH2 0xE15 JUMPI PUSH2 0xE14 PUSH2 0x3852 JUMP JUMPDEST JUMPDEST PUSH1 0x20 MUL PUSH1 0x20 ADD ADD DUP2 SWAP1 MSTORE POP POP POP POP POP POP POP POP DUP1 DUP1 PUSH1 0x1 ADD SWAP2 POP POP PUSH2 0xD5F JUMP JUMPDEST POP PUSH1 0x0 DUP1 JUMPDEST DUP7 DUP7 SWAP1 POP DUP2 LT ISZERO PUSH2 0xF5A JUMPI PUSH1 0x0 GAS SWAP1 POP CALLDATASIZE DUP9 DUP9 DUP5 DUP2 DUP2 LT PUSH2 0xE5D JUMPI PUSH2 0xE5C PUSH2 0x3852 JUMP JUMPDEST JUMPDEST SWAP1 POP PUSH1 0x20 MUL DUP2 ADD SWAP1 PUSH2 0xE6F SWAP2 SWAP1 PUSH2 0x3890 JUMP JUMPDEST SWAP1 POP PUSH1 0x0 DUP6 DUP5 DUP2 MLOAD DUP2 LT PUSH2 0xE86 JUMPI PUSH2 0xE85 PUSH2 0x3852 JUMP JUMPDEST JUMPDEST PUSH1 0x20 MUL PUSH1 0x20 ADD ADD MLOAD SWAP1 POP PUSH1 0x0 DUP2 PUSH1 0x60 ADD MLOAD SWAP1 POP PUSH1 0x60 DUP2 SWAP1 POP ADDRESS PUSH20 0xFFFFFFFFFFFFFFFFFFFFFFFFFFFFFFFFFFFFFFFF AND PUSH4 0x88799426 DUP6 DUP6 DUP5 PUSH1 0x40 MLOAD DUP5 PUSH4 0xFFFFFFFF AND PUSH1 0xE0 SHL DUP2 MSTORE PUSH1 0x4 ADD PUSH2 0xEDB SWAP4 SWAP3 SWAP2 SWAP1 PUSH2 0x3C94 JUMP JUMPDEST PUSH1 0x20 PUSH1 0x40 MLOAD DUP1 DUP4 SUB DUP2 PUSH1 0x0 DUP8 GAS CALL SWAP3 POP POP POP DUP1 ISZERO PUSH2 0xF17 JUMPI POP PUSH1 0x40 MLOAD RETURNDATASIZE PUSH1 0x1F NOT PUSH1 0x1F DUP3 ADD AND DUP3 ADD DUP1 PUSH1 0x40 MSTORE POP DUP2 ADD SWAP1 PUSH2 0xF14 SWAP2 SWAP1 PUSH2 0x3CEE JUMP JUMPDEST PUSH1 0x1 JUMPDEST PUSH2 0xF41 JUMPI PUSH1 0x0 DUP4 PUSH1 0x80 ADD MLOAD GAS DUP8 SUB ADD SWAP1 POP PUSH2 0xF37 DUP8 PUSH1 0x2 DUP8 DUP8 DUP7 DUP7 PUSH2 0x1C6E JUMP JUMPDEST DUP9 ADD SWAP8 POP POP PUSH2 0xF48 JUMP JUMPDEST DUP1 DUP9 ADD SWAP8 POP POP JUMPDEST POP POP POP POP POP DUP1 DUP1 PUSH1 0x1 ADD SWAP2 POP POP PUSH2 0xE39 JUMP JUMPDEST POP PUSH2 0xF65 DUP5 DUP3 PUSH2 0x1FE6 JUMP JUMPDEST POP POP POP POP POP POP JUMP JUMPDEST PUSH32 0x0 DUP2 JUMP JUMPDEST PUSH1 0x0 PUSH2 0xF9C DUP3 PUSH2 0x20D0 JUMP JUMPDEST ADDRESS CHAINID PUSH1 0x40 MLOAD PUSH1 0x20 ADD PUSH2 0xFB0 SWAP4 SWAP3 SWAP2 SWAP1 PUSH2 0x3D1B JUMP JUMPDEST PUSH1 0x40 MLOAD PUSH1 0x20 DUP2 DUP4 SUB SUB DUP2 MSTORE SWAP1 PUSH1 0x40 MSTORE DUP1 MLOAD SWAP1 PUSH1 0x20 ADD KECCAK256 SWAP1 POP SWAP2 SWAP1 POP JUMP JUMPDEST PUSH2 0xFD5 PUSH2 0x29C9 JUMP JUMPDEST PUSH1 0x0 DUP1 DUP4 PUSH20 0xFFFFFFFFFFFFFFFFFFFFFFFFFFFFFFFFFFFFFFFF AND PUSH20 0xFFFFFFFFFFFFFFFFFFFFFFFFFFFFFFFFFFFFFFFF AND DUP2 MSTORE PUSH1 0x20 ADD SWAP1 DUP2 MSTORE PUSH1 0x20 ADD PUSH1 0x0 KECCAK256 PUSH1 0x40 MLOAD DUP1 PUSH1 0xA0 ADD PUSH1 0x40 MSTORE SWAP1 DUP2 PUSH1 0x0 DUP3 ADD PUSH1 0x0 SWAP1 SLOAD SWAP1 PUSH2 0x100 EXP SWAP1 DIV PUSH14 0xFFFFFFFFFFFFFFFFFFFFFFFFFFFF AND PUSH14 0xFFFFFFFFFFFFFFFFFFFFFFFFFFFF AND PUSH14 0xFFFFFFFFFFFFFFFFFFFFFFFFFFFF AND DUP2 MSTORE PUSH1 0x20 ADD PUSH1 0x0 DUP3 ADD PUSH1 0xE SWAP1 SLOAD SWAP1 PUSH2 0x100 EXP SWAP1 DIV PUSH1 0xFF AND ISZERO ISZERO ISZERO ISZERO DUP2 MSTORE PUSH1 0x20 ADD PUSH1 0x0 DUP3 ADD PUSH1 0xF SWAP1 SLOAD SWAP1 PUSH2 0x100 EXP SWAP1 DIV PUSH14 0xFFFFFFFFFFFFFFFFFFFFFFFFFFFF AND PUSH14 0xFFFFFFFFFFFFFFFFFFFFFFFFFFFF AND PUSH14 0xFFFFFFFFFFFFFFFFFFFFFFFFFFFF AND DUP2 MSTORE PUSH1 0x20 ADD PUSH1 0x1 DUP3 ADD PUSH1 0x0 SWAP1 SLOAD SWAP1 PUSH2 0x100 EXP SWAP1 DIV PUSH4 0xFFFFFFFF AND PUSH4 0xFFFFFFFF AND PUSH4 0xFFFFFFFF AND DUP2 MSTORE PUSH1 0x20 ADD PUSH1 0x1 DUP3 ADD PUSH1 0x4 SWAP1 SLOAD SWAP1 PUSH2 0x100 EXP SWAP1 DIV PUSH8 0xFFFFFFFFFFFFFFFF AND PUSH8 0xFFFFFFFFFFFFFFFF AND PUSH8 0xFFFFFFFFFFFFFFFF AND DUP2 MSTORE POP POP SWAP1 POP SWAP2 SWAP1 POP JUMP JUMPDEST PUSH1 0x0 DUP1 PUSH1 0x0 DUP4 PUSH20 0xFFFFFFFFFFFFFFFFFFFFFFFFFFFFFFFFFFFFFFFF AND PUSH20 0xFFFFFFFFFFFFFFFFFFFFFFFFFFFFFFFFFFFFFFFF AND DUP2 MSTORE PUSH1 0x20 ADD SWAP1 DUP2 MSTORE PUSH1 0x20 ADD PUSH1 0x0 KECCAK256 PUSH1 0x0 ADD PUSH1 0x0 SWAP1 SLOAD SWAP1 PUSH2 0x100 EXP SWAP1 DIV PUSH14 0xFFFFFFFFFFFFFFFFFFFFFFFFFFFF AND PUSH14 0xFFFFFFFFFFFFFFFFFFFFFFFFFFFF AND SWAP1 POP SWAP2 SWAP1 POP JUMP JUMPDEST PUSH1 0x0 DUP1 GAS SWAP1 POP ADDRESS PUSH20 0xFFFFFFFFFFFFFFFFFFFFFFFFFFFFFFFFFFFFFFFF AND CALLER PUSH20 0xFFFFFFFFFFFFFFFFFFFFFFFFFFFFFFFFFFFFFFFF AND EQ PUSH2 0x11D3 JUMPI PUSH1 0x0 DUP1 REVERT JUMPDEST PUSH1 0x0 DUP1 DUP8 DUP1 PUSH1 0x60 ADD SWAP1 PUSH2 0x11E6 SWAP2 SWAP1 PUSH2 0x3D52 JUMP JUMPDEST SWAP1 POP GT ISZERO PUSH2 0x12F4 JUMPI PUSH1 0x0 DUP1 PUSH2 0x11FA DUP10 PUSH2 0x20E9 JUMP JUMPDEST PUSH20 0xFFFFFFFFFFFFFFFFFFFFFFFFFFFFFFFFFFFFFFFF AND DUP10 PUSH1 0x80 ADD CALLDATALOAD DUP11 DUP1 PUSH1 0x60 ADD SWAP1 PUSH2 0x1225 SWAP2 SWAP1 PUSH2 0x3D52 JUMP JUMPDEST PUSH1 0x40 MLOAD PUSH2 0x1233 SWAP3 SWAP2 SWAP1 PUSH2 0x3DDA JUMP JUMPDEST PUSH1 0x0 PUSH1 0x40 MLOAD DUP1 DUP4 SUB DUP2 PUSH1 0x0 DUP8 DUP8 CALL SWAP3 POP POP POP RETURNDATASIZE DUP1 PUSH1 0x0 DUP2 EQ PUSH2 0x1271 JUMPI PUSH1 0x40 MLOAD SWAP2 POP PUSH1 0x1F NOT PUSH1 0x3F RETURNDATASIZE ADD AND DUP3 ADD PUSH1 0x40 MSTORE RETURNDATASIZE DUP3 MSTORE RETURNDATASIZE PUSH1 0x0 PUSH1 0x20 DUP5 ADD RETURNDATACOPY PUSH2 0x1276 JUMP JUMPDEST PUSH1 0x60 SWAP2 POP JUMPDEST POP SWAP2 POP SWAP2 POP DUP2 PUSH2 0x12F1 JUMPI PUSH1 0x0 DUP2 MLOAD GT ISZERO PUSH2 0x12EC JUMPI PUSH2 0x1293 DUP10 PUSH2 0x20E9 JUMP JUMPDEST PUSH20 0xFFFFFFFFFFFFFFFFFFFFFFFFFFFFFFFFFFFFFFFF AND DUP9 PUSH1 0x0 ADD CALLDATALOAD PUSH32 0x1C4FADA7374C0A9EE8841FC38AFE82932DC0F8E69012E927F061A8BAE611A201 DUP12 PUSH1 0x20 ADD CALLDATALOAD DUP5 PUSH1 0x40 MLOAD PUSH2 0x12E3 SWAP3 SWAP2 SWAP1 PUSH2 0x3DF3 JUMP JUMPDEST PUSH1 0x40 MLOAD DUP1 SWAP2 SUB SWAP1 LOG3 JUMPDEST PUSH1 0x1 SWAP3 POP JUMPDEST POP POP JUMPDEST PUSH1 0x0 DUP7 PUSH1 0x80 ADD CALLDATALOAD GAS DUP5 SUB ADD SWAP1 POP PUSH2 0x1364 PUSH1 0x0 DUP4 DUP11 DUP11 DUP1 CALLDATASIZE SUB DUP2 ADD SWAP1 PUSH2 0x1319 SWAP2 SWAP1 PUSH2 0x3F05 JUMP JUMPDEST DUP11 DUP11 DUP1 DUP1 PUSH1 0x1F ADD PUSH1 0x20 DUP1 SWAP2 DIV MUL PUSH1 0x20 ADD PUSH1 0x40 MLOAD SWAP1 DUP2 ADD PUSH1 0x40 MSTORE DUP1 SWAP4 SWAP3 SWAP2 SWAP1 DUP2 DUP2 MSTORE PUSH1 0x20 ADD DUP4 DUP4 DUP1 DUP3 DUP5 CALLDATACOPY PUSH1 0x0 DUP2 DUP5 ADD MSTORE PUSH1 0x1F NOT PUSH1 0x1F DUP3 ADD AND SWAP1 POP DUP1 DUP4 ADD SWAP3 POP POP POP POP POP POP POP DUP7 PUSH2 0x1C6E JUMP JUMPDEST SWAP4 POP POP POP POP SWAP5 SWAP4 POP POP POP POP JUMP JUMPDEST PUSH1 0x0 DUP1 PUSH1 0x0 CALLER PUSH20 0xFFFFFFFFFFFFFFFFFFFFFFFFFFFFFFFFFFFFFFFF AND PUSH20 0xFFFFFFFFFFFFFFFFFFFFFFFFFFFFFFFFFFFFFFFF AND DUP2 MSTORE PUSH1 0x20 ADD SWAP1 DUP2 MSTORE PUSH1 0x20 ADD PUSH1 0x0 KECCAK256 SWAP1 POP PUSH1 0x0 DUP2 PUSH1 0x1 ADD PUSH1 0x0 SWAP1 SLOAD SWAP1 PUSH2 0x100 EXP SWAP1 DIV PUSH4 0xFFFFFFFF AND PUSH4 0xFFFFFFFF AND SUB PUSH2 0x1410 JUMPI PUSH1 0x40 MLOAD PUSH32 0x8C379A000000000000000000000000000000000000000000000000000000000 DUP2 MSTORE PUSH1 0x4 ADD PUSH2 0x1407 SWAP1 PUSH2 0x3F7E JUMP JUMPDEST PUSH1 0x40 MLOAD DUP1 SWAP2 SUB SWAP1 REVERT JUMPDEST DUP1 PUSH1 0x0 ADD PUSH1 0xE SWAP1 SLOAD SWAP1 PUSH2 0x100 EXP SWAP1 DIV PUSH1 0xFF AND PUSH2 0x1461 JUMPI PUSH1 0x40 MLOAD PUSH32 0x8C379A000000000000000000000000000000000000000000000000000000000 DUP2 MSTORE PUSH1 0x4 ADD PUSH2 0x1458 SWAP1 PUSH2 0x3FEA JUMP JUMPDEST PUSH1 0x40 MLOAD DUP1 SWAP2 SUB SWAP1 REVERT JUMPDEST PUSH1 0x0 DUP2 PUSH1 0x1 ADD PUSH1 0x0 SWAP1 SLOAD SWAP1 PUSH2 0x100 EXP SWAP1 DIV PUSH4 0xFFFFFFFF AND PUSH4 0xFFFFFFFF AND TIMESTAMP PUSH2 0x1489 SWAP2 SWAP1 PUSH2 0x400A JUMP JUMPDEST SWAP1 POP DUP1 DUP3 PUSH1 0x1 ADD PUSH1 0x4 PUSH2 0x100 EXP DUP2 SLOAD DUP2 PUSH8 0xFFFFFFFFFFFFFFFF MUL NOT AND SWAP1 DUP4 PUSH8 0xFFFFFFFFFFFFFFFF AND MUL OR SWAP1 SSTORE POP PUSH1 0x0 DUP3 PUSH1 0x0 ADD PUSH1 0xE PUSH2 0x100 EXP DUP2 SLOAD DUP2 PUSH1 0xFF MUL NOT AND SWAP1 DUP4 ISZERO ISZERO MUL OR SWAP1 SSTORE POP CALLER PUSH20 0xFFFFFFFFFFFFFFFFFFFFFFFFFFFFFFFFFFFFFFFF AND PUSH32 0xFA9B3C14CC825C412C9ED81B3BA365A5B459439403F18829E572ED53A4180F0A DUP3 PUSH1 0x40 MLOAD PUSH2 0x1519 SWAP2 SWAP1 PUSH2 0x4077 JUMP JUMPDEST PUSH1 0x40 MLOAD DUP1 SWAP2 SUB SWAP1 LOG2 POP POP JUMP JUMPDEST PUSH1 0x0 DUP1 PUSH1 0x0 CALLER PUSH20 0xFFFFFFFFFFFFFFFFFFFFFFFFFFFFFFFFFFFFFFFF AND PUSH20 0xFFFFFFFFFFFFFFFFFFFFFFFFFFFFFFFFFFFFFFFF AND DUP2 MSTORE PUSH1 0x20 ADD SWAP1 DUP2 MSTORE PUSH1 0x20 ADD PUSH1 0x0 KECCAK256 SWAP1 POP PUSH1 0x0 DUP2 PUSH1 0x0 ADD PUSH1 0xF SWAP1 SLOAD SWAP1 PUSH2 0x100 EXP SWAP1 DIV PUSH14 0xFFFFFFFFFFFFFFFFFFFFFFFFFFFF AND PUSH14 0xFFFFFFFFFFFFFFFFFFFFFFFFFFFF AND SWAP1 POP PUSH1 0x0 DUP2 GT PUSH2 0x15DD JUMPI PUSH1 0x40 MLOAD PUSH32 0x8C379A000000000000000000000000000000000000000000000000000000000 DUP2 MSTORE PUSH1 0x4 ADD PUSH2 0x15D4 SWAP1 PUSH2 0x40DE JUMP JUMPDEST PUSH1 0x40 MLOAD DUP1 SWAP2 SUB SWAP1 REVERT JUMPDEST PUSH1 0x0 DUP3 PUSH1 0x1 ADD PUSH1 0x4 SWAP1 SLOAD SWAP1 PUSH2 0x100 EXP SWAP1 DIV PUSH8 0xFFFFFFFFFFFFFFFF AND PUSH8 0xFFFFFFFFFFFFFFFF AND GT PUSH2 0x1642 JUMPI PUSH1 0x40 MLOAD PUSH32 0x8C379A000000000000000000000000000000000000000000000000000000000 DUP2 MSTORE PUSH1 0x4 ADD PUSH2 0x1639 SWAP1 PUSH2 0x414A JUMP JUMPDEST PUSH1 0x40 MLOAD DUP1 SWAP2 SUB SWAP1 REVERT JUMPDEST TIMESTAMP DUP3 PUSH1 0x1 ADD PUSH1 0x4 SWAP1 SLOAD SWAP1 PUSH2 0x100 EXP SWAP1 DIV PUSH8 0xFFFFFFFFFFFFFFFF AND PUSH8 0xFFFFFFFFFFFFFFFF AND GT ISZERO PUSH2 0x16A7 JUMPI PUSH1 0x40 MLOAD PUSH32 0x8C379A000000000000000000000000000000000000000000000000000000000 DUP2 MSTORE PUSH1 0x4 ADD PUSH2 0x169E SWAP1 PUSH2 0x41B6 JUMP JUMPDEST PUSH1 0x40 MLOAD DUP1 SWAP2 SUB SWAP1 REVERT JUMPDEST PUSH1 0x0 DUP3 PUSH1 0x1 ADD PUSH1 0x0 PUSH2 0x100 EXP DUP2 SLOAD DUP2 PUSH4 0xFFFFFFFF MUL NOT AND SWAP1 DUP4 PUSH4 0xFFFFFFFF AND MUL OR SWAP1 SSTORE POP PUSH1 0x0 DUP3 PUSH1 0x1 ADD PUSH1 0x4 PUSH2 0x100 EXP DUP2 SLOAD DUP2 PUSH8 0xFFFFFFFFFFFFFFFF MUL NOT AND SWAP1 DUP4 PUSH8 0xFFFFFFFFFFFFFFFF AND MUL OR SWAP1 SSTORE POP PUSH1 0x0 DUP3 PUSH1 0x0 ADD PUSH1 0xF PUSH2 0x100 EXP DUP2 SLOAD DUP2 PUSH14 0xFFFFFFFFFFFFFFFFFFFFFFFFFFFF MUL NOT AND SWAP1 DUP4 PUSH14 0xFFFFFFFFFFFFFFFFFFFFFFFFFFFF AND MUL OR SWAP1 SSTORE POP CALLER PUSH20 0xFFFFFFFFFFFFFFFFFFFFFFFFFFFFFFFFFFFFFFFF AND PUSH32 0xB7C918E0E249F999E965CAFEB6C664271B3F4317D296461500E71DA39F0CBDA3 DUP5 DUP4 PUSH1 0x40 MLOAD PUSH2 0x1777 SWAP3 SWAP2 SWAP1 PUSH2 0x3777 JUMP JUMPDEST PUSH1 0x40 MLOAD DUP1 SWAP2 SUB SWAP1 LOG2 PUSH1 0x0 DUP4 PUSH20 0xFFFFFFFFFFFFFFFFFFFFFFFFFFFFFFFFFFFFFFFF AND DUP3 PUSH1 0x40 MLOAD PUSH2 0x17A5 SWAP1 PUSH2 0x37D1 JUMP JUMPDEST PUSH1 0x0 PUSH1 0x40 MLOAD DUP1 DUP4 SUB DUP2 DUP6 DUP8 GAS CALL SWAP3 POP POP POP RETURNDATASIZE DUP1 PUSH1 0x0 DUP2 EQ PUSH2 0x17E2 JUMPI PUSH1 0x40 MLOAD SWAP2 POP PUSH1 0x1F NOT PUSH1 0x3F RETURNDATASIZE ADD AND DUP3 ADD PUSH1 0x40 MSTORE RETURNDATASIZE DUP3 MSTORE RETURNDATASIZE PUSH1 0x0 PUSH1 0x20 DUP5 ADD RETURNDATACOPY PUSH2 0x17E7 JUMP JUMPDEST PUSH1 0x60 SWAP2 POP JUMPDEST POP POP SWAP1 POP DUP1 PUSH2 0x182B JUMPI PUSH1 0x40 MLOAD PUSH32 0x8C379A000000000000000000000000000000000000000000000000000000000 DUP2 MSTORE PUSH1 0x4 ADD PUSH2 0x1822 SWAP1 PUSH2 0x4222 JUMP JUMPDEST PUSH1 0x40 MLOAD DUP1 SWAP2 SUB SWAP1 REVERT JUMPDEST POP POP POP POP JUMP JUMPDEST PUSH1 0x0 DUP1 PUSH1 0xFF PUSH1 0xF8 SHL PUSH32 0x0 DUP5 DUP7 DUP1 MLOAD SWAP1 PUSH1 0x20 ADD KECCAK256 PUSH1 0x40 MLOAD PUSH1 0x20 ADD PUSH2 0x1876 SWAP5 SWAP4 SWAP3 SWAP2 SWAP1 PUSH2 0x4319 JUMP JUMPDEST PUSH1 0x40 MLOAD PUSH1 0x20 DUP2 DUP4 SUB SUB DUP2 MSTORE SWAP1 PUSH1 0x40 MSTORE DUP1 MLOAD SWAP1 PUSH1 0x20 ADD KECCAK256 SWAP1 POP DUP1 PUSH1 0x0 SHR SWAP2 POP POP SWAP3 SWAP2 POP POP JUMP JUMPDEST PUSH1 0x60 PUSH1 0x0 DUP1 PUSH1 0x0 DUP1 DUP6 PUSH20 0xFFFFFFFFFFFFFFFFFFFFFFFFFFFFFFFFFFFFFFFF AND PUSH20 0xFFFFFFFFFFFFFFFFFFFFFFFFFFFFFFFFFFFFFFFF AND DUP2 MSTORE PUSH1 0x20 ADD SWAP1 DUP2 MSTORE PUSH1 0x20 ADD PUSH1 0x0 KECCAK256 SWAP1 POP DUP1 SWAP2 POP PUSH1 0x1 PUSH8 0xFFFFFFFFFFFFFFFF DUP2 GT ISZERO PUSH2 0x18FE JUMPI PUSH2 0x18FD PUSH2 0x3035 JUMP JUMPDEST JUMPDEST PUSH1 0x40 MLOAD SWAP1 DUP1 DUP3 MSTORE DUP1 PUSH1 0x20 MUL PUSH1 0x20 ADD DUP3 ADD PUSH1 0x40 MSTORE DUP1 ISZERO PUSH2 0x192C JUMPI DUP2 PUSH1 0x20 ADD PUSH1 0x20 DUP3 MUL DUP1 CALLDATASIZE DUP4 CALLDATACOPY DUP1 DUP3 ADD SWAP2 POP POP SWAP1 POP JUMPDEST POP SWAP3 POP DUP2 DUP4 PUSH1 0x0 DUP2 MLOAD DUP2 LT PUSH2 0x1944 JUMPI PUSH2 0x1943 PUSH2 0x3852 JUMP JUMPDEST JUMPDEST PUSH1 0x20 MUL PUSH1 0x20 ADD ADD DUP2 DUP2 MSTORE POP POP POP POP SWAP2 SWAP1 POP JUMP JUMPDEST PUSH1 0x0 PUSH1 0x20 MSTORE DUP1 PUSH1 0x0 MSTORE PUSH1 0x40 PUSH1 0x0 KECCAK256 PUSH1 0x0 SWAP2 POP SWAP1 POP DUP1 PUSH1 0x0 ADD PUSH1 0x0 SWAP1 SLOAD SWAP1 PUSH2 0x100 EXP SWAP1 DIV PUSH14 0xFFFFFFFFFFFFFFFFFFFFFFFFFFFF AND SWAP1 DUP1 PUSH1 0x0 ADD PUSH1 0xE SWAP1 SLOAD SWAP1 PUSH2 0x100 EXP SWAP1 DIV PUSH1 0xFF AND SWAP1 DUP1 PUSH1 0x0 ADD PUSH1 0xF SWAP1 SLOAD SWAP1 PUSH2 0x100 EXP SWAP1 DIV PUSH14 0xFFFFFFFFFFFFFFFFFFFFFFFFFFFF AND SWAP1 DUP1 PUSH1 0x1 ADD PUSH1 0x0 SWAP1 SLOAD SWAP1 PUSH2 0x100 EXP SWAP1 DIV PUSH4 0xFFFFFFFF AND SWAP1 DUP1 PUSH1 0x1 ADD PUSH1 0x4 SWAP1 SLOAD SWAP1 PUSH2 0x100 EXP SWAP1 DIV PUSH8 0xFFFFFFFFFFFFFFFF AND SWAP1 POP DUP6 JUMP JUMPDEST PUSH1 0x0 DUP1 PUSH1 0x0 DUP5 PUSH20 0xFFFFFFFFFFFFFFFFFFFFFFFFFFFFFFFFFFFFFFFF AND PUSH20 0xFFFFFFFFFFFFFFFFFFFFFFFFFFFFFFFFFFFFFFFF AND DUP2 MSTORE PUSH1 0x20 ADD SWAP1 DUP2 MSTORE PUSH1 0x20 ADD PUSH1 0x0 KECCAK256 SWAP1 POP PUSH1 0x0 DUP3 DUP3 PUSH1 0x0 ADD PUSH1 0x0 SWAP1 SLOAD SWAP1 PUSH2 0x100 EXP SWAP1 DIV PUSH14 0xFFFFFFFFFFFFFFFFFFFFFFFFFFFF AND PUSH14 0xFFFFFFFFFFFFFFFFFFFFFFFFFFFF AND PUSH2 0x1A70 SWAP2 SWAP1 PUSH2 0x348A JUMP JUMPDEST SWAP1 POP PUSH14 0xFFFFFFFFFFFFFFFFFFFFFFFFFFFF DUP1 AND DUP2 GT ISZERO PUSH2 0x1AC5 JUMPI PUSH1 0x40 MLOAD PUSH32 0x8C379A000000000000000000000000000000000000000000000000000000000 DUP2 MSTORE PUSH1 0x4 ADD PUSH2 0x1ABC SWAP1 PUSH2 0x43B3 JUMP JUMPDEST PUSH1 0x40 MLOAD DUP1 SWAP2 SUB SWAP1 REVERT JUMPDEST DUP1 DUP3 PUSH1 0x0 ADD PUSH1 0x0 PUSH2 0x100 EXP DUP2 SLOAD DUP2 PUSH14 0xFFFFFFFFFFFFFFFFFFFFFFFFFFFF MUL NOT AND SWAP1 DUP4 PUSH14 0xFFFFFFFFFFFFFFFFFFFFFFFFFFFF AND MUL OR SWAP1 SSTORE POP POP POP POP POP JUMP JUMPDEST PUSH1 0x0 DUP1 PUSH1 0x60 PUSH1 0x0 GAS SWAP1 POP PUSH1 0x0 DUP7 PUSH2 0x100 ADD CALLDATALOAD DUP8 PUSH1 0xE0 ADD CALLDATALOAD DUP9 PUSH1 0x80 ADD CALLDATALOAD DUP10 PUSH1 0xA0 ADD CALLDATALOAD DUP11 PUSH1 0xC0 ADD CALLDATALOAD OR OR OR OR SWAP1 POP PUSH15 0xFFFFFFFFFFFFFFFFFFFFFFFFFFFFFF DUP1 AND DUP2 GT ISZERO PUSH2 0x1B82 JUMPI PUSH1 0x40 MLOAD PUSH32 0x8C379A000000000000000000000000000000000000000000000000000000000 DUP2 MSTORE PUSH1 0x4 ADD PUSH2 0x1B79 SWAP1 PUSH2 0x441F JUMP JUMPDEST PUSH1 0x40 MLOAD DUP1 SWAP2 SUB SWAP1 REVERT JUMPDEST PUSH1 0x0 PUSH2 0x1B8D DUP9 PUSH2 0x20F9 JUMP JUMPDEST DUP1 SWAP7 POP DUP2 SWAP8 POP POP POP PUSH2 0x1BA2 DUP10 DUP10 DUP10 DUP10 DUP10 PUSH2 0x2128 JUMP JUMPDEST SWAP1 POP PUSH1 0x0 NUMBER SWAP1 POP PUSH1 0x0 PUSH1 0x1 DUP2 GT ISZERO PUSH2 0x1BBD JUMPI PUSH2 0x1BBC PUSH2 0x38B9 JUMP JUMPDEST JUMPDEST DUP7 PUSH1 0x1 DUP2 GT ISZERO PUSH2 0x1BD0 JUMPI PUSH2 0x1BCF PUSH2 0x38B9 JUMP JUMPDEST JUMPDEST SUB PUSH2 0x1BE9 JUMPI PUSH2 0x1BE2 DUP11 DUP11 DUP11 DUP11 DUP7 PUSH2 0x23E4 JUMP JUMPDEST SWAP5 POP PUSH2 0x1BFC JUMP JUMPDEST PUSH1 0x40 MLOAD DUP1 PUSH1 0x20 ADD PUSH1 0x40 MSTORE DUP1 PUSH1 0x0 DUP2 MSTORE POP SWAP5 POP JUMPDEST PUSH1 0x0 GAS DUP6 SUB SWAP1 POP DUP1 DUP11 PUSH1 0xA0 ADD CALLDATALOAD LT ISZERO PUSH2 0x1C60 JUMPI DUP11 DUP11 PUSH2 0x120 ADD PUSH1 0x20 DUP2 ADD SWAP1 PUSH2 0x1C24 SWAP2 SWAP1 PUSH2 0x2DC7 JUMP JUMPDEST PUSH1 0x40 MLOAD PUSH31 0xFA072B00000000000000000000000000000000000000000000000000000000 DUP2 MSTORE PUSH1 0x4 ADD PUSH2 0x1C57 SWAP3 SWAP2 SWAP1 PUSH2 0x448B JUMP JUMPDEST PUSH1 0x40 MLOAD DUP1 SWAP2 SUB SWAP1 REVERT JUMPDEST POP POP POP POP POP SWAP4 POP SWAP4 POP SWAP4 SWAP1 POP JUMP JUMPDEST PUSH1 0x0 DUP1 GAS SWAP1 POP PUSH1 0x0 PUSH2 0x1C7F DUP8 PUSH2 0x2691 JUMP JUMPDEST SWAP1 POP PUSH1 0x0 DUP1 DUP9 PUSH2 0x120 ADD PUSH1 0x20 DUP2 ADD SWAP1 PUSH2 0x1C98 SWAP2 SWAP1 PUSH2 0x2DC7 JUMP JUMPDEST SWAP1 POP PUSH1 0x0 PUSH20 0xFFFFFFFFFFFFFFFFFFFFFFFFFFFFFFFFFFFFFFFF AND DUP2 PUSH20 0xFFFFFFFFFFFFFFFFFFFFFFFFFFFFFFFFFFFFFFFF AND SUB PUSH2 0x1CDE JUMPI PUSH2 0x1CD7 DUP10 PUSH2 0x20E9 JUMP JUMPDEST SWAP2 POP PUSH2 0x1EB1 JUMP JUMPDEST DUP1 SWAP2 POP PUSH1 0x0 DUP8 MLOAD GT ISZERO PUSH2 0x1EB0 JUMPI DUP3 DUP7 MUL SWAP5 POP PUSH1 0x2 DUP1 DUP2 GT ISZERO PUSH2 0x1D03 JUMPI PUSH2 0x1D02 PUSH2 0x38B9 JUMP JUMPDEST JUMPDEST DUP11 PUSH1 0x2 DUP2 GT ISZERO PUSH2 0x1D16 JUMPI PUSH2 0x1D15 PUSH2 0x38B9 JUMP JUMPDEST JUMPDEST EQ PUSH2 0x1D95 JUMPI DUP1 PUSH20 0xFFFFFFFFFFFFFFFFFFFFFFFFFFFFFFFFFFFFFFFF AND PUSH4 0xA9A23409 DUP11 PUSH1 0xA0 ADD CALLDATALOAD DUP13 DUP11 DUP10 PUSH1 0x40 MLOAD DUP6 PUSH4 0xFFFFFFFF AND PUSH1 0xE0 SHL DUP2 MSTORE PUSH1 0x4 ADD PUSH2 0x1D5D SWAP4 SWAP3 SWAP2 SWAP1 PUSH2 0x450F JUMP JUMPDEST PUSH1 0x0 PUSH1 0x40 MLOAD DUP1 DUP4 SUB DUP2 PUSH1 0x0 DUP9 DUP1 EXTCODESIZE ISZERO DUP1 ISZERO PUSH2 0x1D77 JUMPI PUSH1 0x0 DUP1 REVERT JUMPDEST POP DUP8 CALL ISZERO DUP1 ISZERO PUSH2 0x1D8B JUMPI RETURNDATASIZE PUSH1 0x0 DUP1 RETURNDATACOPY RETURNDATASIZE PUSH1 0x0 REVERT JUMPDEST POP POP POP POP POP PUSH2 0x1EAF JUMP JUMPDEST DUP1 PUSH20 0xFFFFFFFFFFFFFFFFFFFFFFFFFFFFFFFFFFFFFFFF AND PUSH4 0xA9A23409 DUP11 PUSH1 0xA0 ADD CALLDATALOAD DUP13 DUP11 DUP10 PUSH1 0x40 MLOAD DUP6 PUSH4 0xFFFFFFFF AND PUSH1 0xE0 SHL DUP2 MSTORE PUSH1 0x4 ADD PUSH2 0x1DD7 SWAP4 SWAP3 SWAP2 SWAP1 PUSH2 0x450F JUMP JUMPDEST PUSH1 0x0 PUSH1 0x40 MLOAD DUP1 DUP4 SUB DUP2 PUSH1 0x0 DUP9 DUP1 EXTCODESIZE ISZERO DUP1 ISZERO PUSH2 0x1DF1 JUMPI PUSH1 0x0 DUP1 REVERT JUMPDEST POP DUP8 CALL SWAP4 POP POP POP POP DUP1 ISZERO PUSH2 0x1E03 JUMPI POP PUSH1 0x1 JUMPDEST PUSH2 0x1EAE JUMPI PUSH2 0x1E0F PUSH2 0x455A JUMP JUMPDEST DUP1 PUSH4 0x8C379A0 SUB PUSH2 0x1E6E JUMPI POP PUSH2 0x1E23 PUSH2 0x457C JUMP JUMPDEST DUP1 PUSH2 0x1E2E JUMPI POP PUSH2 0x1E70 JUMP JUMPDEST DUP12 DUP3 DUP3 PUSH1 0x40 MLOAD PUSH31 0xFA072B00000000000000000000000000000000000000000000000000000000 DUP2 MSTORE PUSH1 0x4 ADD PUSH2 0x1E65 SWAP4 SWAP3 SWAP2 SWAP1 PUSH2 0x4650 JUMP JUMPDEST PUSH1 0x40 MLOAD DUP1 SWAP2 SUB SWAP1 REVERT JUMPDEST POP JUMPDEST DUP11 DUP2 PUSH1 0x40 MLOAD PUSH31 0xFA072B00000000000000000000000000000000000000000000000000000000 DUP2 MSTORE PUSH1 0x4 ADD PUSH2 0x1EA5 SWAP3 SWAP2 SWAP1 PUSH2 0x46DA JUMP JUMPDEST PUSH1 0x40 MLOAD DUP1 SWAP2 SUB SWAP1 REVERT JUMPDEST JUMPDEST JUMPDEST JUMPDEST GAS DUP5 SUB DUP7 ADD SWAP6 POP DUP3 DUP7 MUL SWAP5 POP DUP5 DUP9 PUSH1 0x20 ADD MLOAD LT ISZERO PUSH2 0x1F07 JUMPI DUP11 DUP2 PUSH1 0x40 MLOAD PUSH31 0xFA072B00000000000000000000000000000000000000000000000000000000 DUP2 MSTORE PUSH1 0x4 ADD PUSH2 0x1EFE SWAP3 SWAP2 SWAP1 PUSH2 0x4762 JUMP JUMPDEST PUSH1 0x40 MLOAD DUP1 SWAP2 SUB SWAP1 REVERT JUMPDEST PUSH1 0x0 DUP6 DUP10 PUSH1 0x20 ADD MLOAD SUB SWAP1 POP PUSH2 0x1F1C DUP4 DUP3 PUSH2 0x19F2 JUMP JUMPDEST PUSH1 0x0 DUP1 PUSH1 0x2 DUP2 GT ISZERO PUSH2 0x1F31 JUMPI PUSH2 0x1F30 PUSH2 0x38B9 JUMP JUMPDEST JUMPDEST DUP13 PUSH1 0x2 DUP2 GT ISZERO PUSH2 0x1F44 JUMPI PUSH2 0x1F43 PUSH2 0x38B9 JUMP JUMPDEST JUMPDEST EQ SWAP1 POP DUP11 PUSH2 0x120 ADD PUSH1 0x20 DUP2 ADD SWAP1 PUSH2 0x1F5B SWAP2 SWAP1 PUSH2 0x2DC7 JUMP JUMPDEST PUSH20 0xFFFFFFFFFFFFFFFFFFFFFFFFFFFFFFFFFFFFFFFF AND PUSH2 0x1F7A DUP13 PUSH2 0x20E9 JUMP JUMPDEST PUSH20 0xFFFFFFFFFFFFFFFFFFFFFFFFFFFFFFFFFFFFFFFF AND DUP12 PUSH1 0x0 ADD MLOAD PUSH32 0x33FD4D1F25A5461BEA901784A6571DE6DEBC16CD0831932C22C6969CD73BA994 DUP15 PUSH1 0x20 ADD CALLDATALOAD DUP12 DUP11 DUP8 PUSH1 0x40 MLOAD PUSH2 0x1FCE SWAP5 SWAP4 SWAP3 SWAP2 SWAP1 PUSH2 0x479E JUMP JUMPDEST PUSH1 0x40 MLOAD DUP1 SWAP2 SUB SWAP1 LOG4 POP POP POP POP POP POP SWAP7 SWAP6 POP POP POP POP POP POP JUMP JUMPDEST PUSH1 0x0 PUSH20 0xFFFFFFFFFFFFFFFFFFFFFFFFFFFFFFFFFFFFFFFF AND DUP3 PUSH20 0xFFFFFFFFFFFFFFFFFFFFFFFFFFFFFFFFFFFFFFFF AND SUB PUSH2 0x2055 JUMPI PUSH1 0x40 MLOAD PUSH32 0x8C379A000000000000000000000000000000000000000000000000000000000 DUP2 MSTORE PUSH1 0x4 ADD PUSH2 0x204C SWAP1 PUSH2 0x482F JUMP JUMPDEST PUSH1 0x40 MLOAD DUP1 SWAP2 SUB SWAP1 REVERT JUMPDEST PUSH1 0x0 DUP3 PUSH20 0xFFFFFFFFFFFFFFFFFFFFFFFFFFFFFFFFFFFFFFFF AND DUP3 PUSH1 0x40 MLOAD PUSH2 0x207B SWAP1 PUSH2 0x37D1 JUMP JUMPDEST PUSH1 0x0 PUSH1 0x40 MLOAD DUP1 DUP4 SUB DUP2 DUP6 DUP8 GAS CALL SWAP3 POP POP POP RETURNDATASIZE DUP1 PUSH1 0x0 DUP2 EQ PUSH2 0x20B8 JUMPI PUSH1 0x40 MLOAD SWAP2 POP PUSH1 0x1F NOT PUSH1 0x3F RETURNDATASIZE ADD AND DUP3 ADD PUSH1 0x40 MSTORE RETURNDATASIZE DUP3 MSTORE RETURNDATASIZE PUSH1 0x0 PUSH1 0x20 DUP5 ADD RETURNDATACOPY PUSH2 0x20BD JUMP JUMPDEST PUSH1 0x60 SWAP2 POP JUMPDEST POP POP SWAP1 POP DUP1 PUSH2 0x20CB JUMPI PUSH1 0x0 DUP1 REVERT JUMPDEST POP POP POP JUMP JUMPDEST PUSH1 0x0 PUSH2 0x20DB DUP3 PUSH2 0x26CC JUMP JUMPDEST DUP1 MLOAD SWAP1 PUSH1 0x20 ADD KECCAK256 SWAP1 POP SWAP2 SWAP1 POP JUMP JUMPDEST PUSH1 0x0 DUP1 DUP3 CALLDATALOAD SWAP1 POP DUP1 SWAP2 POP POP SWAP2 SWAP1 POP JUMP JUMPDEST PUSH1 0x0 DUP1 PUSH2 0x2105 DUP4 PUSH2 0x270E JUMP JUMPDEST SWAP2 POP PUSH2 0x2110 DUP4 PUSH2 0x272A JUMP JUMPDEST ISZERO PUSH2 0x211E JUMPI PUSH1 0x0 SWAP1 POP PUSH2 0x2123 JUMP JUMPDEST PUSH1 0x1 SWAP1 POP JUMPDEST SWAP2 POP SWAP2 JUMP JUMPDEST PUSH1 0x0 DUP1 GAS SWAP1 POP PUSH2 0x2137 DUP7 PUSH2 0x2776 JUMP JUMPDEST PUSH1 0x0 DUP1 PUSH2 0x2143 DUP9 PUSH2 0x20E9 JUMP JUMPDEST SWAP1 POP PUSH1 0x0 PUSH1 0x1 DUP2 GT ISZERO PUSH2 0x2159 JUMPI PUSH2 0x2158 PUSH2 0x38B9 JUMP JUMPDEST JUMPDEST DUP6 PUSH1 0x1 DUP2 GT ISZERO PUSH2 0x216C JUMPI PUSH2 0x216B PUSH2 0x38B9 JUMP JUMPDEST JUMPDEST EQ PUSH2 0x2194 JUMPI PUSH1 0x0 PUSH2 0x217C DUP3 PUSH2 0x1120 JUMP JUMPDEST SWAP1 POP DUP7 DUP2 GT PUSH2 0x218D JUMPI DUP1 DUP8 SUB PUSH2 0x2190 JUMP JUMPDEST PUSH1 0x0 JUMPDEST SWAP3 POP POP JUMPDEST DUP1 PUSH20 0xFFFFFFFFFFFFFFFFFFFFFFFFFFFFFFFFFFFFFFFF AND PUSH4 0xFCBAC1F4 DUP10 PUSH1 0xA0 ADD CALLDATALOAD DUP11 DUP11 DUP7 PUSH1 0x40 MLOAD DUP6 PUSH4 0xFFFFFFFF AND PUSH1 0xE0 SHL DUP2 MSTORE PUSH1 0x4 ADD PUSH2 0x21D6 SWAP4 SWAP3 SWAP2 SWAP1 PUSH2 0x484F JUMP JUMPDEST PUSH1 0x0 PUSH1 0x40 MLOAD DUP1 DUP4 SUB DUP2 PUSH1 0x0 DUP9 DUP1 EXTCODESIZE ISZERO DUP1 ISZERO PUSH2 0x21F0 JUMPI PUSH1 0x0 DUP1 REVERT JUMPDEST POP DUP8 CALL SWAP4 POP POP POP POP DUP1 ISZERO PUSH2 0x2202 JUMPI POP PUSH1 0x1 JUMPDEST PUSH2 0x22AF JUMPI PUSH2 0x220E PUSH2 0x455A JUMP JUMPDEST DUP1 PUSH4 0x8C379A0 SUB PUSH2 0x226E JUMPI POP PUSH2 0x2222 PUSH2 0x457C JUMP JUMPDEST DUP1 PUSH2 0x222D JUMPI POP PUSH2 0x2270 JUMP JUMPDEST DUP10 PUSH1 0x0 DUP3 PUSH1 0x40 MLOAD PUSH31 0xFA072B00000000000000000000000000000000000000000000000000000000 DUP2 MSTORE PUSH1 0x4 ADD PUSH2 0x2265 SWAP4 SWAP3 SWAP2 SWAP1 PUSH2 0x4650 JUMP JUMPDEST PUSH1 0x40 MLOAD DUP1 SWAP2 SUB SWAP1 REVERT JUMPDEST POP JUMPDEST DUP9 PUSH1 0x0 PUSH1 0x40 MLOAD PUSH31 0xFA072B00000000000000000000000000000000000000000000000000000000 DUP2 MSTORE PUSH1 0x4 ADD PUSH2 0x22A6 SWAP3 SWAP2 SWAP1 PUSH2 0x48B0 JUMP JUMPDEST PUSH1 0x40 MLOAD DUP1 SWAP2 SUB SWAP1 REVERT JUMPDEST PUSH1 0x0 PUSH1 0x1 DUP2 GT ISZERO PUSH2 0x22C3 JUMPI PUSH2 0x22C2 PUSH2 0x38B9 JUMP JUMPDEST JUMPDEST DUP6 PUSH1 0x1 DUP2 GT ISZERO PUSH2 0x22D6 JUMPI PUSH2 0x22D5 PUSH2 0x38B9 JUMP JUMPDEST JUMPDEST EQ PUSH2 0x23D3 JUMPI PUSH1 0x0 DUP1 PUSH1 0x0 DUP4 PUSH20 0xFFFFFFFFFFFFFFFFFFFFFFFFFFFFFFFFFFFFFFFF AND PUSH20 0xFFFFFFFFFFFFFFFFFFFFFFFFFFFFFFFFFFFFFFFF AND DUP2 MSTORE PUSH1 0x20 ADD SWAP1 DUP2 MSTORE PUSH1 0x20 ADD PUSH1 0x0 KECCAK256 SWAP1 POP PUSH1 0x0 DUP2 PUSH1 0x0 ADD PUSH1 0x0 SWAP1 SLOAD SWAP1 PUSH2 0x100 EXP SWAP1 DIV PUSH14 0xFFFFFFFFFFFFFFFFFFFFFFFFFFFF AND PUSH14 0xFFFFFFFFFFFFFFFFFFFFFFFFFFFF AND SWAP1 POP DUP1 DUP9 GT ISZERO PUSH2 0x2397 JUMPI DUP11 PUSH1 0x0 PUSH1 0x40 MLOAD PUSH31 0xFA072B00000000000000000000000000000000000000000000000000000000 DUP2 MSTORE PUSH1 0x4 ADD PUSH2 0x238E SWAP3 SWAP2 SWAP1 PUSH2 0x4938 JUMP JUMPDEST PUSH1 0x40 MLOAD DUP1 SWAP2 SUB SWAP1 REVERT JUMPDEST DUP8 DUP2 SUB DUP3 PUSH1 0x0 ADD PUSH1 0x0 PUSH2 0x100 EXP DUP2 SLOAD DUP2 PUSH14 0xFFFFFFFFFFFFFFFFFFFFFFFFFFFF MUL NOT AND SWAP1 DUP4 PUSH14 0xFFFFFFFFFFFFFFFFFFFFFFFFFFFF AND MUL OR SWAP1 SSTORE POP POP POP JUMPDEST GAS DUP4 SUB SWAP4 POP POP POP POP SWAP6 SWAP5 POP POP POP POP POP JUMP JUMPDEST PUSH1 0x60 PUSH1 0x0 DUP6 PUSH2 0x120 ADD PUSH1 0x20 DUP2 ADD SWAP1 PUSH2 0x23FC SWAP2 SWAP1 PUSH2 0x2DC7 JUMP JUMPDEST SWAP1 POP PUSH1 0x0 DUP1 PUSH1 0x0 DUP4 PUSH20 0xFFFFFFFFFFFFFFFFFFFFFFFFFFFFFFFFFFFFFFFF AND PUSH20 0xFFFFFFFFFFFFFFFFFFFFFFFFFFFFFFFFFFFFFFFF AND DUP2 MSTORE PUSH1 0x20 ADD SWAP1 DUP2 MSTORE PUSH1 0x20 ADD PUSH1 0x0 KECCAK256 SWAP1 POP PUSH1 0x0 DUP2 PUSH1 0x0 ADD PUSH1 0x0 SWAP1 SLOAD SWAP1 PUSH2 0x100 EXP SWAP1 DIV PUSH14 0xFFFFFFFFFFFFFFFFFFFFFFFFFFFF AND PUSH14 0xFFFFFFFFFFFFFFFFFFFFFFFFFFFF AND SWAP1 POP PUSH1 0x0 DUP3 PUSH1 0x0 ADD PUSH1 0xE SWAP1 SLOAD SWAP1 PUSH2 0x100 EXP SWAP1 DIV PUSH1 0xFF AND SWAP1 POP DUP1 PUSH2 0x24CC JUMPI DUP10 DUP5 PUSH1 0x40 MLOAD PUSH31 0xFA072B00000000000000000000000000000000000000000000000000000000 DUP2 MSTORE PUSH1 0x4 ADD PUSH2 0x24C3 SWAP3 SWAP2 SWAP1 PUSH2 0x4974 JUMP JUMPDEST PUSH1 0x40 MLOAD DUP1 SWAP2 SUB SWAP1 REVERT JUMPDEST DUP7 DUP3 LT ISZERO PUSH2 0x2512 JUMPI DUP10 DUP5 PUSH1 0x40 MLOAD PUSH31 0xFA072B00000000000000000000000000000000000000000000000000000000 DUP2 MSTORE PUSH1 0x4 ADD PUSH2 0x2509 SWAP3 SWAP2 SWAP1 PUSH2 0x49FC JUMP JUMPDEST PUSH1 0x40 MLOAD DUP1 SWAP2 SUB SWAP1 REVERT JUMPDEST DUP7 DUP3 SUB DUP4 PUSH1 0x0 ADD PUSH1 0x0 PUSH2 0x100 EXP DUP2 SLOAD DUP2 PUSH14 0xFFFFFFFFFFFFFFFFFFFFFFFFFFFF MUL NOT AND SWAP1 DUP4 PUSH14 0xFFFFFFFFFFFFFFFFFFFFFFFFFFFF AND MUL OR SWAP1 SSTORE POP PUSH1 0x0 DUP7 DUP11 PUSH1 0xA0 ADD CALLDATALOAD SUB SWAP1 POP DUP5 PUSH20 0xFFFFFFFFFFFFFFFFFFFFFFFFFFFFFFFFFFFFFFFF AND PUSH4 0x7BFD0845 DUP3 DUP13 DUP13 DUP13 PUSH1 0x40 MLOAD DUP6 PUSH4 0xFFFFFFFF AND PUSH1 0xE0 SHL DUP2 MSTORE PUSH1 0x4 ADD PUSH2 0x2594 SWAP4 SWAP3 SWAP2 SWAP1 PUSH2 0x484F JUMP JUMPDEST PUSH1 0x0 PUSH1 0x40 MLOAD DUP1 DUP4 SUB DUP2 DUP8 DUP7 STATICCALL SWAP4 POP POP POP POP DUP1 ISZERO PUSH2 0x25D4 JUMPI POP PUSH1 0x40 MLOAD RETURNDATASIZE PUSH1 0x0 DUP3 RETURNDATACOPY RETURNDATASIZE PUSH1 0x1F NOT PUSH1 0x1F DUP3 ADD AND DUP3 ADD DUP1 PUSH1 0x40 MSTORE POP DUP2 ADD SWAP1 PUSH2 0x25D1 SWAP2 SWAP1 PUSH2 0x4AA8 JUMP JUMPDEST PUSH1 0x1 JUMPDEST PUSH2 0x267F JUMPI PUSH2 0x25E0 PUSH2 0x455A JUMP JUMPDEST DUP1 PUSH4 0x8C379A0 SUB PUSH2 0x263F JUMPI POP PUSH2 0x25F4 PUSH2 0x457C JUMP JUMPDEST DUP1 PUSH2 0x25FF JUMPI POP PUSH2 0x2641 JUMP JUMPDEST DUP12 DUP7 DUP3 PUSH1 0x40 MLOAD PUSH31 0xFA072B00000000000000000000000000000000000000000000000000000000 DUP2 MSTORE PUSH1 0x4 ADD PUSH2 0x2636 SWAP4 SWAP3 SWAP2 SWAP1 PUSH2 0x4650 JUMP JUMPDEST PUSH1 0x40 MLOAD DUP1 SWAP2 SUB SWAP1 REVERT JUMPDEST POP JUMPDEST DUP11 DUP6 PUSH1 0x40 MLOAD PUSH31 0xFA072B00000000000000000000000000000000000000000000000000000000 DUP2 MSTORE PUSH1 0x4 ADD PUSH2 0x2676 SWAP3 SWAP2 SWAP1 PUSH2 0x48B0 JUMP JUMPDEST PUSH1 0x40 MLOAD DUP1 SWAP2 SUB SWAP1 REVERT JUMPDEST DUP1 SWAP7 POP POP POP POP POP POP POP SWAP6 SWAP5 POP POP POP POP POP JUMP JUMPDEST PUSH1 0x0 DUP1 DUP3 PUSH1 0xE0 ADD CALLDATALOAD SWAP1 POP PUSH1 0x0 DUP4 PUSH2 0x100 ADD CALLDATALOAD SWAP1 POP DUP1 DUP3 SUB PUSH2 0x26B6 JUMPI DUP2 SWAP3 POP POP POP PUSH2 0x26C7 JUMP JUMPDEST PUSH2 0x26C2 DUP3 BASEFEE DUP4 ADD PUSH2 0x2932 JUMP JUMPDEST SWAP3 POP POP POP JUMPDEST SWAP2 SWAP1 POP JUMP JUMPDEST PUSH1 0x60 CALLDATASIZE PUSH1 0x0 DUP4 DUP1 PUSH2 0x160 ADD SWAP1 PUSH2 0x26E2 SWAP2 SWAP1 PUSH2 0x3D52 JUMP JUMPDEST SWAP2 POP SWAP2 POP DUP4 PUSH1 0x20 DUP2 DUP5 SUB SUB PUSH1 0x40 MLOAD SWAP5 POP PUSH1 0x20 DUP2 ADD DUP6 ADD PUSH1 0x40 MSTORE DUP1 DUP6 MSTORE DUP1 DUP3 PUSH1 0x20 DUP8 ADD CALLDATACOPY POP POP POP POP SWAP2 SWAP1 POP JUMP JUMPDEST PUSH1 0x0 PUSH2 0x2719 DUP3 PUSH2 0x2691 JUMP JUMPDEST PUSH2 0x2722 DUP4 PUSH2 0x294B JUMP JUMPDEST MUL SWAP1 POP SWAP2 SWAP1 POP JUMP JUMPDEST PUSH1 0x0 DUP1 PUSH20 0xFFFFFFFFFFFFFFFFFFFFFFFFFFFFFFFFFFFFFFFF AND DUP3 PUSH2 0x120 ADD PUSH1 0x20 DUP2 ADD SWAP1 PUSH2 0x2757 SWAP2 SWAP1 PUSH2 0x2DC7 JUMP JUMPDEST PUSH20 0xFFFFFFFFFFFFFFFFFFFFFFFFFFFFFFFFFFFFFFFF AND EQ ISZERO SWAP1 POP SWAP2 SWAP1 POP JUMP JUMPDEST PUSH1 0x0 DUP2 DUP1 PUSH1 0x40 ADD SWAP1 PUSH2 0x2788 SWAP2 SWAP1 PUSH2 0x3D52 JUMP JUMPDEST SWAP1 POP EQ PUSH2 0x292F JUMPI PUSH1 0x0 PUSH32 0x0 PUSH20 0xFFFFFFFFFFFFFFFFFFFFFFFFFFFFFFFFFFFFFFFF AND PUSH4 0x4AF63F02 DUP4 DUP1 PUSH1 0x40 ADD SWAP1 PUSH2 0x27DD SWAP2 SWAP1 PUSH2 0x3D52 JUMP JUMPDEST DUP6 PUSH1 0x20 ADD CALLDATALOAD PUSH1 0x0 SHL PUSH1 0x40 MLOAD DUP5 PUSH4 0xFFFFFFFF AND PUSH1 0xE0 SHL DUP2 MSTORE PUSH1 0x4 ADD PUSH2 0x2803 SWAP4 SWAP3 SWAP2 SWAP1 PUSH2 0x4B1E JUMP JUMPDEST PUSH1 0x20 PUSH1 0x40 MLOAD DUP1 DUP4 SUB DUP2 PUSH1 0x0 DUP8 GAS CALL ISZERO DUP1 ISZERO PUSH2 0x2822 JUMPI RETURNDATASIZE PUSH1 0x0 DUP1 RETURNDATACOPY RETURNDATASIZE PUSH1 0x0 REVERT JUMPDEST POP POP POP POP PUSH1 0x40 MLOAD RETURNDATASIZE PUSH1 0x1F NOT PUSH1 0x1F DUP3 ADD AND DUP3 ADD DUP1 PUSH1 0x40 MSTORE POP DUP2 ADD SWAP1 PUSH2 0x2846 SWAP2 SWAP1 PUSH2 0x4B65 JUMP JUMPDEST SWAP1 POP PUSH1 0x0 PUSH20 0xFFFFFFFFFFFFFFFFFFFFFFFFFFFFFFFFFFFFFFFF AND DUP2 PUSH20 0xFFFFFFFFFFFFFFFFFFFFFFFFFFFFFFFFFFFFFFFF AND SUB PUSH2 0x28B7 JUMPI PUSH1 0x40 MLOAD PUSH32 0x8C379A000000000000000000000000000000000000000000000000000000000 DUP2 MSTORE PUSH1 0x4 ADD PUSH2 0x28AE SWAP1 PUSH2 0x4BDE JUMP JUMPDEST PUSH1 0x40 MLOAD DUP1 SWAP2 SUB SWAP1 REVERT JUMPDEST PUSH2 0x28C0 DUP3 PUSH2 0x20E9 JUMP JUMPDEST PUSH20 0xFFFFFFFFFFFFFFFFFFFFFFFFFFFFFFFFFFFFFFFF AND DUP2 PUSH20 0xFFFFFFFFFFFFFFFFFFFFFFFFFFFFFFFFFFFFFFFF AND EQ PUSH2 0x292D JUMPI PUSH1 0x40 MLOAD PUSH32 0x8C379A000000000000000000000000000000000000000000000000000000000 DUP2 MSTORE PUSH1 0x4 ADD PUSH2 0x2924 SWAP1 PUSH2 0x4C70 JUMP JUMPDEST PUSH1 0x40 MLOAD DUP1 SWAP2 SUB SWAP1 REVERT JUMPDEST POP JUMPDEST POP JUMP JUMPDEST PUSH1 0x0 DUP2 DUP4 LT PUSH2 0x2941 JUMPI DUP2 PUSH2 0x2943 JUMP JUMPDEST DUP3 JUMPDEST SWAP1 POP SWAP3 SWAP2 POP POP JUMP JUMPDEST PUSH1 0x0 DUP1 PUSH2 0x2957 DUP4 PUSH2 0x272A JUMP JUMPDEST PUSH2 0x2962 JUMPI PUSH1 0x1 PUSH2 0x2965 JUMP JUMPDEST PUSH1 0x3 JUMPDEST PUSH1 0xFF AND SWAP1 POP DUP3 PUSH1 0xC0 ADD CALLDATALOAD DUP2 DUP5 PUSH1 0xA0 ADD CALLDATALOAD MUL DUP5 PUSH1 0x80 ADD CALLDATALOAD ADD ADD SWAP2 POP POP SWAP2 SWAP1 POP JUMP JUMPDEST PUSH1 0x40 MLOAD DUP1 PUSH1 0xA0 ADD PUSH1 0x40 MSTORE DUP1 PUSH1 0x0 DUP1 NOT AND DUP2 MSTORE PUSH1 0x20 ADD PUSH1 0x0 DUP2 MSTORE PUSH1 0x20 ADD PUSH1 0x0 PUSH1 0x1 DUP2 GT ISZERO PUSH2 0x29B5 JUMPI PUSH2 0x29B4 PUSH2 0x38B9 JUMP JUMPDEST JUMPDEST DUP2 MSTORE PUSH1 0x20 ADD PUSH1 0x0 DUP2 MSTORE PUSH1 0x20 ADD PUSH1 0x0 DUP2 MSTORE POP SWAP1 JUMP JUMPDEST PUSH1 0x40 MLOAD DUP1 PUSH1 0xA0 ADD PUSH1 0x40 MSTORE DUP1 PUSH1 0x0 PUSH14 0xFFFFFFFFFFFFFFFFFFFFFFFFFFFF AND DUP2 MSTORE PUSH1 0x20 ADD PUSH1 0x0 ISZERO ISZERO DUP2 MSTORE PUSH1 0x20 ADD PUSH1 0x0 PUSH14 0xFFFFFFFFFFFFFFFFFFFFFFFFFFFF AND DUP2 MSTORE PUSH1 0x20 ADD PUSH1 0x0 PUSH4 0xFFFFFFFF AND DUP2 MSTORE PUSH1 0x20 ADD PUSH1 0x0 PUSH8 0xFFFFFFFFFFFFFFFF AND DUP2 MSTORE POP SWAP1 JUMP JUMPDEST PUSH1 0x0 PUSH1 0x40 MLOAD SWAP1 POP SWAP1 JUMP JUMPDEST PUSH1 0x0 DUP1 REVERT JUMPDEST PUSH1 0x0 DUP1 REVERT JUMPDEST PUSH1 0x0 PUSH4 0xFFFFFFFF DUP3 AND SWAP1 POP SWAP2 SWAP1 POP JUMP JUMPDEST PUSH2 0x2A57 DUP2 PUSH2 0x2A3E JUMP JUMPDEST DUP2 EQ PUSH2 0x2A62 JUMPI PUSH1 0x0 DUP1 REVERT JUMPDEST POP JUMP JUMPDEST PUSH1 0x0 DUP2 CALLDATALOAD SWAP1 POP PUSH2 0x2A74 DUP2 PUSH2 0x2A4E JUMP JUMPDEST SWAP3 SWAP2 POP POP JUMP JUMPDEST PUSH1 0x0 PUSH1 0x20 DUP3 DUP5 SUB SLT ISZERO PUSH2 0x2A90 JUMPI PUSH2 0x2A8F PUSH2 0x2A34 JUMP JUMPDEST JUMPDEST PUSH1 0x0 PUSH2 0x2A9E DUP5 DUP3 DUP6 ADD PUSH2 0x2A65 JUMP JUMPDEST SWAP2 POP POP SWAP3 SWAP2 POP POP JUMP JUMPDEST PUSH1 0x0 PUSH20 0xFFFFFFFFFFFFFFFFFFFFFFFFFFFFFFFFFFFFFFFF DUP3 AND SWAP1 POP SWAP2 SWAP1 POP JUMP JUMPDEST PUSH1 0x0 PUSH2 0x2AD2 DUP3 PUSH2 0x2AA7 JUMP JUMPDEST SWAP1 POP SWAP2 SWAP1 POP JUMP JUMPDEST PUSH2 0x2AE2 DUP2 PUSH2 0x2AC7 JUMP JUMPDEST DUP3 MSTORE POP POP JUMP JUMPDEST PUSH1 0x0 PUSH1 0x20 DUP3 ADD SWAP1 POP PUSH2 0x2AFD PUSH1 0x0 DUP4 ADD DUP5 PUSH2 0x2AD9 JUMP JUMPDEST SWAP3 SWAP2 POP POP JUMP JUMPDEST PUSH1 0x0 DUP2 SWAP1 POP SWAP2 SWAP1 POP JUMP JUMPDEST PUSH2 0x2B16 DUP2 PUSH2 0x2B03 JUMP JUMPDEST DUP3 MSTORE POP POP JUMP JUMPDEST PUSH1 0x0 PUSH1 0x20 DUP3 ADD SWAP1 POP PUSH2 0x2B31 PUSH1 0x0 DUP4 ADD DUP5 PUSH2 0x2B0D JUMP JUMPDEST SWAP3 SWAP2 POP POP JUMP JUMPDEST PUSH1 0x0 DUP1 REVERT JUMPDEST PUSH1 0x0 PUSH2 0x180 DUP3 DUP5 SUB SLT ISZERO PUSH2 0x2B53 JUMPI PUSH2 0x2B52 PUSH2 0x2B37 JUMP JUMPDEST JUMPDEST DUP2 SWAP1 POP SWAP3 SWAP2 POP POP JUMP JUMPDEST PUSH1 0x0 PUSH1 0x20 DUP3 DUP5 SUB SLT ISZERO PUSH2 0x2B72 JUMPI PUSH2 0x2B71 PUSH2 0x2A34 JUMP JUMPDEST JUMPDEST PUSH1 0x0 DUP3 ADD CALLDATALOAD PUSH8 0xFFFFFFFFFFFFFFFF DUP2 GT ISZERO PUSH2 0x2B90 JUMPI PUSH2 0x2B8F PUSH2 0x2A39 JUMP JUMPDEST JUMPDEST PUSH2 0x2B9C DUP5 DUP3 DUP6 ADD PUSH2 0x2B3C JUMP JUMPDEST SWAP2 POP POP SWAP3 SWAP2 POP POP JUMP JUMPDEST PUSH1 0x0 PUSH1 0x40 DUP3 ADD SWAP1 POP PUSH2 0x2BBA PUSH1 0x0 DUP4 ADD DUP6 PUSH2 0x2B0D JUMP JUMPDEST PUSH2 0x2BC7 PUSH1 0x20 DUP4 ADD DUP5 PUSH2 0x2B0D JUMP JUMPDEST SWAP4 SWAP3 POP POP POP JUMP JUMPDEST PUSH1 0x0 PUSH2 0x2BD9 DUP3 PUSH2 0x2AA7 JUMP JUMPDEST SWAP1 POP SWAP2 SWAP1 POP JUMP JUMPDEST PUSH2 0x2BE9 DUP2 PUSH2 0x2BCE JUMP JUMPDEST DUP2 EQ PUSH2 0x2BF4 JUMPI PUSH1 0x0 DUP1 REVERT JUMPDEST POP JUMP JUMPDEST PUSH1 0x0 DUP2 CALLDATALOAD SWAP1 POP PUSH2 0x2C06 DUP2 PUSH2 0x2BE0 JUMP JUMPDEST SWAP3 SWAP2 POP POP JUMP JUMPDEST PUSH2 0x2C15 DUP2 PUSH2 0x2B03 JUMP JUMPDEST DUP2 EQ PUSH2 0x2C20 JUMPI PUSH1 0x0 DUP1 REVERT JUMPDEST POP JUMP JUMPDEST PUSH1 0x0 DUP2 CALLDATALOAD SWAP1 POP PUSH2 0x2C32 DUP2 PUSH2 0x2C0C JUMP JUMPDEST SWAP3 SWAP2 POP POP JUMP JUMPDEST PUSH1 0x0 DUP1 PUSH1 0x40 DUP4 DUP6 SUB SLT ISZERO PUSH2 0x2C4F JUMPI PUSH2 0x2C4E PUSH2 0x2A34 JUMP JUMPDEST JUMPDEST PUSH1 0x0 PUSH2 0x2C5D DUP6 DUP3 DUP7 ADD PUSH2 0x2BF7 JUMP JUMPDEST SWAP3 POP POP PUSH1 0x20 PUSH2 0x2C6E DUP6 DUP3 DUP7 ADD PUSH2 0x2C23 JUMP JUMPDEST SWAP2 POP POP SWAP3 POP SWAP3 SWAP1 POP JUMP JUMPDEST PUSH1 0x0 DUP1 REVERT JUMPDEST PUSH1 0x0 DUP1 REVERT JUMPDEST PUSH1 0x0 DUP1 REVERT JUMPDEST PUSH1 0x0 DUP1 DUP4 PUSH1 0x1F DUP5 ADD SLT PUSH2 0x2C9D JUMPI PUSH2 0x2C9C PUSH2 0x2C78 JUMP JUMPDEST JUMPDEST DUP3 CALLDATALOAD SWAP1 POP PUSH8 0xFFFFFFFFFFFFFFFF DUP2 GT ISZERO PUSH2 0x2CBA JUMPI PUSH2 0x2CB9 PUSH2 0x2C7D JUMP JUMPDEST JUMPDEST PUSH1 0x20 DUP4 ADD SWAP2 POP DUP4 PUSH1 0x20 DUP3 MUL DUP4 ADD GT ISZERO PUSH2 0x2CD6 JUMPI PUSH2 0x2CD5 PUSH2 0x2C82 JUMP JUMPDEST JUMPDEST SWAP3 POP SWAP3 SWAP1 POP JUMP JUMPDEST PUSH1 0x0 DUP1 PUSH1 0x0 PUSH1 0x40 DUP5 DUP7 SUB SLT ISZERO PUSH2 0x2CF6 JUMPI PUSH2 0x2CF5 PUSH2 0x2A34 JUMP JUMPDEST JUMPDEST PUSH1 0x0 DUP5 ADD CALLDATALOAD PUSH8 0xFFFFFFFFFFFFFFFF DUP2 GT ISZERO PUSH2 0x2D14 JUMPI PUSH2 0x2D13 PUSH2 0x2A39 JUMP JUMPDEST JUMPDEST PUSH2 0x2D20 DUP7 DUP3 DUP8 ADD PUSH2 0x2C87 JUMP JUMPDEST SWAP4 POP SWAP4 POP POP PUSH1 0x20 PUSH2 0x2D33 DUP7 DUP3 DUP8 ADD PUSH2 0x2BF7 JUMP JUMPDEST SWAP2 POP POP SWAP3 POP SWAP3 POP SWAP3 JUMP JUMPDEST PUSH2 0x2D46 DUP2 PUSH2 0x2A3E JUMP JUMPDEST DUP3 MSTORE POP POP JUMP JUMPDEST PUSH1 0x0 PUSH1 0x20 DUP3 ADD SWAP1 POP PUSH2 0x2D61 PUSH1 0x0 DUP4 ADD DUP5 PUSH2 0x2D3D JUMP JUMPDEST SWAP3 SWAP2 POP POP JUMP JUMPDEST PUSH1 0x0 DUP2 SWAP1 POP SWAP2 SWAP1 POP JUMP JUMPDEST PUSH2 0x2D7A DUP2 PUSH2 0x2D67 JUMP JUMPDEST DUP3 MSTORE POP POP JUMP JUMPDEST PUSH1 0x0 PUSH1 0x20 DUP3 ADD SWAP1 POP PUSH2 0x2D95 PUSH1 0x0 DUP4 ADD DUP5 PUSH2 0x2D71 JUMP JUMPDEST SWAP3 SWAP2 POP POP JUMP JUMPDEST PUSH2 0x2DA4 DUP2 PUSH2 0x2AC7 JUMP JUMPDEST DUP2 EQ PUSH2 0x2DAF JUMPI PUSH1 0x0 DUP1 REVERT JUMPDEST POP JUMP JUMPDEST PUSH1 0x0 DUP2 CALLDATALOAD SWAP1 POP PUSH2 0x2DC1 DUP2 PUSH2 0x2D9B JUMP JUMPDEST SWAP3 SWAP2 POP POP JUMP JUMPDEST PUSH1 0x0 PUSH1 0x20 DUP3 DUP5 SUB SLT ISZERO PUSH2 0x2DDD JUMPI PUSH2 0x2DDC PUSH2 0x2A34 JUMP JUMPDEST JUMPDEST PUSH1 0x0 PUSH2 0x2DEB DUP5 DUP3 DUP6 ADD PUSH2 0x2DB2 JUMP JUMPDEST SWAP2 POP POP SWAP3 SWAP2 POP POP JUMP JUMPDEST PUSH1 0x0 PUSH14 0xFFFFFFFFFFFFFFFFFFFFFFFFFFFF DUP3 AND SWAP1 POP SWAP2 SWAP1 POP JUMP JUMPDEST PUSH2 0x2E17 DUP2 PUSH2 0x2DF4 JUMP JUMPDEST DUP3 MSTORE POP POP JUMP JUMPDEST PUSH1 0x0 DUP2 ISZERO ISZERO SWAP1 POP SWAP2 SWAP1 POP JUMP JUMPDEST PUSH2 0x2E32 DUP2 PUSH2 0x2E1D JUMP JUMPDEST DUP3 MSTORE POP POP JUMP JUMPDEST PUSH2 0x2E41 DUP2 PUSH2 0x2A3E JUMP JUMPDEST DUP3 MSTORE POP POP JUMP JUMPDEST PUSH1 0x0 PUSH8 0xFFFFFFFFFFFFFFFF DUP3 AND SWAP1 POP SWAP2 SWAP1 POP JUMP JUMPDEST PUSH2 0x2E64 DUP2 PUSH2 0x2E47 JUMP JUMPDEST DUP3 MSTORE POP POP JUMP JUMPDEST PUSH1 0xA0 DUP3 ADD PUSH1 0x0 DUP3 ADD MLOAD PUSH2 0x2E80 PUSH1 0x0 DUP6 ADD DUP3 PUSH2 0x2E0E JUMP JUMPDEST POP PUSH1 0x20 DUP3 ADD MLOAD PUSH2 0x2E93 PUSH1 0x20 DUP6 ADD DUP3 PUSH2 0x2E29 JUMP JUMPDEST POP PUSH1 0x40 DUP3 ADD MLOAD PUSH2 0x2EA6 PUSH1 0x40 DUP6 ADD DUP3 PUSH2 0x2E0E JUMP JUMPDEST POP PUSH1 0x60 DUP3 ADD MLOAD PUSH2 0x2EB9 PUSH1 0x60 DUP6 ADD DUP3 PUSH2 0x2E38 JUMP JUMPDEST POP PUSH1 0x80 DUP3 ADD MLOAD PUSH2 0x2ECC PUSH1 0x80 DUP6 ADD DUP3 PUSH2 0x2E5B JUMP JUMPDEST POP POP POP POP JUMP JUMPDEST PUSH1 0x0 PUSH1 0xA0 DUP3 ADD SWAP1 POP PUSH2 0x2EE7 PUSH1 0x0 DUP4 ADD DUP5 PUSH2 0x2E6A JUMP JUMPDEST SWAP3 SWAP2 POP POP JUMP JUMPDEST PUSH1 0x0 PUSH1 0xA0 DUP3 DUP5 SUB SLT ISZERO PUSH2 0x2F03 JUMPI PUSH2 0x2F02 PUSH2 0x2B37 JUMP JUMPDEST JUMPDEST DUP2 SWAP1 POP SWAP3 SWAP2 POP POP JUMP JUMPDEST PUSH1 0x0 DUP1 DUP4 PUSH1 0x1F DUP5 ADD SLT PUSH2 0x2F22 JUMPI PUSH2 0x2F21 PUSH2 0x2C78 JUMP JUMPDEST JUMPDEST DUP3 CALLDATALOAD SWAP1 POP PUSH8 0xFFFFFFFFFFFFFFFF DUP2 GT ISZERO PUSH2 0x2F3F JUMPI PUSH2 0x2F3E PUSH2 0x2C7D JUMP JUMPDEST JUMPDEST PUSH1 0x20 DUP4 ADD SWAP2 POP DUP4 PUSH1 0x1 DUP3 MUL DUP4 ADD GT ISZERO PUSH2 0x2F5B JUMPI PUSH2 0x2F5A PUSH2 0x2C82 JUMP JUMPDEST JUMPDEST SWAP3 POP SWAP3 SWAP1 POP JUMP JUMPDEST PUSH1 0x0 DUP1 PUSH1 0x0 DUP1 PUSH1 0xE0 DUP6 DUP8 SUB SLT ISZERO PUSH2 0x2F7C JUMPI PUSH2 0x2F7B PUSH2 0x2A34 JUMP JUMPDEST JUMPDEST PUSH1 0x0 DUP6 ADD CALLDATALOAD PUSH8 0xFFFFFFFFFFFFFFFF DUP2 GT ISZERO PUSH2 0x2F9A JUMPI PUSH2 0x2F99 PUSH2 0x2A39 JUMP JUMPDEST JUMPDEST PUSH2 0x2FA6 DUP8 DUP3 DUP9 ADD PUSH2 0x2B3C JUMP JUMPDEST SWAP5 POP POP PUSH1 0x20 PUSH2 0x2FB7 DUP8 DUP3 DUP9 ADD PUSH2 0x2EED JUMP JUMPDEST SWAP4 POP POP PUSH1 0xC0 DUP6 ADD CALLDATALOAD PUSH8 0xFFFFFFFFFFFFFFFF DUP2 GT ISZERO PUSH2 0x2FD8 JUMPI PUSH2 0x2FD7 PUSH2 0x2A39 JUMP JUMPDEST JUMPDEST PUSH2 0x2FE4 DUP8 DUP3 DUP9 ADD PUSH2 0x2F0C JUMP JUMPDEST SWAP3 POP SWAP3 POP POP SWAP3 SWAP6 SWAP2 SWAP5 POP SWAP3 POP JUMP JUMPDEST PUSH1 0x0 PUSH1 0x20 DUP3 DUP5 SUB SLT ISZERO PUSH2 0x3008 JUMPI PUSH2 0x3007 PUSH2 0x2A34 JUMP JUMPDEST JUMPDEST PUSH1 0x0 PUSH2 0x3016 DUP5 DUP3 DUP6 ADD PUSH2 0x2BF7 JUMP JUMPDEST SWAP2 POP POP SWAP3 SWAP2 POP POP JUMP JUMPDEST PUSH1 0x0 DUP1 REVERT JUMPDEST PUSH1 0x0 PUSH1 0x1F NOT PUSH1 0x1F DUP4 ADD AND SWAP1 POP SWAP2 SWAP1 POP JUMP JUMPDEST PUSH32 0x4E487B7100000000000000000000000000000000000000000000000000000000 PUSH1 0x0 MSTORE PUSH1 0x41 PUSH1 0x4 MSTORE PUSH1 0x24 PUSH1 0x0 REVERT JUMPDEST PUSH2 0x306D DUP3 PUSH2 0x3024 JUMP JUMPDEST DUP2 ADD DUP2 DUP2 LT PUSH8 0xFFFFFFFFFFFFFFFF DUP3 GT OR ISZERO PUSH2 0x308C JUMPI PUSH2 0x308B PUSH2 0x3035 JUMP JUMPDEST JUMPDEST DUP1 PUSH1 0x40 MSTORE POP POP POP JUMP JUMPDEST PUSH1 0x0 PUSH2 0x309F PUSH2 0x2A2A JUMP JUMPDEST SWAP1 POP PUSH2 0x30AB DUP3 DUP3 PUSH2 0x3064 JUMP JUMPDEST SWAP2 SWAP1 POP JUMP JUMPDEST PUSH1 0x0 PUSH8 0xFFFFFFFFFFFFFFFF DUP3 GT ISZERO PUSH2 0x30CB JUMPI PUSH2 0x30CA PUSH2 0x3035 JUMP JUMPDEST JUMPDEST PUSH2 0x30D4 DUP3 PUSH2 0x3024 JUMP JUMPDEST SWAP1 POP PUSH1 0x20 DUP2 ADD SWAP1 POP SWAP2 SWAP1 POP JUMP JUMPDEST DUP3 DUP2 DUP4 CALLDATACOPY PUSH1 0x0 DUP4 DUP4 ADD MSTORE POP POP POP JUMP JUMPDEST PUSH1 0x0 PUSH2 0x3103 PUSH2 0x30FE DUP5 PUSH2 0x30B0 JUMP JUMPDEST PUSH2 0x3095 JUMP JUMPDEST SWAP1 POP DUP3 DUP2 MSTORE PUSH1 0x20 DUP2 ADD DUP5 DUP5 DUP5 ADD GT ISZERO PUSH2 0x311F JUMPI PUSH2 0x311E PUSH2 0x301F JUMP JUMPDEST JUMPDEST PUSH2 0x312A DUP5 DUP3 DUP6 PUSH2 0x30E1 JUMP JUMPDEST POP SWAP4 SWAP3 POP POP POP JUMP JUMPDEST PUSH1 0x0 DUP3 PUSH1 0x1F DUP4 ADD SLT PUSH2 0x3147 JUMPI PUSH2 0x3146 PUSH2 0x2C78 JUMP JUMPDEST JUMPDEST DUP2 CALLDATALOAD PUSH2 0x3157 DUP5 DUP3 PUSH1 0x20 DUP7 ADD PUSH2 0x30F0 JUMP JUMPDEST SWAP2 POP POP SWAP3 SWAP2 POP POP JUMP JUMPDEST PUSH1 0x0 DUP1 PUSH1 0x40 DUP4 DUP6 SUB SLT ISZERO PUSH2 0x3177 JUMPI PUSH2 0x3176 PUSH2 0x2A34 JUMP JUMPDEST JUMPDEST PUSH1 0x0 DUP4 ADD CALLDATALOAD PUSH8 0xFFFFFFFFFFFFFFFF DUP2 GT ISZERO PUSH2 0x3195 JUMPI PUSH2 0x3194 PUSH2 0x2A39 JUMP JUMPDEST JUMPDEST PUSH2 0x31A1 DUP6 DUP3 DUP7 ADD PUSH2 0x3132 JUMP JUMPDEST SWAP3 POP POP PUSH1 0x20 PUSH2 0x31B2 DUP6 DUP3 DUP7 ADD PUSH2 0x2C23 JUMP JUMPDEST SWAP2 POP POP SWAP3 POP SWAP3 SWAP1 POP JUMP JUMPDEST PUSH1 0x0 DUP2 MLOAD SWAP1 POP SWAP2 SWAP1 POP JUMP JUMPDEST PUSH1 0x0 DUP3 DUP3 MSTORE PUSH1 0x20 DUP3 ADD SWAP1 POP SWAP3 SWAP2 POP POP JUMP JUMPDEST PUSH1 0x0 DUP2 SWAP1 POP PUSH1 0x20 DUP3 ADD SWAP1 POP SWAP2 SWAP1 POP JUMP JUMPDEST PUSH2 0x31F1 DUP2 PUSH2 0x2B03 JUMP JUMPDEST DUP3 MSTORE POP POP JUMP JUMPDEST PUSH1 0x0 PUSH2 0x3203 DUP4 DUP4 PUSH2 0x31E8 JUMP JUMPDEST PUSH1 0x20 DUP4 ADD SWAP1 POP SWAP3 SWAP2 POP POP JUMP JUMPDEST PUSH1 0x0 PUSH1 0x20 DUP3 ADD SWAP1 POP SWAP2 SWAP1 POP JUMP JUMPDEST PUSH1 0x0 PUSH2 0x3227 DUP3 PUSH2 0x31BC JUMP JUMPDEST PUSH2 0x3231 DUP2 DUP6 PUSH2 0x31C7 JUMP JUMPDEST SWAP4 POP PUSH2 0x323C DUP4 PUSH2 0x31D8 JUMP JUMPDEST DUP1 PUSH1 0x0 JUMPDEST DUP4 DUP2 LT ISZERO PUSH2 0x326D JUMPI DUP2 MLOAD PUSH2 0x3254 DUP9 DUP3 PUSH2 0x31F7 JUMP JUMPDEST SWAP8 POP PUSH2 0x325F DUP4 PUSH2 0x320F JUMP JUMPDEST SWAP3 POP POP PUSH1 0x1 DUP2 ADD SWAP1 POP PUSH2 0x3240 JUMP JUMPDEST POP DUP6 SWAP4 POP POP POP POP SWAP3 SWAP2 POP POP JUMP JUMPDEST PUSH1 0x0 PUSH1 0x20 DUP3 ADD SWAP1 POP DUP2 DUP2 SUB PUSH1 0x0 DUP4 ADD MSTORE PUSH2 0x3294 DUP2 DUP5 PUSH2 0x321C JUMP JUMPDEST SWAP1 POP SWAP3 SWAP2 POP POP JUMP JUMPDEST PUSH2 0x32A5 DUP2 PUSH2 0x2DF4 JUMP JUMPDEST DUP3 MSTORE POP POP JUMP JUMPDEST PUSH2 0x32B4 DUP2 PUSH2 0x2E1D JUMP JUMPDEST DUP3 MSTORE POP POP JUMP JUMPDEST PUSH2 0x32C3 DUP2 PUSH2 0x2E47 JUMP JUMPDEST DUP3 MSTORE POP POP JUMP JUMPDEST PUSH1 0x0 PUSH1 0xA0 DUP3 ADD SWAP1 POP PUSH2 0x32DE PUSH1 0x0 DUP4 ADD DUP9 PUSH2 0x329C JUMP JUMPDEST PUSH2 0x32EB PUSH1 0x20 DUP4 ADD DUP8 PUSH2 0x32AB JUMP JUMPDEST PUSH2 0x32F8 PUSH1 0x40 DUP4 ADD DUP7 PUSH2 0x329C JUMP JUMPDEST PUSH2 0x3305 PUSH1 0x60 DUP4 ADD DUP6 PUSH2 0x2D3D JUMP JUMPDEST PUSH2 0x3312 PUSH1 0x80 DUP4 ADD DUP5 PUSH2 0x32BA JUMP JUMPDEST SWAP7 SWAP6 POP POP POP POP POP POP JUMP JUMPDEST PUSH1 0x0 DUP2 SWAP1 POP SWAP2 SWAP1 POP JUMP JUMPDEST PUSH1 0x0 PUSH2 0x3341 PUSH2 0x333C PUSH2 0x3337 DUP5 PUSH2 0x2DF4 JUMP JUMPDEST PUSH2 0x331C JUMP JUMPDEST PUSH2 0x2B03 JUMP JUMPDEST SWAP1 POP SWAP2 SWAP1 POP JUMP JUMPDEST PUSH2 0x3351 DUP2 PUSH2 0x3326 JUMP JUMPDEST DUP3 MSTORE POP POP JUMP JUMPDEST PUSH1 0x0 PUSH1 0x20 DUP3 ADD SWAP1 POP PUSH2 0x336C PUSH1 0x0 DUP4 ADD DUP5 PUSH2 0x3348 JUMP JUMPDEST SWAP3 SWAP2 POP POP JUMP JUMPDEST PUSH1 0x0 DUP3 DUP3 MSTORE PUSH1 0x20 DUP3 ADD SWAP1 POP SWAP3 SWAP2 POP POP JUMP JUMPDEST PUSH32 0x756E7374616B652064656C617920746F6F206C6F770000000000000000000000 PUSH1 0x0 DUP3 ADD MSTORE POP JUMP JUMPDEST PUSH1 0x0 PUSH2 0x33B9 PUSH1 0x15 DUP4 PUSH2 0x3372 JUMP JUMPDEST SWAP2 POP PUSH2 0x33C4 DUP3 PUSH2 0x3383 JUMP JUMPDEST PUSH1 0x20 DUP3 ADD SWAP1 POP SWAP2 SWAP1 POP JUMP JUMPDEST PUSH1 0x0 PUSH1 0x20 DUP3 ADD SWAP1 POP DUP2 DUP2 SUB PUSH1 0x0 DUP4 ADD MSTORE PUSH2 0x33E8 DUP2 PUSH2 0x33AC JUMP JUMPDEST SWAP1 POP SWAP2 SWAP1 POP JUMP JUMPDEST PUSH32 0x63616E6E6F7420646563726561736520756E7374616B652074696D6500000000 PUSH1 0x0 DUP3 ADD MSTORE POP JUMP JUMPDEST PUSH1 0x0 PUSH2 0x3425 PUSH1 0x1C DUP4 PUSH2 0x3372 JUMP JUMPDEST SWAP2 POP PUSH2 0x3430 DUP3 PUSH2 0x33EF JUMP JUMPDEST PUSH1 0x20 DUP3 ADD SWAP1 POP SWAP2 SWAP1 POP JUMP JUMPDEST PUSH1 0x0 PUSH1 0x20 DUP3 ADD SWAP1 POP DUP2 DUP2 SUB PUSH1 0x0 DUP4 ADD MSTORE PUSH2 0x3454 DUP2 PUSH2 0x3418 JUMP JUMPDEST SWAP1 POP SWAP2 SWAP1 POP JUMP JUMPDEST PUSH32 0x4E487B7100000000000000000000000000000000000000000000000000000000 PUSH1 0x0 MSTORE PUSH1 0x11 PUSH1 0x4 MSTORE PUSH1 0x24 PUSH1 0x0 REVERT JUMPDEST PUSH1 0x0 PUSH2 0x3495 DUP3 PUSH2 0x2B03 JUMP JUMPDEST SWAP2 POP PUSH2 0x34A0 DUP4 PUSH2 0x2B03 JUMP JUMPDEST SWAP3 POP DUP3 DUP3 ADD SWAP1 POP DUP1 DUP3 GT ISZERO PUSH2 0x34B8 JUMPI PUSH2 0x34B7 PUSH2 0x345B JUMP JUMPDEST JUMPDEST SWAP3 SWAP2 POP POP JUMP JUMPDEST PUSH32 0x7374616B652076616C756520746F6F206C6F7700000000000000000000000000 PUSH1 0x0 DUP3 ADD MSTORE POP JUMP JUMPDEST PUSH1 0x0 PUSH2 0x34F4 PUSH1 0x13 DUP4 PUSH2 0x3372 JUMP JUMPDEST SWAP2 POP PUSH2 0x34FF DUP3 PUSH2 0x34BE JUMP JUMPDEST PUSH1 0x20 DUP3 ADD SWAP1 POP SWAP2 SWAP1 POP JUMP JUMPDEST PUSH1 0x0 PUSH1 0x20 DUP3 ADD SWAP1 POP DUP2 DUP2 SUB PUSH1 0x0 DUP4 ADD MSTORE PUSH2 0x3523 DUP2 PUSH2 0x34E7 JUMP JUMPDEST SWAP1 POP SWAP2 SWAP1 POP JUMP JUMPDEST PUSH32 0x7374616B65206F766572666C6F77000000000000000000000000000000000000 PUSH1 0x0 DUP3 ADD MSTORE POP JUMP JUMPDEST PUSH1 0x0 PUSH2 0x3560 PUSH1 0xE DUP4 PUSH2 0x3372 JUMP JUMPDEST SWAP2 POP PUSH2 0x356B DUP3 PUSH2 0x352A JUMP JUMPDEST PUSH1 0x20 DUP3 ADD SWAP1 POP SWAP2 SWAP1 POP JUMP JUMPDEST PUSH1 0x0 PUSH1 0x20 DUP3 ADD SWAP1 POP DUP2 DUP2 SUB PUSH1 0x0 DUP4 ADD MSTORE PUSH2 0x358F DUP2 PUSH2 0x3553 JUMP JUMPDEST SWAP1 POP SWAP2 SWAP1 POP JUMP JUMPDEST PUSH1 0x0 PUSH2 0x35B1 PUSH2 0x35AC PUSH2 0x35A7 DUP5 PUSH2 0x2A3E JUMP JUMPDEST PUSH2 0x331C JUMP JUMPDEST PUSH2 0x2B03 JUMP JUMPDEST SWAP1 POP SWAP2 SWAP1 POP JUMP JUMPDEST PUSH2 0x35C1 DUP2 PUSH2 0x3596 JUMP JUMPDEST DUP3 MSTORE POP POP JUMP JUMPDEST PUSH1 0x0 PUSH1 0x40 DUP3 ADD SWAP1 POP PUSH2 0x35DC PUSH1 0x0 DUP4 ADD DUP6 PUSH2 0x2B0D JUMP JUMPDEST PUSH2 0x35E9 PUSH1 0x20 DUP4 ADD DUP5 PUSH2 0x35B8 JUMP JUMPDEST SWAP4 SWAP3 POP POP POP JUMP JUMPDEST PUSH1 0x0 PUSH2 0x35FB DUP3 PUSH2 0x2B03 JUMP JUMPDEST SWAP2 POP PUSH2 0x3606 DUP4 PUSH2 0x2B03 JUMP JUMPDEST SWAP3 POP DUP3 DUP3 SUB SWAP1 POP DUP2 DUP2 GT ISZERO PUSH2 0x361E JUMPI PUSH2 0x361D PUSH2 0x345B JUMP JUMPDEST JUMPDEST SWAP3 SWAP2 POP POP JUMP JUMPDEST PUSH32 0x6D7573742062652063616C6C6564206F66662D636861696E2077697468206672 PUSH1 0x0 DUP3 ADD MSTORE PUSH32 0x6F6D3D7A65726F2D616464720000000000000000000000000000000000000000 PUSH1 0x20 DUP3 ADD MSTORE POP JUMP JUMPDEST PUSH1 0x0 PUSH2 0x3680 PUSH1 0x2C DUP4 PUSH2 0x3372 JUMP JUMPDEST SWAP2 POP PUSH2 0x368B DUP3 PUSH2 0x3624 JUMP JUMPDEST PUSH1 0x40 DUP3 ADD SWAP1 POP SWAP2 SWAP1 POP JUMP JUMPDEST PUSH1 0x0 PUSH1 0x20 DUP3 ADD SWAP1 POP DUP2 DUP2 SUB PUSH1 0x0 DUP4 ADD MSTORE PUSH2 0x36AF DUP2 PUSH2 0x3673 JUMP JUMPDEST SWAP1 POP SWAP2 SWAP1 POP JUMP JUMPDEST PUSH32 0x576974686472617720616D6F756E7420746F6F206C6172676500000000000000 PUSH1 0x0 DUP3 ADD MSTORE POP JUMP JUMPDEST PUSH1 0x0 PUSH2 0x36EC PUSH1 0x19 DUP4 PUSH2 0x3372 JUMP JUMPDEST SWAP2 POP PUSH2 0x36F7 DUP3 PUSH2 0x36B6 JUMP JUMPDEST PUSH1 0x20 DUP3 ADD SWAP1 POP SWAP2 SWAP1 POP JUMP JUMPDEST PUSH1 0x0 PUSH1 0x20 DUP3 ADD SWAP1 POP DUP2 DUP2 SUB PUSH1 0x0 DUP4 ADD MSTORE PUSH2 0x371B DUP2 PUSH2 0x36DF JUMP JUMPDEST SWAP1 POP SWAP2 SWAP1 POP JUMP JUMPDEST PUSH1 0x0 PUSH2 0x373D PUSH2 0x3738 PUSH2 0x3733 DUP5 PUSH2 0x2AA7 JUMP JUMPDEST PUSH2 0x331C JUMP JUMPDEST PUSH2 0x2AA7 JUMP JUMPDEST SWAP1 POP SWAP2 SWAP1 POP JUMP JUMPDEST PUSH1 0x0 PUSH2 0x374F DUP3 PUSH2 0x3722 JUMP JUMPDEST SWAP1 POP SWAP2 SWAP1 POP JUMP JUMPDEST PUSH1 0x0 PUSH2 0x3761 DUP3 PUSH2 0x3744 JUMP JUMPDEST SWAP1 POP SWAP2 SWAP1 POP JUMP JUMPDEST PUSH2 0x3771 DUP2 PUSH2 0x3756 JUMP JUMPDEST DUP3 MSTORE POP POP JUMP JUMPDEST PUSH1 0x0 PUSH1 0x40 DUP3 ADD SWAP1 POP PUSH2 0x378C PUSH1 0x0 DUP4 ADD DUP6 PUSH2 0x3768 JUMP JUMPDEST PUSH2 0x3799 PUSH1 0x20 DUP4 ADD DUP5 PUSH2 0x2B0D JUMP JUMPDEST SWAP4 SWAP3 POP POP POP JUMP JUMPDEST PUSH1 0x0 DUP2 SWAP1 POP SWAP3 SWAP2 POP POP JUMP JUMPDEST POP JUMP JUMPDEST PUSH1 0x0 PUSH2 0x37BB PUSH1 0x0 DUP4 PUSH2 0x37A0 JUMP JUMPDEST SWAP2 POP PUSH2 0x37C6 DUP3 PUSH2 0x37AB JUMP JUMPDEST PUSH1 0x0 DUP3 ADD SWAP1 POP SWAP2 SWAP1 POP JUMP JUMPDEST PUSH1 0x0 PUSH2 0x37DC DUP3 PUSH2 0x37AE JUMP JUMPDEST SWAP2 POP DUP2 SWAP1 POP SWAP2 SWAP1 POP JUMP JUMPDEST PUSH32 0x6661696C656420746F2077697468647261770000000000000000000000000000 PUSH1 0x0 DUP3 ADD MSTORE POP JUMP JUMPDEST PUSH1 0x0 PUSH2 0x381C PUSH1 0x12 DUP4 PUSH2 0x3372 JUMP JUMPDEST SWAP2 POP PUSH2 0x3827 DUP3 PUSH2 0x37E6 JUMP JUMPDEST PUSH1 0x20 DUP3 ADD SWAP1 POP SWAP2 SWAP1 POP JUMP JUMPDEST PUSH1 0x0 PUSH1 0x20 DUP3 ADD SWAP1 POP DUP2 DUP2 SUB PUSH1 0x0 DUP4 ADD MSTORE PUSH2 0x384B DUP2 PUSH2 0x380F JUMP JUMPDEST SWAP1 POP SWAP2 SWAP1 POP JUMP JUMPDEST PUSH32 0x4E487B7100000000000000000000000000000000000000000000000000000000 PUSH1 0x0 MSTORE PUSH1 0x32 PUSH1 0x4 MSTORE PUSH1 0x24 PUSH1 0x0 REVERT JUMPDEST PUSH1 0x0 DUP1 REVERT JUMPDEST PUSH1 0x0 DUP1 REVERT JUMPDEST PUSH1 0x0 DUP1 REVERT JUMPDEST PUSH1 0x0 DUP3 CALLDATALOAD PUSH1 0x1 PUSH2 0x180 SUB DUP4 CALLDATASIZE SUB SUB DUP2 SLT PUSH2 0x38AD JUMPI PUSH2 0x38AC PUSH2 0x3881 JUMP JUMPDEST JUMPDEST DUP1 DUP4 ADD SWAP2 POP POP SWAP3 SWAP2 POP POP JUMP JUMPDEST PUSH32 0x4E487B7100000000000000000000000000000000000000000000000000000000 PUSH1 0x0 MSTORE PUSH1 0x21 PUSH1 0x4 MSTORE PUSH1 0x24 PUSH1 0x0 REVERT JUMPDEST PUSH1 0x0 PUSH2 0x38F7 PUSH1 0x20 DUP5 ADD DUP5 PUSH2 0x2DB2 JUMP JUMPDEST SWAP1 POP SWAP3 SWAP2 POP POP JUMP JUMPDEST PUSH2 0x3908 DUP2 PUSH2 0x2AC7 JUMP JUMPDEST DUP3 MSTORE POP POP JUMP JUMPDEST PUSH1 0x0 PUSH2 0x391D PUSH1 0x20 DUP5 ADD DUP5 PUSH2 0x2C23 JUMP JUMPDEST SWAP1 POP SWAP3 SWAP2 POP POP JUMP JUMPDEST PUSH1 0x0 DUP1 REVERT JUMPDEST PUSH1 0x0 DUP1 REVERT JUMPDEST PUSH1 0x0 DUP1 REVERT JUMPDEST PUSH1 0x0 DUP1 DUP4 CALLDATALOAD PUSH1 0x1 PUSH1 0x20 SUB DUP5 CALLDATASIZE SUB SUB DUP2 SLT PUSH2 0x3951 JUMPI PUSH2 0x3950 PUSH2 0x392F JUMP JUMPDEST JUMPDEST DUP4 DUP2 ADD SWAP3 POP DUP3 CALLDATALOAD SWAP2 POP PUSH1 0x20 DUP4 ADD SWAP3 POP PUSH8 0xFFFFFFFFFFFFFFFF DUP3 GT ISZERO PUSH2 0x3979 JUMPI PUSH2 0x3978 PUSH2 0x3925 JUMP JUMPDEST JUMPDEST PUSH1 0x1 DUP3 MUL CALLDATASIZE SUB DUP4 SGT ISZERO PUSH2 0x398F JUMPI PUSH2 0x398E PUSH2 0x392A JUMP JUMPDEST JUMPDEST POP SWAP3 POP SWAP3 SWAP1 POP JUMP JUMPDEST PUSH1 0x0 DUP3 DUP3 MSTORE PUSH1 0x20 DUP3 ADD SWAP1 POP SWAP3 SWAP2 POP POP JUMP JUMPDEST PUSH1 0x0 PUSH2 0x39B4 DUP4 DUP6 PUSH2 0x3997 JUMP JUMPDEST SWAP4 POP PUSH2 0x39C1 DUP4 DUP6 DUP5 PUSH2 0x30E1 JUMP JUMPDEST PUSH2 0x39CA DUP4 PUSH2 0x3024 JUMP JUMPDEST DUP5 ADD SWAP1 POP SWAP4 SWAP3 POP POP POP JUMP JUMPDEST PUSH1 0x0 PUSH2 0x180 DUP4 ADD PUSH2 0x39E9 PUSH1 0x0 DUP5 ADD DUP5 PUSH2 0x38E8 JUMP JUMPDEST PUSH2 0x39F6 PUSH1 0x0 DUP7 ADD DUP3 PUSH2 0x38FF JUMP JUMPDEST POP PUSH2 0x3A04 PUSH1 0x20 DUP5 ADD DUP5 PUSH2 0x390E JUMP JUMPDEST PUSH2 0x3A11 PUSH1 0x20 DUP7 ADD DUP3 PUSH2 0x31E8 JUMP JUMPDEST POP PUSH2 0x3A1F PUSH1 0x40 DUP5 ADD DUP5 PUSH2 0x3934 JUMP JUMPDEST DUP6 DUP4 SUB PUSH1 0x40 DUP8 ADD MSTORE PUSH2 0x3A32 DUP4 DUP3 DUP5 PUSH2 0x39A8 JUMP JUMPDEST SWAP3 POP POP POP PUSH2 0x3A43 PUSH1 0x60 DUP5 ADD DUP5 PUSH2 0x3934 JUMP JUMPDEST DUP6 DUP4 SUB PUSH1 0x60 DUP8 ADD MSTORE PUSH2 0x3A56 DUP4 DUP3 DUP5 PUSH2 0x39A8 JUMP JUMPDEST SWAP3 POP POP POP PUSH2 0x3A67 PUSH1 0x80 DUP5 ADD DUP5 PUSH2 0x390E JUMP JUMPDEST PUSH2 0x3A74 PUSH1 0x80 DUP7 ADD DUP3 PUSH2 0x31E8 JUMP JUMPDEST POP PUSH2 0x3A82 PUSH1 0xA0 DUP5 ADD DUP5 PUSH2 0x390E JUMP JUMPDEST PUSH2 0x3A8F PUSH1 0xA0 DUP7 ADD DUP3 PUSH2 0x31E8 JUMP JUMPDEST POP PUSH2 0x3A9D PUSH1 0xC0 DUP5 ADD DUP5 PUSH2 0x390E JUMP JUMPDEST PUSH2 0x3AAA PUSH1 0xC0 DUP7 ADD DUP3 PUSH2 0x31E8 JUMP JUMPDEST POP PUSH2 0x3AB8 PUSH1 0xE0 DUP5 ADD DUP5 PUSH2 0x390E JUMP JUMPDEST PUSH2 0x3AC5 PUSH1 0xE0 DUP7 ADD DUP3 PUSH2 0x31E8 JUMP JUMPDEST POP PUSH2 0x3AD4 PUSH2 0x100 DUP5 ADD DUP5 PUSH2 0x390E JUMP JUMPDEST PUSH2 0x3AE2 PUSH2 0x100 DUP7 ADD DUP3 PUSH2 0x31E8 JUMP JUMPDEST POP PUSH2 0x3AF1 PUSH2 0x120 DUP5 ADD DUP5 PUSH2 0x38E8 JUMP JUMPDEST PUSH2 0x3AFF PUSH2 0x120 DUP7 ADD DUP3 PUSH2 0x38FF JUMP JUMPDEST POP PUSH2 0x3B0E PUSH2 0x140 DUP5 ADD DUP5 PUSH2 0x3934 JUMP JUMPDEST DUP6 DUP4 SUB PUSH2 0x140 DUP8 ADD MSTORE PUSH2 0x3B22 DUP4 DUP3 DUP5 PUSH2 0x39A8 JUMP JUMPDEST SWAP3 POP POP POP PUSH2 0x3B34 PUSH2 0x160 DUP5 ADD DUP5 PUSH2 0x3934 JUMP JUMPDEST DUP6 DUP4 SUB PUSH2 0x160 DUP8 ADD MSTORE PUSH2 0x3B48 DUP4 DUP3 DUP5 PUSH2 0x39A8 JUMP JUMPDEST SWAP3 POP POP POP DUP1 SWAP2 POP POP SWAP3 SWAP2 POP POP JUMP JUMPDEST PUSH2 0x3B5F DUP2 PUSH2 0x2D67 JUMP JUMPDEST DUP3 MSTORE POP POP JUMP JUMPDEST PUSH1 0x2 DUP2 LT PUSH2 0x3B76 JUMPI PUSH2 0x3B75 PUSH2 0x38B9 JUMP JUMPDEST JUMPDEST POP JUMP JUMPDEST PUSH1 0x0 DUP2 SWAP1 POP PUSH2 0x3B87 DUP3 PUSH2 0x3B65 JUMP JUMPDEST SWAP2 SWAP1 POP JUMP JUMPDEST PUSH1 0x0 PUSH2 0x3B97 DUP3 PUSH2 0x3B79 JUMP JUMPDEST SWAP1 POP SWAP2 SWAP1 POP JUMP JUMPDEST PUSH2 0x3BA7 DUP2 PUSH2 0x3B8C JUMP JUMPDEST DUP3 MSTORE POP POP JUMP JUMPDEST PUSH1 0xA0 DUP3 ADD PUSH1 0x0 DUP3 ADD MLOAD PUSH2 0x3BC3 PUSH1 0x0 DUP6 ADD DUP3 PUSH2 0x3B56 JUMP JUMPDEST POP PUSH1 0x20 DUP3 ADD MLOAD PUSH2 0x3BD6 PUSH1 0x20 DUP6 ADD DUP3 PUSH2 0x31E8 JUMP JUMPDEST POP PUSH1 0x40 DUP3 ADD MLOAD PUSH2 0x3BE9 PUSH1 0x40 DUP6 ADD DUP3 PUSH2 0x3B9E JUMP JUMPDEST POP PUSH1 0x60 DUP3 ADD MLOAD PUSH2 0x3BFC PUSH1 0x60 DUP6 ADD DUP3 PUSH2 0x31E8 JUMP JUMPDEST POP PUSH1 0x80 DUP3 ADD MLOAD PUSH2 0x3C0F PUSH1 0x80 DUP6 ADD DUP3 PUSH2 0x31E8 JUMP JUMPDEST POP POP POP POP JUMP JUMPDEST PUSH1 0x0 DUP2 MLOAD SWAP1 POP SWAP2 SWAP1 POP JUMP JUMPDEST PUSH1 0x0 DUP3 DUP3 MSTORE PUSH1 0x20 DUP3 ADD SWAP1 POP SWAP3 SWAP2 POP POP JUMP JUMPDEST PUSH1 0x0 JUMPDEST DUP4 DUP2 LT ISZERO PUSH2 0x3C4F JUMPI DUP1 DUP3 ADD MLOAD DUP2 DUP5 ADD MSTORE PUSH1 0x20 DUP2 ADD SWAP1 POP PUSH2 0x3C34 JUMP JUMPDEST PUSH1 0x0 DUP5 DUP5 ADD MSTORE POP POP POP POP JUMP JUMPDEST PUSH1 0x0 PUSH2 0x3C66 DUP3 PUSH2 0x3C15 JUMP JUMPDEST PUSH2 0x3C70 DUP2 DUP6 PUSH2 0x3C20 JUMP JUMPDEST SWAP4 POP PUSH2 0x3C80 DUP2 DUP6 PUSH1 0x20 DUP7 ADD PUSH2 0x3C31 JUMP JUMPDEST PUSH2 0x3C89 DUP2 PUSH2 0x3024 JUMP JUMPDEST DUP5 ADD SWAP2 POP POP SWAP3 SWAP2 POP POP JUMP JUMPDEST PUSH1 0x0 PUSH1 0xE0 DUP3 ADD SWAP1 POP DUP2 DUP2 SUB PUSH1 0x0 DUP4 ADD MSTORE PUSH2 0x3CAE DUP2 DUP7 PUSH2 0x39D5 JUMP JUMPDEST SWAP1 POP PUSH2 0x3CBD PUSH1 0x20 DUP4 ADD DUP6 PUSH2 0x3BAD JUMP JUMPDEST DUP2 DUP2 SUB PUSH1 0xC0 DUP4 ADD MSTORE PUSH2 0x3CCF DUP2 DUP5 PUSH2 0x3C5B JUMP JUMPDEST SWAP1 POP SWAP5 SWAP4 POP POP POP POP JUMP JUMPDEST PUSH1 0x0 DUP2 MLOAD SWAP1 POP PUSH2 0x3CE8 DUP2 PUSH2 0x2C0C JUMP JUMPDEST SWAP3 SWAP2 POP POP JUMP JUMPDEST PUSH1 0x0 PUSH1 0x20 DUP3 DUP5 SUB SLT ISZERO PUSH2 0x3D04 JUMPI PUSH2 0x3D03 PUSH2 0x2A34 JUMP JUMPDEST JUMPDEST PUSH1 0x0 PUSH2 0x3D12 DUP5 DUP3 DUP6 ADD PUSH2 0x3CD9 JUMP JUMPDEST SWAP2 POP POP SWAP3 SWAP2 POP POP JUMP JUMPDEST PUSH1 0x0 PUSH1 0x60 DUP3 ADD SWAP1 POP PUSH2 0x3D30 PUSH1 0x0 DUP4 ADD DUP7 PUSH2 0x2D71 JUMP JUMPDEST PUSH2 0x3D3D PUSH1 0x20 DUP4 ADD DUP6 PUSH2 0x2AD9 JUMP JUMPDEST PUSH2 0x3D4A PUSH1 0x40 DUP4 ADD DUP5 PUSH2 0x2B0D JUMP JUMPDEST SWAP5 SWAP4 POP POP POP POP JUMP JUMPDEST PUSH1 0x0 DUP1 DUP4 CALLDATALOAD PUSH1 0x1 PUSH1 0x20 SUB DUP5 CALLDATASIZE SUB SUB DUP2 SLT PUSH2 0x3D6F JUMPI PUSH2 0x3D6E PUSH2 0x3881 JUMP JUMPDEST JUMPDEST DUP1 DUP5 ADD SWAP3 POP DUP3 CALLDATALOAD SWAP2 POP PUSH8 0xFFFFFFFFFFFFFFFF DUP3 GT ISZERO PUSH2 0x3D91 JUMPI PUSH2 0x3D90 PUSH2 0x3886 JUMP JUMPDEST JUMPDEST PUSH1 0x20 DUP4 ADD SWAP3 POP PUSH1 0x1 DUP3 MUL CALLDATASIZE SUB DUP4 SGT ISZERO PUSH2 0x3DAD JUMPI PUSH2 0x3DAC PUSH2 0x388B JUMP JUMPDEST JUMPDEST POP SWAP3 POP SWAP3 SWAP1 POP JUMP JUMPDEST PUSH1 0x0 PUSH2 0x3DC1 DUP4 DUP6 PUSH2 0x37A0 JUMP JUMPDEST SWAP4 POP PUSH2 0x3DCE DUP4 DUP6 DUP5 PUSH2 0x30E1 JUMP JUMPDEST DUP3 DUP5 ADD SWAP1 POP SWAP4 SWAP3 POP POP POP JUMP JUMPDEST PUSH1 0x0 PUSH2 0x3DE7 DUP3 DUP5 DUP7 PUSH2 0x3DB5 JUMP JUMPDEST SWAP2 POP DUP2 SWAP1 POP SWAP4 SWAP3 POP POP POP JUMP JUMPDEST PUSH1 0x0 PUSH1 0x40 DUP3 ADD SWAP1 POP PUSH2 0x3E08 PUSH1 0x0 DUP4 ADD DUP6 PUSH2 0x2B0D JUMP JUMPDEST DUP2 DUP2 SUB PUSH1 0x20 DUP4 ADD MSTORE PUSH2 0x3E1A DUP2 DUP5 PUSH2 0x3C5B JUMP JUMPDEST SWAP1 POP SWAP4 SWAP3 POP POP POP JUMP JUMPDEST PUSH1 0x0 DUP1 REVERT JUMPDEST PUSH2 0x3E31 DUP2 PUSH2 0x2D67 JUMP JUMPDEST DUP2 EQ PUSH2 0x3E3C JUMPI PUSH1 0x0 DUP1 REVERT JUMPDEST POP JUMP JUMPDEST PUSH1 0x0 DUP2 CALLDATALOAD SWAP1 POP PUSH2 0x3E4E DUP2 PUSH2 0x3E28 JUMP JUMPDEST SWAP3 SWAP2 POP POP JUMP JUMPDEST PUSH1 0x2 DUP2 LT PUSH2 0x3E61 JUMPI PUSH1 0x0 DUP1 REVERT JUMPDEST POP JUMP JUMPDEST PUSH1 0x0 DUP2 CALLDATALOAD SWAP1 POP PUSH2 0x3E73 DUP2 PUSH2 0x3E54 JUMP JUMPDEST SWAP3 SWAP2 POP POP JUMP JUMPDEST PUSH1 0x0 PUSH1 0xA0 DUP3 DUP5 SUB SLT ISZERO PUSH2 0x3E8F JUMPI PUSH2 0x3E8E PUSH2 0x3E23 JUMP JUMPDEST JUMPDEST PUSH2 0x3E99 PUSH1 0xA0 PUSH2 0x3095 JUMP JUMPDEST SWAP1 POP PUSH1 0x0 PUSH2 0x3EA9 DUP5 DUP3 DUP6 ADD PUSH2 0x3E3F JUMP JUMPDEST PUSH1 0x0 DUP4 ADD MSTORE POP PUSH1 0x20 PUSH2 0x3EBD DUP5 DUP3 DUP6 ADD PUSH2 0x2C23 JUMP JUMPDEST PUSH1 0x20 DUP4 ADD MSTORE POP PUSH1 0x40 PUSH2 0x3ED1 DUP5 DUP3 DUP6 ADD PUSH2 0x3E64 JUMP JUMPDEST PUSH1 0x40 DUP4 ADD MSTORE POP PUSH1 0x60 PUSH2 0x3EE5 DUP5 DUP3 DUP6 ADD PUSH2 0x2C23 JUMP JUMPDEST PUSH1 0x60 DUP4 ADD MSTORE POP PUSH1 0x80 PUSH2 0x3EF9 DUP5 DUP3 DUP6 ADD PUSH2 0x2C23 JUMP JUMPDEST PUSH1 0x80 DUP4 ADD MSTORE POP SWAP3 SWAP2 POP POP JUMP JUMPDEST PUSH1 0x0 PUSH1 0xA0 DUP3 DUP5 SUB SLT ISZERO PUSH2 0x3F1B JUMPI PUSH2 0x3F1A PUSH2 0x2A34 JUMP JUMPDEST JUMPDEST PUSH1 0x0 PUSH2 0x3F29 DUP5 DUP3 DUP6 ADD PUSH2 0x3E79 JUMP JUMPDEST SWAP2 POP POP SWAP3 SWAP2 POP POP JUMP JUMPDEST PUSH32 0x6E6F74207374616B656400000000000000000000000000000000000000000000 PUSH1 0x0 DUP3 ADD MSTORE POP JUMP JUMPDEST PUSH1 0x0 PUSH2 0x3F68 PUSH1 0xA DUP4 PUSH2 0x3372 JUMP JUMPDEST SWAP2 POP PUSH2 0x3F73 DUP3 PUSH2 0x3F32 JUMP JUMPDEST PUSH1 0x20 DUP3 ADD SWAP1 POP SWAP2 SWAP1 POP JUMP JUMPDEST PUSH1 0x0 PUSH1 0x20 DUP3 ADD SWAP1 POP DUP2 DUP2 SUB PUSH1 0x0 DUP4 ADD MSTORE PUSH2 0x3F97 DUP2 PUSH2 0x3F5B JUMP JUMPDEST SWAP1 POP SWAP2 SWAP1 POP JUMP JUMPDEST PUSH32 0x616C726561647920756E7374616B696E67000000000000000000000000000000 PUSH1 0x0 DUP3 ADD MSTORE POP JUMP JUMPDEST PUSH1 0x0 PUSH2 0x3FD4 PUSH1 0x11 DUP4 PUSH2 0x3372 JUMP JUMPDEST SWAP2 POP PUSH2 0x3FDF DUP3 PUSH2 0x3F9E JUMP JUMPDEST PUSH1 0x20 DUP3 ADD SWAP1 POP SWAP2 SWAP1 POP JUMP JUMPDEST PUSH1 0x0 PUSH1 0x20 DUP3 ADD SWAP1 POP DUP2 DUP2 SUB PUSH1 0x0 DUP4 ADD MSTORE PUSH2 0x4003 DUP2 PUSH2 0x3FC7 JUMP JUMPDEST SWAP1 POP SWAP2 SWAP1 POP JUMP JUMPDEST PUSH1 0x0 PUSH2 0x4015 DUP3 PUSH2 0x2E47 JUMP JUMPDEST SWAP2 POP PUSH2 0x4020 DUP4 PUSH2 0x2E47 JUMP JUMPDEST SWAP3 POP DUP3 DUP3 ADD SWAP1 POP PUSH8 0xFFFFFFFFFFFFFFFF DUP2 GT ISZERO PUSH2 0x4040 JUMPI PUSH2 0x403F PUSH2 0x345B JUMP JUMPDEST JUMPDEST SWAP3 SWAP2 POP POP JUMP JUMPDEST PUSH1 0x0 PUSH2 0x4061 PUSH2 0x405C PUSH2 0x4057 DUP5 PUSH2 0x2E47 JUMP JUMPDEST PUSH2 0x331C JUMP JUMPDEST PUSH2 0x2B03 JUMP JUMPDEST SWAP1 POP SWAP2 SWAP1 POP JUMP JUMPDEST PUSH2 0x4071 DUP2 PUSH2 0x4046 JUMP JUMPDEST DUP3 MSTORE POP POP JUMP JUMPDEST PUSH1 0x0 PUSH1 0x20 DUP3 ADD SWAP1 POP PUSH2 0x408C PUSH1 0x0 DUP4 ADD DUP5 PUSH2 0x4068 JUMP JUMPDEST SWAP3 SWAP2 POP POP JUMP JUMPDEST PUSH32 0x4E6F207374616B6520746F207769746864726177000000000000000000000000 PUSH1 0x0 DUP3 ADD MSTORE POP JUMP JUMPDEST PUSH1 0x0 PUSH2 0x40C8 PUSH1 0x14 DUP4 PUSH2 0x3372 JUMP JUMPDEST SWAP2 POP PUSH2 0x40D3 DUP3 PUSH2 0x4092 JUMP JUMPDEST PUSH1 0x20 DUP3 ADD SWAP1 POP SWAP2 SWAP1 POP JUMP JUMPDEST PUSH1 0x0 PUSH1 0x20 DUP3 ADD SWAP1 POP DUP2 DUP2 SUB PUSH1 0x0 DUP4 ADD MSTORE PUSH2 0x40F7 DUP2 PUSH2 0x40BB JUMP JUMPDEST SWAP1 POP SWAP2 SWAP1 POP JUMP JUMPDEST PUSH32 0x6D7573742063616C6C20756E6C6F636B5374616B652829206669727374000000 PUSH1 0x0 DUP3 ADD MSTORE POP JUMP JUMPDEST PUSH1 0x0 PUSH2 0x4134 PUSH1 0x1D DUP4 PUSH2 0x3372 JUMP JUMPDEST SWAP2 POP PUSH2 0x413F DUP3 PUSH2 0x40FE JUMP JUMPDEST PUSH1 0x20 DUP3 ADD SWAP1 POP SWAP2 SWAP1 POP JUMP JUMPDEST PUSH1 0x0 PUSH1 0x20 DUP3 ADD SWAP1 POP DUP2 DUP2 SUB PUSH1 0x0 DUP4 ADD MSTORE PUSH2 0x4163 DUP2 PUSH2 0x4127 JUMP JUMPDEST SWAP1 POP SWAP2 SWAP1 POP JUMP JUMPDEST PUSH32 0x5374616B65207769746864726177616C206973206E6F74206475650000000000 PUSH1 0x0 DUP3 ADD MSTORE POP JUMP JUMPDEST PUSH1 0x0 PUSH2 0x41A0 PUSH1 0x1B DUP4 PUSH2 0x3372 JUMP JUMPDEST SWAP2 POP PUSH2 0x41AB DUP3 PUSH2 0x416A JUMP JUMPDEST PUSH1 0x20 DUP3 ADD SWAP1 POP SWAP2 SWAP1 POP JUMP JUMPDEST PUSH1 0x0 PUSH1 0x20 DUP3 ADD SWAP1 POP DUP2 DUP2 SUB PUSH1 0x0 DUP4 ADD MSTORE PUSH2 0x41CF DUP2 PUSH2 0x4193 JUMP JUMPDEST SWAP1 POP SWAP2 SWAP1 POP JUMP JUMPDEST PUSH32 0x6661696C656420746F207769746864726177207374616B650000000000000000 PUSH1 0x0 DUP3 ADD MSTORE POP JUMP JUMPDEST PUSH1 0x0 PUSH2 0x420C PUSH1 0x18 DUP4 PUSH2 0x3372 JUMP JUMPDEST SWAP2 POP PUSH2 0x4217 DUP3 PUSH2 0x41D6 JUMP JUMPDEST PUSH1 0x20 DUP3 ADD SWAP1 POP SWAP2 SWAP1 POP JUMP JUMPDEST PUSH1 0x0 PUSH1 0x20 DUP3 ADD SWAP1 POP DUP2 DUP2 SUB PUSH1 0x0 DUP4 ADD MSTORE PUSH2 0x423B DUP2 PUSH2 0x41FF JUMP JUMPDEST SWAP1 POP SWAP2 SWAP1 POP JUMP JUMPDEST PUSH1 0x0 PUSH32 0xFF00000000000000000000000000000000000000000000000000000000000000 DUP3 AND SWAP1 POP SWAP2 SWAP1 POP JUMP JUMPDEST PUSH1 0x0 DUP2 SWAP1 POP SWAP2 SWAP1 POP JUMP JUMPDEST PUSH2 0x4289 PUSH2 0x4284 DUP3 PUSH2 0x4242 JUMP JUMPDEST PUSH2 0x426E JUMP JUMPDEST DUP3 MSTORE POP POP JUMP JUMPDEST PUSH1 0x0 DUP2 PUSH1 0x60 SHL SWAP1 POP SWAP2 SWAP1 POP JUMP JUMPDEST PUSH1 0x0 PUSH2 0x42A7 DUP3 PUSH2 0x428F JUMP JUMPDEST SWAP1 POP SWAP2 SWAP1 POP JUMP JUMPDEST PUSH1 0x0 PUSH2 0x42B9 DUP3 PUSH2 0x429C JUMP JUMPDEST SWAP1 POP SWAP2 SWAP1 POP JUMP JUMPDEST PUSH2 0x42D1 PUSH2 0x42CC DUP3 PUSH2 0x2AC7 JUMP JUMPDEST PUSH2 0x42AE JUMP JUMPDEST DUP3 MSTORE POP POP JUMP JUMPDEST PUSH1 0x0 DUP2 SWAP1 POP SWAP2 SWAP1 POP JUMP JUMPDEST PUSH2 0x42F2 PUSH2 0x42ED DUP3 PUSH2 0x2B03 JUMP JUMPDEST PUSH2 0x42D7 JUMP JUMPDEST DUP3 MSTORE POP POP JUMP JUMPDEST PUSH1 0x0 DUP2 SWAP1 POP SWAP2 SWAP1 POP JUMP JUMPDEST PUSH2 0x4313 PUSH2 0x430E DUP3 PUSH2 0x2D67 JUMP JUMPDEST PUSH2 0x42F8 JUMP JUMPDEST DUP3 MSTORE POP POP JUMP JUMPDEST PUSH1 0x0 PUSH2 0x4325 DUP3 DUP8 PUSH2 0x4278 JUMP JUMPDEST PUSH1 0x1 DUP3 ADD SWAP2 POP PUSH2 0x4335 DUP3 DUP7 PUSH2 0x42C0 JUMP JUMPDEST PUSH1 0x14 DUP3 ADD SWAP2 POP PUSH2 0x4345 DUP3 DUP6 PUSH2 0x42E1 JUMP JUMPDEST PUSH1 0x20 DUP3 ADD SWAP2 POP PUSH2 0x4355 DUP3 DUP5 PUSH2 0x4302 JUMP JUMPDEST PUSH1 0x20 DUP3 ADD SWAP2 POP DUP2 SWAP1 POP SWAP6 SWAP5 POP POP POP POP POP JUMP JUMPDEST PUSH32 0x6465706F736974206F766572666C6F7700000000000000000000000000000000 PUSH1 0x0 DUP3 ADD MSTORE POP JUMP JUMPDEST PUSH1 0x0 PUSH2 0x439D PUSH1 0x10 DUP4 PUSH2 0x3372 JUMP JUMPDEST SWAP2 POP PUSH2 0x43A8 DUP3 PUSH2 0x4367 JUMP JUMPDEST PUSH1 0x20 DUP3 ADD SWAP1 POP SWAP2 SWAP1 POP JUMP JUMPDEST PUSH1 0x0 PUSH1 0x20 DUP3 ADD SWAP1 POP DUP2 DUP2 SUB PUSH1 0x0 DUP4 ADD MSTORE PUSH2 0x43CC DUP2 PUSH2 0x4390 JUMP JUMPDEST SWAP1 POP SWAP2 SWAP1 POP JUMP JUMPDEST PUSH32 0x6761732076616C756573206F766572666C6F7700000000000000000000000000 PUSH1 0x0 DUP3 ADD MSTORE POP JUMP JUMPDEST PUSH1 0x0 PUSH2 0x4409 PUSH1 0x13 DUP4 PUSH2 0x3372 JUMP JUMPDEST SWAP2 POP PUSH2 0x4414 DUP3 PUSH2 0x43D3 JUMP JUMPDEST PUSH1 0x20 DUP3 ADD SWAP1 POP SWAP2 SWAP1 POP JUMP JUMPDEST PUSH1 0x0 PUSH1 0x20 DUP3 ADD SWAP1 POP DUP2 DUP2 SUB PUSH1 0x0 DUP4 ADD MSTORE PUSH2 0x4438 DUP2 PUSH2 0x43FC JUMP JUMPDEST SWAP1 POP SWAP2 SWAP1 POP JUMP JUMPDEST PUSH32 0x55736564206D6F7265207468616E20766572696669636174696F6E4761730000 PUSH1 0x0 DUP3 ADD MSTORE POP JUMP JUMPDEST PUSH1 0x0 PUSH2 0x4475 PUSH1 0x1E DUP4 PUSH2 0x3372 JUMP JUMPDEST SWAP2 POP PUSH2 0x4480 DUP3 PUSH2 0x443F JUMP JUMPDEST PUSH1 0x20 DUP3 ADD SWAP1 POP SWAP2 SWAP1 POP JUMP JUMPDEST PUSH1 0x0 PUSH1 0x60 DUP3 ADD SWAP1 POP PUSH2 0x44A0 PUSH1 0x0 DUP4 ADD DUP6 PUSH2 0x2B0D JUMP JUMPDEST PUSH2 0x44AD PUSH1 0x20 DUP4 ADD DUP5 PUSH2 0x2AD9 JUMP JUMPDEST DUP2 DUP2 SUB PUSH1 0x40 DUP4 ADD MSTORE PUSH2 0x44BE DUP2 PUSH2 0x4468 JUMP JUMPDEST SWAP1 POP SWAP4 SWAP3 POP POP POP JUMP JUMPDEST PUSH1 0x3 DUP2 LT PUSH2 0x44D8 JUMPI PUSH2 0x44D7 PUSH2 0x38B9 JUMP JUMPDEST JUMPDEST POP JUMP JUMPDEST PUSH1 0x0 DUP2 SWAP1 POP PUSH2 0x44E9 DUP3 PUSH2 0x44C7 JUMP JUMPDEST SWAP2 SWAP1 POP JUMP JUMPDEST PUSH1 0x0 PUSH2 0x44F9 DUP3 PUSH2 0x44DB JUMP JUMPDEST SWAP1 POP SWAP2 SWAP1 POP JUMP JUMPDEST PUSH2 0x4509 DUP2 PUSH2 0x44EE JUMP JUMPDEST DUP3 MSTORE POP POP JUMP JUMPDEST PUSH1 0x0 PUSH1 0x60 DUP3 ADD SWAP1 POP PUSH2 0x4524 PUSH1 0x0 DUP4 ADD DUP7 PUSH2 0x4500 JUMP JUMPDEST DUP2 DUP2 SUB PUSH1 0x20 DUP4 ADD MSTORE PUSH2 0x4536 DUP2 DUP6 PUSH2 0x3C5B JUMP JUMPDEST SWAP1 POP PUSH2 0x4545 PUSH1 0x40 DUP4 ADD DUP5 PUSH2 0x2B0D JUMP JUMPDEST SWAP5 SWAP4 POP POP POP POP JUMP JUMPDEST PUSH1 0x0 DUP2 PUSH1 0xE0 SHR SWAP1 POP SWAP2 SWAP1 POP JUMP JUMPDEST PUSH1 0x0 PUSH1 0x3 RETURNDATASIZE GT ISZERO PUSH2 0x4579 JUMPI PUSH1 0x4 PUSH1 0x0 DUP1 RETURNDATACOPY PUSH2 0x4576 PUSH1 0x0 MLOAD PUSH2 0x454D JUMP JUMPDEST SWAP1 POP JUMPDEST SWAP1 JUMP JUMPDEST PUSH1 0x0 PUSH1 0x44 RETURNDATASIZE LT PUSH2 0x4609 JUMPI PUSH2 0x458E PUSH2 0x2A2A JUMP JUMPDEST PUSH1 0x4 RETURNDATASIZE SUB PUSH1 0x4 DUP3 RETURNDATACOPY DUP1 MLOAD RETURNDATASIZE PUSH1 0x24 DUP3 ADD GT PUSH8 0xFFFFFFFFFFFFFFFF DUP3 GT OR ISZERO PUSH2 0x45B6 JUMPI POP POP PUSH2 0x4609 JUMP JUMPDEST DUP1 DUP3 ADD DUP1 MLOAD PUSH8 0xFFFFFFFFFFFFFFFF DUP2 GT ISZERO PUSH2 0x45D4 JUMPI POP POP POP POP PUSH2 0x4609 JUMP JUMPDEST DUP1 PUSH1 0x20 DUP4 ADD ADD PUSH1 0x4 RETURNDATASIZE SUB DUP6 ADD DUP2 GT ISZERO PUSH2 0x45F1 JUMPI POP POP POP POP POP PUSH2 0x4609 JUMP JUMPDEST PUSH2 0x4600 DUP3 PUSH1 0x20 ADD DUP6 ADD DUP7 PUSH2 0x3064 JUMP JUMPDEST DUP3 SWAP6 POP POP POP POP POP POP JUMPDEST SWAP1 JUMP JUMPDEST PUSH1 0x0 DUP2 MLOAD SWAP1 POP SWAP2 SWAP1 POP JUMP JUMPDEST PUSH1 0x0 PUSH2 0x4622 DUP3 PUSH2 0x460C JUMP JUMPDEST PUSH2 0x462C DUP2 DUP6 PUSH2 0x3372 JUMP JUMPDEST SWAP4 POP PUSH2 0x463C DUP2 DUP6 PUSH1 0x20 DUP7 ADD PUSH2 0x3C31 JUMP JUMPDEST PUSH2 0x4645 DUP2 PUSH2 0x3024 JUMP JUMPDEST DUP5 ADD SWAP2 POP POP SWAP3 SWAP2 POP POP JUMP JUMPDEST PUSH1 0x0 PUSH1 0x60 DUP3 ADD SWAP1 POP PUSH2 0x4665 PUSH1 0x0 DUP4 ADD DUP7 PUSH2 0x2B0D JUMP JUMPDEST PUSH2 0x4672 PUSH1 0x20 DUP4 ADD DUP6 PUSH2 0x2AD9 JUMP JUMPDEST DUP2 DUP2 SUB PUSH1 0x40 DUP4 ADD MSTORE PUSH2 0x4684 DUP2 DUP5 PUSH2 0x4617 JUMP JUMPDEST SWAP1 POP SWAP5 SWAP4 POP POP POP POP JUMP JUMPDEST PUSH32 0x706F73744F702072657665727400000000000000000000000000000000000000 PUSH1 0x0 DUP3 ADD MSTORE POP JUMP JUMPDEST PUSH1 0x0 PUSH2 0x46C4 PUSH1 0xD DUP4 PUSH2 0x3372 JUMP JUMPDEST SWAP2 POP PUSH2 0x46CF DUP3 PUSH2 0x468E JUMP JUMPDEST PUSH1 0x20 DUP3 ADD SWAP1 POP SWAP2 SWAP1 POP JUMP JUMPDEST PUSH1 0x0 PUSH1 0x60 DUP3 ADD SWAP1 POP PUSH2 0x46EF PUSH1 0x0 DUP4 ADD DUP6 PUSH2 0x2B0D JUMP JUMPDEST PUSH2 0x46FC PUSH1 0x20 DUP4 ADD DUP5 PUSH2 0x2AD9 JUMP JUMPDEST DUP2 DUP2 SUB PUSH1 0x40 DUP4 ADD MSTORE PUSH2 0x470D DUP2 PUSH2 0x46B7 JUMP JUMPDEST SWAP1 POP SWAP4 SWAP3 POP POP POP JUMP JUMPDEST PUSH32 0x70726566756E642062656C6F772061637475616C476173436F73740000000000 PUSH1 0x0 DUP3 ADD MSTORE POP JUMP JUMPDEST PUSH1 0x0 PUSH2 0x474C PUSH1 0x1B DUP4 PUSH2 0x3372 JUMP JUMPDEST SWAP2 POP PUSH2 0x4757 DUP3 PUSH2 0x4716 JUMP JUMPDEST PUSH1 0x20 DUP3 ADD SWAP1 POP SWAP2 SWAP1 POP JUMP JUMPDEST PUSH1 0x0 PUSH1 0x60 DUP3 ADD SWAP1 POP PUSH2 0x4777 PUSH1 0x0 DUP4 ADD DUP6 PUSH2 0x2B0D JUMP JUMPDEST PUSH2 0x4784 PUSH1 0x20 DUP4 ADD DUP5 PUSH2 0x2AD9 JUMP JUMPDEST DUP2 DUP2 SUB PUSH1 0x40 DUP4 ADD MSTORE PUSH2 0x4795 DUP2 PUSH2 0x473F JUMP JUMPDEST SWAP1 POP SWAP4 SWAP3 POP POP POP JUMP JUMPDEST PUSH1 0x0 PUSH1 0x80 DUP3 ADD SWAP1 POP PUSH2 0x47B3 PUSH1 0x0 DUP4 ADD DUP8 PUSH2 0x2B0D JUMP JUMPDEST PUSH2 0x47C0 PUSH1 0x20 DUP4 ADD DUP7 PUSH2 0x2B0D JUMP JUMPDEST PUSH2 0x47CD PUSH1 0x40 DUP4 ADD DUP6 PUSH2 0x2B0D JUMP JUMPDEST PUSH2 0x47DA PUSH1 0x60 DUP4 ADD DUP5 PUSH2 0x32AB JUMP JUMPDEST SWAP6 SWAP5 POP POP POP POP POP JUMP JUMPDEST PUSH32 0x696E76616C69642062656E656669636961727900000000000000000000000000 PUSH1 0x0 DUP3 ADD MSTORE POP JUMP JUMPDEST PUSH1 0x0 PUSH2 0x4819 PUSH1 0x13 DUP4 PUSH2 0x3372 JUMP JUMPDEST SWAP2 POP PUSH2 0x4824 DUP3 PUSH2 0x47E3 JUMP JUMPDEST PUSH1 0x20 DUP3 ADD SWAP1 POP SWAP2 SWAP1 POP JUMP JUMPDEST PUSH1 0x0 PUSH1 0x20 DUP3 ADD SWAP1 POP DUP2 DUP2 SUB PUSH1 0x0 DUP4 ADD MSTORE PUSH2 0x4848 DUP2 PUSH2 0x480C JUMP JUMPDEST SWAP1 POP SWAP2 SWAP1 POP JUMP JUMPDEST PUSH1 0x0 PUSH1 0x60 DUP3 ADD SWAP1 POP DUP2 DUP2 SUB PUSH1 0x0 DUP4 ADD MSTORE PUSH2 0x4869 DUP2 DUP7 PUSH2 0x39D5 JUMP JUMPDEST SWAP1 POP PUSH2 0x4878 PUSH1 0x20 DUP4 ADD DUP6 PUSH2 0x2D71 JUMP JUMPDEST PUSH2 0x4885 PUSH1 0x40 DUP4 ADD DUP5 PUSH2 0x2B0D JUMP JUMPDEST SWAP5 SWAP4 POP POP POP POP JUMP JUMPDEST PUSH1 0x0 PUSH2 0x489A PUSH1 0x0 DUP4 PUSH2 0x3372 JUMP JUMPDEST SWAP2 POP PUSH2 0x48A5 DUP3 PUSH2 0x37AB JUMP JUMPDEST PUSH1 0x0 DUP3 ADD SWAP1 POP SWAP2 SWAP1 POP JUMP JUMPDEST PUSH1 0x0 PUSH1 0x60 DUP3 ADD SWAP1 POP PUSH2 0x48C5 PUSH1 0x0 DUP4 ADD DUP6 PUSH2 0x2B0D JUMP JUMPDEST PUSH2 0x48D2 PUSH1 0x20 DUP4 ADD DUP5 PUSH2 0x2AD9 JUMP JUMPDEST DUP2 DUP2 SUB PUSH1 0x40 DUP4 ADD MSTORE PUSH2 0x48E3 DUP2 PUSH2 0x488D JUMP JUMPDEST SWAP1 POP SWAP4 SWAP3 POP POP POP JUMP JUMPDEST PUSH32 0x77616C6C6574206469646E2774207061792070726566756E6400000000000000 PUSH1 0x0 DUP3 ADD MSTORE POP JUMP JUMPDEST PUSH1 0x0 PUSH2 0x4922 PUSH1 0x19 DUP4 PUSH2 0x3372 JUMP JUMPDEST SWAP2 POP PUSH2 0x492D DUP3 PUSH2 0x48EC JUMP JUMPDEST PUSH1 0x20 DUP3 ADD SWAP1 POP SWAP2 SWAP1 POP JUMP JUMPDEST PUSH1 0x0 PUSH1 0x60 DUP3 ADD SWAP1 POP PUSH2 0x494D PUSH1 0x0 DUP4 ADD DUP6 PUSH2 0x2B0D JUMP JUMPDEST PUSH2 0x495A PUSH1 0x20 DUP4 ADD DUP5 PUSH2 0x2AD9 JUMP JUMPDEST DUP2 DUP2 SUB PUSH1 0x40 DUP4 ADD MSTORE PUSH2 0x496B DUP2 PUSH2 0x4915 JUMP JUMPDEST SWAP1 POP SWAP4 SWAP3 POP POP POP JUMP JUMPDEST PUSH1 0x0 PUSH1 0x60 DUP3 ADD SWAP1 POP PUSH2 0x4989 PUSH1 0x0 DUP4 ADD DUP6 PUSH2 0x2B0D JUMP JUMPDEST PUSH2 0x4996 PUSH1 0x20 DUP4 ADD DUP5 PUSH2 0x2AD9 JUMP JUMPDEST DUP2 DUP2 SUB PUSH1 0x40 DUP4 ADD MSTORE PUSH2 0x49A7 DUP2 PUSH2 0x3F5B JUMP JUMPDEST SWAP1 POP SWAP4 SWAP3 POP POP POP JUMP JUMPDEST PUSH32 0x7061796D6173746572206465706F73697420746F6F206C6F7700000000000000 PUSH1 0x0 DUP3 ADD MSTORE POP JUMP JUMPDEST PUSH1 0x0 PUSH2 0x49E6 PUSH1 0x19 DUP4 PUSH2 0x3372 JUMP JUMPDEST SWAP2 POP PUSH2 0x49F1 DUP3 PUSH2 0x49B0 JUMP JUMPDEST PUSH1 0x20 DUP3 ADD SWAP1 POP SWAP2 SWAP1 POP JUMP JUMPDEST PUSH1 0x0 PUSH1 0x60 DUP3 ADD SWAP1 POP PUSH2 0x4A11 PUSH1 0x0 DUP4 ADD DUP6 PUSH2 0x2B0D JUMP JUMPDEST PUSH2 0x4A1E PUSH1 0x20 DUP4 ADD DUP5 PUSH2 0x2AD9 JUMP JUMPDEST DUP2 DUP2 SUB PUSH1 0x40 DUP4 ADD MSTORE PUSH2 0x4A2F DUP2 PUSH2 0x49D9 JUMP JUMPDEST SWAP1 POP SWAP4 SWAP3 POP POP POP JUMP JUMPDEST PUSH1 0x0 PUSH2 0x4A4B PUSH2 0x4A46 DUP5 PUSH2 0x30B0 JUMP JUMPDEST PUSH2 0x3095 JUMP JUMPDEST SWAP1 POP DUP3 DUP2 MSTORE PUSH1 0x20 DUP2 ADD DUP5 DUP5 DUP5 ADD GT ISZERO PUSH2 0x4A67 JUMPI PUSH2 0x4A66 PUSH2 0x301F JUMP JUMPDEST JUMPDEST PUSH2 0x4A72 DUP5 DUP3 DUP6 PUSH2 0x3C31 JUMP JUMPDEST POP SWAP4 SWAP3 POP POP POP JUMP JUMPDEST PUSH1 0x0 DUP3 PUSH1 0x1F DUP4 ADD SLT PUSH2 0x4A8F JUMPI PUSH2 0x4A8E PUSH2 0x2C78 JUMP JUMPDEST JUMPDEST DUP2 MLOAD PUSH2 0x4A9F DUP5 DUP3 PUSH1 0x20 DUP7 ADD PUSH2 0x4A38 JUMP JUMPDEST SWAP2 POP POP SWAP3 SWAP2 POP POP JUMP JUMPDEST PUSH1 0x0 PUSH1 0x20 DUP3 DUP5 SUB SLT ISZERO PUSH2 0x4ABE JUMPI PUSH2 0x4ABD PUSH2 0x2A34 JUMP JUMPDEST JUMPDEST PUSH1 0x0 DUP3 ADD MLOAD PUSH8 0xFFFFFFFFFFFFFFFF DUP2 GT ISZERO PUSH2 0x4ADC JUMPI PUSH2 0x4ADB PUSH2 0x2A39 JUMP JUMPDEST JUMPDEST PUSH2 0x4AE8 DUP5 DUP3 DUP6 ADD PUSH2 0x4A7A JUMP JUMPDEST SWAP2 POP POP SWAP3 SWAP2 POP POP JUMP JUMPDEST PUSH1 0x0 PUSH2 0x4AFD DUP4 DUP6 PUSH2 0x3C20 JUMP JUMPDEST SWAP4 POP PUSH2 0x4B0A DUP4 DUP6 DUP5 PUSH2 0x30E1 JUMP JUMPDEST PUSH2 0x4B13 DUP4 PUSH2 0x3024 JUMP JUMPDEST DUP5 ADD SWAP1 POP SWAP4 SWAP3 POP POP POP JUMP JUMPDEST PUSH1 0x0 PUSH1 0x40 DUP3 ADD SWAP1 POP DUP2 DUP2 SUB PUSH1 0x0 DUP4 ADD MSTORE PUSH2 0x4B39 DUP2 DUP6 DUP8 PUSH2 0x4AF1 JUMP JUMPDEST SWAP1 POP PUSH2 0x4B48 PUSH1 0x20 DUP4 ADD DUP5 PUSH2 0x2D71 JUMP JUMPDEST SWAP5 SWAP4 POP POP POP POP JUMP JUMPDEST PUSH1 0x0 DUP2 MLOAD SWAP1 POP PUSH2 0x4B5F DUP2 PUSH2 0x2D9B JUMP JUMPDEST SWAP3 SWAP2 POP POP JUMP JUMPDEST PUSH1 0x0 PUSH1 0x20 DUP3 DUP5 SUB SLT ISZERO PUSH2 0x4B7B JUMPI PUSH2 0x4B7A PUSH2 0x2A34 JUMP JUMPDEST JUMPDEST PUSH1 0x0 PUSH2 0x4B89 DUP5 DUP3 DUP6 ADD PUSH2 0x4B50 JUMP JUMPDEST SWAP2 POP POP SWAP3 SWAP2 POP POP JUMP JUMPDEST PUSH32 0x63726561746532206661696C6564000000000000000000000000000000000000 PUSH1 0x0 DUP3 ADD MSTORE POP JUMP JUMPDEST PUSH1 0x0 PUSH2 0x4BC8 PUSH1 0xE DUP4 PUSH2 0x3372 JUMP JUMPDEST SWAP2 POP PUSH2 0x4BD3 DUP3 PUSH2 0x4B92 JUMP JUMPDEST PUSH1 0x20 DUP3 ADD SWAP1 POP SWAP2 SWAP1 POP JUMP JUMPDEST PUSH1 0x0 PUSH1 0x20 DUP3 ADD SWAP1 POP DUP2 DUP2 SUB PUSH1 0x0 DUP4 ADD MSTORE PUSH2 0x4BF7 DUP2 PUSH2 0x4BBB JUMP JUMPDEST SWAP1 POP SWAP2 SWAP1 POP JUMP JUMPDEST PUSH32 0x73656E64657220646F65736E2774206D61746368206372656174653220616464 PUSH1 0x0 DUP3 ADD MSTORE PUSH32 0x7265737300000000000000000000000000000000000000000000000000000000 PUSH1 0x20 DUP3 ADD MSTORE POP JUMP JUMPDEST PUSH1 0x0 PUSH2 0x4C5A PUSH1 0x24 DUP4 PUSH2 0x3372 JUMP JUMPDEST SWAP2 POP PUSH2 0x4C65 DUP3 PUSH2 0x4BFE JUMP JUMPDEST PUSH1 0x40 DUP3 ADD SWAP1 POP SWAP2 SWAP1 POP JUMP JUMPDEST PUSH1 0x0 PUSH1 0x20 DUP3 ADD SWAP1 POP DUP2 DUP2 SUB PUSH1 0x0 DUP4 ADD MSTORE PUSH2 0x4C89 DUP2 PUSH2 0x4C4D JUMP JUMPDEST SWAP1 POP SWAP2 SWAP1 POP JUMP INVALID LOG2 PUSH5 0x6970667358 0x22 SLT KECCAK256 TIMESTAMP CALLVALUE 0xE DUP1 DIV PUSH0 DUP15 0xA6 0xA5 0xB8 DUP9 0x2F 0xDA 0xE 0xC7 PUSH0 0xED 0xB0 DUP8 LOG1 0xE6 0xBD CODECOPY PUSH22 0x539CC22579159DB564736F6C63430008150033000000 "},"methodIdentifiers":{"addStake(uint32)":"0396cb60","balanceOf(address)":"70a08231","create2factory()":"0bfb6847","depositTo(address)":"b760faf9","deposits(address)":"fc7e286d","getDepositInfo(address)":"5287ce12","getRequestId((address,uint256,bytes,bytes,uint256,uint256,uint256,uint256,uint256,address,bytes,bytes))":"4baeaf8a","getSenderAddress(bytes,uint256)":"c31e4354","getSenderStorage(address)":"ec8b5dbf","handleOps((address,uint256,bytes,bytes,uint256,uint256,uint256,uint256,uint256,address,bytes,bytes)[],address)":"2815c17b","innerHandleOp((address,uint256,bytes,bytes,uint256,uint256,uint256,uint256,uint256,address,bytes,bytes),(bytes32,uint256,uint8,uint256,uint256),bytes)":"88799426","paymasterStake()":"17c6a987","simulateValidation((address,uint256,bytes,bytes,uint256,uint256,uint256,uint256,uint256,address,bytes,bytes))":"1a1c1141","unlockStake()":"bb9fe6bf","unstakeDelaySec()":"390b9978","withdrawStake(address)":"c23a5cea","withdrawTo(address,uint256)":"205c2878"}}}}}